:020000041000EA
:4000000000400208230100100D00000085010010000000000000000000000000000000000000000000000000000000008101001000000000000000008101001081010010E9
:400040008101001081010010810100108101001081010010810100108101001081010010810100108101001081010010810100108101001081010010810100108101001060
:400080008101001081010010810100108101001081010010810100108101001081010010810100108101001081010010810100108101001081010010810100108101001020
:4000C00010B5064C2378002B07D1054B002B02D0044800E000BF0123237010BD3C0600080000000000340010084B10B5002B03D00749084800E000BF07480368002B00D1F6
:4001000010BD064B002BFBD09847F9E7000000004006000800340010E8000008000000007047FFF7FDFF72B60F4C104DAC4209DA21686268A368043B02DBC858D050FAE775
:400140000C34F3E70A490B4A0020521A02DD043A8850FCDC084809490860BFF34F8F00F007F900F01DF8FEE7043400101C3400103C0600084C0800080000000808ED00E0C5
:40018000FEE7FEE700B504207146084202D0EFF3098001E0EFF30880043001F007FCFEE710B5034800F06AF9002001F0BBFFFBE70000081010B5002001F074F910BDC046C8
:4001C00070B56249E0239B00CB580F2213401A00D0329200525807210A40032A05D0042A06D0002A12D15A4814E05A4A106811E01A00C0329200554952581F210A40112ABF
:4002000006D0132A04D0FA20C00103E0524801E080200002002B36D14C4BB222D2009A5801211140B125ED005A59120F032422405B591B0F1C4207D0444C63591B0F032458
:400240002340012B02D102E0012300E00023002B01D0002901D1032A4BD13C4BB022D2009D58AD03AD0B3D495958C904C90C9C58240E01231C40013402F006F868432100DB
:4002800002F002F835E0012B33D1304BC822D2009A5801251540C024E4001A59120F03210A401B591B0F194207D028490B591B0F03210B40012B02D102E0012300E0002359
:4002C000002B01D0002D01D1032A12D11F4DC022D200AB587F210B40A958090A1F263140AC58240C3440584301F0CEFF210001F0CBFFE0239B00154AD3581B09032213407A
:40030000D840144C6060164B1D692D0AFC32154001351969090E013101F0B6FFA060290001F0B2FF0500E06020610E4BC0180E4901F0AAFF20750D4BE818FA21890001F008
:40034000A3FFA061C003E06170BDC0460000264000127A00C000000800366E0184050000000021403F420F0040420F00E703000010B5284801F082FF274CB022D200A35896
:400380005B005B08A350E0218900635830208343635080235B04A350204A214BE250A02292010433E250FF221E4BE25001F054FFC0225200A35801218B43A35000F014FBB2
:4003C000FFF7FEFEB0235B055B78002B04D0B0235B055B78DBB200E02123212B03D1124B0022DA605A60114C22008021042000F0FFFD2000103000F093FE0D4B1A6851235D
:40040000D35C002B02D00B4800F000FF00F0C8FC10BDC046483300100000264001000200840500008C050000E00023405806000848080008102400108023024AD358032037
:40044000184070470000214010B501F042FB084980228C58074B2340074C23438B508823034AD358DB06FAD501F037FB10BDC04600002140FCFF00000100FA0570B50500AA
:40048000830504D0E821FF310F4801F061FA01F020FB0400FFF7D0FF032801D1FFF7D4FF0A4AB0239B00D55080215058084B03400848034353508823044AD358DB06FAD596
:4004C000200001F00AFB70BD4424001000002140FCFF00000300FA05FEE7C046F0B50025002711E0BB00C658F3B2FF22964308E06A008A181478A419527822700135013B93
:40050000DBB2002BF4D10137002FEBD0F0BDC0460323064A1360064A136080225201054B1A60054A054B1A607047C04608203140102031409402364001001180000E1F41E2
:4005400010B50A00002101F034FF10BD10B501F027FF10BD70B586B03C49A022D2008B58032083438B503A490B681A6885301B58D2181068374B184010600A6810688424F8
:400580001259801802681202120A0260086805680259AA181068034080204000034313600B683E229A5C002A06D02848E02189004258753CA24342503E229A5C002A06D013
:4005C0002248E021890042583024A24342503E229B5C002B07D01D49E02292008B588020000603438B500021012000F08DFF0021022000F089FF0021032000F085FF002153
:40060000042000F081FF0021002000F07DFF01A8114903000A0032CA32C312CA12C300F0A1FF002802D00420FFF756FF07490B4A8B588020000603438B50094801F04EF8F7
:4006400000280FD00420FFF747FFC0460000264048080008FF00FFFF5C240010087F0000400D0300CC4CCD4BE158CD4A0A40E250E158CC4A0A40E250E25880252D062A43A5
:40068000E250043BE158C84A0A40E250E158C74A0A40802189010A43E250E258802109020A43E250C24A1168C24B0B40802149000B431360002001F0B1FDBF4BE25815437C
:4006C000E550E158012291430A43E2506421002001F084F9B94B1B683F229A5C012A06D970229A5C04210A40B549986842509A6874215B5AD2181169B24B0B408E21C90123
:400700000B431361AD4B1B6873229A5C0321914070229A5C7220185C140084402143042002400A43802109060A438021C900986842509A6852583F229A5C022A06D97022E6
:400740009A5C03210A40A049986842509A6874215B5AD218D1689B4B0B408021C9010B43D360964B1B6873229A5C03200400944070229A5C7221595C15008D4029002143E5
:4007800002400A43802109060A438021C900986842509A6852583F229A5C032A06D970229A5C02210A408949986842509A6874215B5AD2189168834B0B408021C9010B4348
:4007C00093607E4B1B6873229A5C0321914070229A5C7220185C140084402143022002400A43802109060A438021C900986842509A6852583F229A5C062A06D970229A5C2C
:4008000001210A407249986842509A6874215B5AD31859686B4A0A405A60684B1B6873229A5C0321914070229A5C7220185C140084402143012002400A43802109060A4321
:400840008021C900986842509A6852583F229A5C132A11D971229C5C01200100A1406E3AA2400A4010007022995C6F3A114002000A435849986842509A6876215B5AD218A5
:400880005168554B0B4055490B4353604B4B1B6873229A5C03242500954070229A5C7221595C1000884005437121595C0126300088408C4021000140294332400A438021E0
:4008C00009060A438021C900986842509A6852583F229A5C142A0BD97122985C703A82401100032282400A40C5210901986842509A6876215B5AD2181168374B0B403849C5
:400900000B4313602D4B1B6873229A5C0324210091400A007021585C0231595C8840104371229A5C01219140944022000A400243802109060A438021C900986842509A6809
:4009400052583F229A5C332A03D90021254A986881509A6874215B5AD2181168194B0B40FE2109020B431360144B1A687323D15C703B8B4019007023D35C7220105C8340DD
:400980000B43802109060B438021C9009068435093685B5806B070BD0000264004050000FEFCFFFFFFFF00FFFFF0FFFFFF8FFFFF00002740FFFCFFFF0C05000048080008BF
:4009C000040C0000FF00FFFF080C00000C0C0000180C00004C0C0000FF0000FF004FC30000871300CC0C000070B58AB09621002000F0F4FF00F0CAFF002814D100F0B6FF3C
:400A0000C0235B00734AD358DB0705D41100724A8B585B005B088B506E496F4A8B588020000603438B50012001F096FA6B4A516C6B4B0B40E82189010B435364536C1B0AE1
:400A4000FF2213403A2B07D1644A516C654B0B40E82189010B435364FFF77CFD624A634B1A6000240CE0620012195300604AD318198B9A8AD88A00041043FFF761FD0134F5
:400A80000B2CF0D900240AE0620012199300584AD3185A6E196ED86DFFF758FD0134112CF2D9544D2900343128003830FFF716FD0F22514B1A60514B51490B6051490A60AB
:400AC000514A1360514A1368812149000B43136001AC22002B003C3343CB43C243CB43C243CB43C221004A4800F062F924220021200001F05EFC012301932100454800F05E
:400B000057F924220021200001F053FC424BE3602100424800F04CF922002B00603323CB23C223CB23C223CB23C221003C4800F03FF924220021200001F03BFC86230193DC
:400B40002100384800F034F9374D22002B1D43CB43C243CB43C243CB43C22100334800F027F922002B00283343CB43C243CB43C243CB43C221002E4800F01AF922002B001C
:400B80004C3343CB43C243CB43C243CB43C22100284800F00DF922002B00703323CB23C223CB23C223CB23C22100234800F000F92200224B143323CB23C223CB23C223CBAE
:400BC00023C221001E4800F0F3F8FFF7A1FC0AB070BDC046000026400C05000000002740FF00FFFFFFC5FFDF0300FA05F00121405C2400105C250010000063400701010090
:400C000000026340000064400002644000793440000032408000324000866606800232400003324080033240DC250010000432408004324000053240000632405C26001026
:400C400080063240214B984230D00ED8402831D004D800281FD010282AD031E080282BD080235B00984229D02AE0194B984229D007D8A0231B0698420DD0164B984212D065
:400C80001EE0154B98420AD0144B984209D0144B984215D101E0002016E0124814E0124812E0124810E0A020C0030DE007480BE00F4809E00F4807E00F4805E0034803E084
:400CC0000E4801E0A420C0037047C04606005200010000F0090000A0040000F0050000F0030000F0010052000200520003005200010050000200500005005200FF00520064
:400D000070B5124B1A683123D35C002B04D1C421FF310F4800F01CFE0C4B1D682C00B423EB582A6A944663441B68002B0BDB094B1868FFF787FF6B6801229A6063689B68DD
:400D4000002BFBD100E0044870BDC04648080008C42F0010E80700080200500010B50D4B1861002805D002230370FD33437000234380094B1B6850229A5C002A08D05122D1
:400D80009B5C002B04D04F3A0449002000F0F8FA10BDC046E8070008480800086101000810B502481430FFF7D9FF10BDE807000870B505000C0000285DD000295DD0FF23F1
:400DC0000A689A4303D099212D4800F0C1FDFF2322699A4303D09A21294800F0B9FDA3685B0D03D09B21264800F0B2FD63685B0A03D09C21224800F0ABFDE3695B0F03D06B
:400E00009D211F4800F0A4FD236A5B0F03D09E211B4800F09DFD1B4A11688B69EB1ADB0949691B01CB18216829607D211068415C6918E06808607E211068415C6918206966
:400E400008607F211068415C6918606908607C211068415C6918A06808606168A961116880228A5CAD18A2692A60E2691A60226A5A60002002E0044800E0034870BDC0461B
:400E8000043000104808000801005A0070B504000D000A4B1A68B423D3581B181B68002B0ADA0B0C03D00649064800F051FD2D042D0C6560002000E0034870BD48080008A3
:400EC000D50200008430001001008A0070B505000C000368002B01DA002300E0084B002B0BD1EA60230C03D00649074800F030FD2404240CAC60002000E0014870BDC046E1
:400F000001008A00BB0200008430001070B505000C1E03D19921084800F01AFD074B1A68B423D3585B191B68002B03DAEB682360002000E0024870BDC430001048080008EE
:400F400001008A0070B504000D00234B1A683123D35C834236D9002936D00B68DB0635D13123D35C984204D3C421FF311B4800F0EFFC194B1B681A6AB0215B5A5C4314199C
:400F8000174E34602B68DA080021686801F011FA00212000FFF77AFF3468002D03D111490E4800F0D5FC2A0000212000FFF78EFF00280DD10A4B18680021FFF767FF0028AA
:400FC00008D108E0084806E0074804E0064802E0064800E0054870BD4808000884300010000800089303000003018A0001018A0010B50400002A17D1002915D1124B1A684A
:401000003123D35C984204D3C421FF310F4800F09FFC0D4B1B681A6AB0215B5A5C4314190B4B1C6000200EE0002A09D0002909D0074B59609A60191D2000FFF783FF02E03A
:40104000044800E0034810BD48080008843000100008000803018A00F0B583B00D001C4B1B68DC68236883422DD947097B01C01A012383401E00002903D100F02AFD0190B9
:4010800001E000230193124B18680368002B01DA002300E00F4B002B0ED16368BF00DF193B68334203D0B3433B60002400E00A4C0021FFF7EBFE00E0084C002D04D10198BC
:4010C00000F00BFD00E0064C200003B0F0BDC0460008000801008A00020188000301880004018A000A4B1B68DA68136883420BD943095901401A0121814052689B009B5896
:401100000B4203D0034802E0034800E003487047000800080101880004018A0000018800034B1B68002B01D1014B18607047C0460C080008F0B5474680B404000F009046C9
:401140001E002D4B1B68002B03D1B5212B4800F0FFFB294B1B682C2060431C18FF22150035402560330A13406360360CA660244B1A683123D35C9D4204D3C421FF31214897
:4011800000F0E6FB1E4B1A68B023D35A6B43116A8C466344236166683223D35C9E4204D3E021FF31174800F0D3FB154B1B681D6A80367601AD196561A668330C04D0FF2192
:4011C0004900104800F0C4FB330C03D00E490D4800F0BEFB3604330C1E43AE604346E36127620023A361069B002B02D000229B5EA38104BC9046F0BD0C0800080431001052
:401200004808000884300010FF010000F0B58FB0041E03D15221294800F09AFB6368032B03D95421254800F093FBE36A002B03D15821224800F08CFB236B002B03D159216D
:401240001E4800F085FB07AA1300210061C961C321C921C302AD290023001433C1CBC1C141CB41C10821535E0CAE3380144B1B6836215B5E07998C466344B370089B0D9381
:401280000B9B0A980096A26AE16AFFF753FF2B69E868002200920021FFF74CFF216B300000F0E8FA0023F25E002A05DB1F231A401E3B9340034A13600FB0F0BD0431001073
:4012C0004808000800E100E0F8B505000F0016001C00002A03D1FD21224800F039FB224B1B68002B03D1FE211E4800F031FB1E4B1B682C212800484318187943591801223C
:4013000013004D68AB401B044568AA4015000269002A20D08F69002F1FD11268002A01DA002200E0114A002A19D132681204120C134333600369DE6001238B614C62046917
:401340002B0C03D00A490B4800F002FB2A04120CA260002004E0084802E0084800E00748F8BDC046043100100C08000801008A00BB0200008430001004028A0007028A0082
:4013800070B504000D0016000F4B1B68002B04D1AF2149000D4800F0DBFA0B4B1B682C2060431C18236A002B04D1B1214900074800F0CEFAE369B34204D9236AB6009D51D7
:4013C000002000E0024870BD0C080008043100100A028A0070B582B0040000230193002804D1D221FF312D4800F0B2FA2369002B04D1E9214900294800F0AAFA6369002B61
:4014000004D1D421FF31254800F0A2FA236A002B04D1EA214900214800F09AFA6269D5682B0C24D01B041360136820691C4B1A68B423D358C3181B68002B18DA01A9FFF71C
:4014400065FD00280ED1019803681E0CFF221340E269934207D29B00226AD358002B02D0984700E0002631002069FFF70FFD2D042D0C0FD063691D601B68636A002B03D098
:4014800098470023636203E0A36A002B00D098470023A36163691B6802B070BD043100104808000810B50400084B1B68002B04D1B221FF31064800F04BFA044B1B682C2066
:4014C00060431818FFF786FF10BDC0460C0800080431001010B50400094B1B689B6CC340DB0703D4BE21074800F032FA044B1B681B691034A402E3580F20184010BDC046E8
:401500004808000844310010134B1A683C23D35C83421DD9042904D94B1EFF3B9BB2132B18D8FF290CD91F2319400C4A0300C0339B009950D03080000423835000200AE081
:4015400007231940D0308000044BC150002002E0034800E002487047480800080000264001004A0070B5041E03D14A494A4800F0EFF9B023DB00494AD358002B00DA87E0E1
:40158000474B22689A4203D94649434800F0E0F923689B039B0BE279002A02D08022520400E000221343B022D2003C498B50A2883D4B9A4204D98C218900374800F0C8F929
:4015C00022893A4B9A4203D93949334800F0C0F9A388DB04D90C23891B04364A13400B43354A2E498B50A37A0F2B04D98E218900294800F0ADF9E37A0F2B03D92F492648E5
:4016000000F0A6F9A289284B9A4203D92C49224800F09EF9A37A0F211940E27A1201FF2313400B43A289120226490A401343A27B1207C02189050A401343B122D2001749EF
:401640008B50A379042B03D91F49134800F080F9228A164B9A4204D9912189000E4800F077F90E4819494558194B1D40A3791B02E022D20013402B4343504558154B1D40B4
:40168000238A1B040B4A13402B434350002000E0114870BD1F0200008431001000002640FFFF030029020000FF1F0000FF010000310200000000FF018405000039020000A2
:4016C0003A02000000FF1F00430200008C050000FFF8FFFFFFFF00FE03004A0070B505003149324A8B588020000603438B502C0003E0012000F020F9013CB223DB002A4A18
:40170000D3585B0701D4002CF3D12749B122D2008858274B03408020800503438B50002D01D0002C0CD02049B022D2008B588020000603438B5003E0012000F0FDF8013C84
:40174000B223DB00184AD358DB0701D4002CF3D1002D01D0002C08D01349B122D2008B58C020800503438B5013E00F4BB121C90058580F4A02408020800502435A50083991
:401780005A58520052085A5008495A58520052085A50002D03D0002C03D0002002E0002000E0044870BDC046000026408C050000FFFFFFCF02004A0070B505000C001A4B9E
:4017C0001B6828229A5C012A15D1820807211000884327D19200AD1AED00FF20A8401B6820339A181168AC4023004B40184004004C40146016E03A229B5EDBB2994203D1C5
:4018000076210A4800F0A4F8074B1B681B68072215408022120615438022920194466444A400E55070BDC046480800080C32001070B504000D000B4B9A680B4B9A420CD145
:40184000002904D13821FF31084800F081F81034054BA400E058E55003E01034A400044BE05870BD00ED00E0000000080C32001000000010F0B5474680B482B0061E019183
:401880004AD04368032B03D93221264800F060F80023F05E002804DBB178FFF78DFF002400E0214C0023F15E7368002912DB88081E4FC0308000C55903221140C900FC3261
:4018C00090468A4095439A01434613408B402B43C35116E089B20F220A40083A92080632920013481018476803221140C900FF252A008A4097439A012B0013408B403B4395
:4019000043600B4B9A680B4B9A4206D10023F05E0199FFF78DFF00E0034C200002B004BC9046F0BD0C3200100100560000E100E000ED00E00000000810B5034B1B78584356
:4019400000F0BEF810BDC046D400000801BEFEE770B50D00044C18220100200000F031FDA5610020FFF7F2FF00060008054B802212069A649B6C002B01DB002000E00248F8
:401980007047C0460000274003004600054B8022120198585B68FF221A4202D08023DB021843704700002640FEE7C04610B50A4B0268DA6142681A6282685A62C2689A621F
:4019C0000269DA6242691A6382695A63C2699A63FFF7EAFF10BDC04600060008F0B5474680B4002801D0192300E064238B429B415B42304D2C682268A826A45BA418226892
:401A00000327BA433B401A4322602C682268A45BA2181668284CA046264016602C682668AA229446A25A96193268BA43134333602A6813686546525BD3181A6844461440F7
:401A40001C60002805D010291BD921291BD8012024E0184B1B6855229A5C914215D956229A5C914213D957229A5C914211D958229A5C91420FD959229B5C99420DD8042070
:401A80000CE000200AE0022008E0002006E0012004E0022002E0032000E00520054A1268526813680F218B430343136004BC9046F0BDC04648080008FFFCFFFF00000000A0
:401AC0000230800803D001300238FCD1C046C0467047EFF3108072B6704780F31088704710B5B0235B059B899BB2002B04D0B0235B059B899BB201E080235B00802252006C
:401B0000934215D1184C23681968683A9B58C9180B680F208343963A13430B6021680C689C23CB58E318196881430A431A6019E00D4C2368196898229B58C918B020400524
:401B40000A4BC2580A4B13400A681343C022920013430B60226811689C23D358CB18054A82581A6010BDC0464808000848180000FFFCFFFF4418000030B5B0235B059B89C2
:401B80009BB2002B04D0B0235B059B899BB201E080235B0080225200934215D1184C23681968683A9B58C9180B680F208343953A13430B6021680C689C23CB58E31819686E
:401BC00081430A431A6019E00D4D2B68196898229B58C918B0246405C12040012258094B13400A681343C022920013430B602A6811689C23D358CB1822581A6030BDC04629
:401C000048080008FFFCFFFFB0235B059B899BB2002B04D0B0235B059B899BB201E080235B008022520093420DD1104B1B681A6898215B58D21811680D4B0B40C021C90109
:401C40000B43136011E0094B1B68196898229B58C918084BB0225205D258074B13400A681343C022920013430B60704748080008FF8FFFFF18180000FFFCFFFF30B5B02308
:401C80005B059B899BB2002B04D0B0235B059B899BB201E080235B008022520093420DD1134B1B681A6898215B58D2181168114B0B408021C9010B43136018E00C4D2B6841
:401CC000196898229B58C918B02464050A4822580A4B13400A681343C022920013430B602A6811689C23D358CB1822581A6030BD48080008FF8FFFFF4C180000FFFCFFFF2D
:401D000010B5B0235B059B899BB2002B04D0B0235B059B899BB201E080235B0080225200934217D10020FFF7D5FBB0235B055B78002B04D0B0235B055B78DBB200E0212365
:401D4000222B03D8002803D1013004E0012002E0002000E0012010BD30B585B004000D00022807D9042805D0032803D02A492B48FFF7EEFD6B1EDBB2012B07D9042D05D016
:401D8000082D03D026492548FFF7E2FDA400254BE458042D13D0012D1CD112E0A3682B420BD1E3681A6802925B6801930393290002A8236898471B4B5C61646902E0002028
:401DC00000E00020002C24D0174B9842E6D1012DE4D11EE0022D01D104E01C006369002BFBD104E00F4B5C69002C00D0246900200DE0A3682B4209D1E3681A6802925B681C
:401E000001930393290002A8236898472469002CEFD105B030BDC046B209000050320010B309000010080008FF004200F8B50700012803D93D493E48FFF78AFDB0235B053B
:401E40005B78002B04D0B0235B055B78DBB200E021239DB2B0235B059B899BB2002B04D0B0235B059E89B6B201E0802676000020FFF730FB002814D180235B009E4212D119
:401E8000222D12D82B4B1B685C682B4821582B4B19403B068022520413400B432350002404E0274C02E0264C00E0254C80235B009E4201D1222D03D880235B009E4232D04A
:401EC0001C4B1A683123D35C002B04D1C421FF311C48FFF73DFD174B1B681D6A80235B009E4203D1002F05D0174A06E0002F03D0164A02E0164A00E0164A01212800FEF741
:401F0000E5FF00280FD10B4B1A68B423D3585B191B68002BF7DBEB681B0E1B06A0221206934200D100242000F8BDC0464C0A0000503200104808000818F00000FFFFFFFE88
:401F400004004200C42F0010010100300300000C010000300100000CF8B50500012804D9822109012948FFF7F3FCFFF7C9FE002849D0FFF7AEFD0700002D11D10021244B99
:401F8000244AD150E823DB00B0225205D65CF6B20120FFF74BFF041E19D1FFF7A1FD16E0B02252051C4BD0581A4B194958501B49565CF6B21A481A581F218A4314390A4352
:401FC0001A500320FFF7B8FCFFF758FE0024002C15D11049124A8B581F20834306401E438E50002D02D1FFF70FFE08E00720FFF7A3FCFFF7C1FD0020FFF718FF0400380042
:40200000FFF76BFD00E0074C2000F8BD50320010307F00000000264010180000410700001CFF00000300420010B5041E03D115491548FFF78DFC154B1A68D168F222D201CC
:402040008A5822601B68F022D201D9688A5862600F4AD9688A58A2600E4AD9688A58E2600D4AD9688A5822610C4AD9688A5862610B4AD9688A58A261DA680A4BD358E361BA
:4020800010BDC046A10A0000503200104808000804780000087800000C78000010780000147800001878000010B5041E03D114491448FFF74DFC144B1B68F022D201D968D9
:4020C00060688850114AD968A0688850104AD968E06888500F4AD968206988500E4AD968606988500D4AD968A06988500C4AD968E0698850DA682168F223DB01D15010BDF9
:40210000C90A0000503200104808000804780000087800000C78000010780000147800001878000070B50500012804D9A62189003548FFF70DFC354B5B68002B05D001215D
:402140000120FFF709FE040000E00024002C53D1FFF7BFFC06002D4B5B68002B03D004210120FFF7F9FD2A4B1B6843229A5C002A08D09A68E023D358DB0603D523481830D6
:40218000FFF752FFB0235B059B899BB2002B04D0B0235B059B899BB201E080235B0080225200934203D1280000F02AF909E0194A116904230B431361012D01D030BF00E05D
:4021C00020BF134B1B6843229A5C002A08D09A68E023D358DB0603D50C481830FFF764FF3000FFF77AFC094B5B68002B09D008210120FFF7B1FD04E002210120FFF7ACFD78
:40220000054C200070BDC04650320010100800084808000800ED00E0FF004200042805D10B4A116804230B4313600FE0094B1A681168A023D358CB180006C022920410404D
:402240001860034A136804218B4313607047C04610E000E0480800080749C02252008B589B009B088020C00503438B508B588020000603438B50704700002640014B18601D
:402280007047C04648080008002243088B4274D303098B425FD3030A8B4244D3030B8B4228D3030C8B420DD3FF22090212BA030C8B4202D31212090265D0030B8B4219D326
:4022C00000E0090AC30B8B4201D3CB03C01A5241830B8B4201D38B03C01A5241430B8B4201D34B03C01A5241030B8B4201D30B03C01A5241C30A8B4201D3CB02C01A52419B
:40230000830A8B4201D38B02C01A5241430A8B4201D34B02C01A5241030A8B4201D30B02C01A5241CDD2C3098B4201D3CB01C01A524183098B4201D38B01C01A52414309EE
:402340008B4201D34B01C01A524103098B4201D30B01C01A5241C3088B4201D3CB00C01A524183088B4201D38B00C01A524143088B4201D34B00C01A5241411A00D20146FD
:40238000524110467047FFE701B5002000F006F802BDC0460029F7D076E770477047C046002310B59A4203D0CC5CC4540133F9E710BD03008218934202D019700133FAE7B3
:4023C0007047030030B5002A0DD00C7801335D1E013A2C700131002CF5D19A189A4202D01C700133FAE730BDF8B5C046F8BC08BC9E467047F8B5C046F8BC08BC9E4670478F
:4024000001B40248844601BC604700BF350300080300000001000000010000000000000005036000040000000100000000000000010000000604600008000000C8070008B4
:40244000B501001073797374656D5F70736F63365F636D30706C75732E630000F4010000140004010A0009050800000063010000002034407400802034407400002234403B
:402480007400802234407400002434407400802434407400002634407400802634407400002834407400802834407400002A34407400802A34407400002134409426001047
:4024C0009000000000233440242700109000000000253440B42700109000000000273440442800109000000000293440D428001090000000002B344064290010900000000A
:4025000000603440F42900107C00000080603440702A00107C00000000613440EC2A00107C00000080613440682B00107C00000000623440E42B00107C00000080623440F2
:40254000602C00107C00000000633440DC2C00107C00000080633440582D00107C00000000643440D42D00107C00000080643440502E00107C00000000653440CC2E0010C6
:402580007C00000080653440482F00107C000000281500000170344018000000000000000000000000660A000000000000000000000000000000000300000000070000008F
:4025C0000000000000000000CC0600BA0000000000000000000000001313080000001D1DFE00000000000000000000000000000000000000000000000000000000040400E1
:4026000000000000070000000000000000000000CC06060000000000000000000000000013130000000000000300000000000000000000006800000000000000000000002A
:40264000000000001212000000000000070000000000000000000000866600000000000000000000000000001414140000000000800000000000000000000000000000A0E7
:402680000000000000000000000000000000000000000000000000000000000000000000FFFFFFFFFFFFFFFFFFFFFFFFFFFFFFFFFFFFFFFFFF000000FFFFFFFFFFFFFFFF37
:4026C000FFFFFFFFFFFFFFFFFFFFFFFFFF000000000000000000000000000000000000000000000000000000FFFFFFFFFFFFFFFFFFFFFFFF11111111111111111111111127
:40270000111111111111111111111111111111111111111111111111111111111111111111111111000000000000000000000000FFFFFFFFFFFFFFFFFFFFFFFFFFFFFFFF45
:40274000FFFFFFFFFF000000FFFFFFFFFFFFFFFFFFFFFFFFFFFFFFFFFFFFFFFFFF000000000000000000000000000000000000000000000000000000FFFFFFFFFFFFFFFF7B
:40278000FFFFFFFF111111111111111111111111111111111111111111111111111111111111111111111111111111111111111111111111000000000000000000000000ED
:4027C000FFFFFFFFFFFFFFFFFFFFFFFFFFFFFFFFFFFFFFFFFF000000FFFFFFFFFFFFFFFFFFFFFFFFFFFFFFFFFFFFFFFFFF0000000000000000000000000000000000000003
:402800000000000000000000FFFFFFFFFFFFFFFFFFFFFFFF1111111111111111111111111111111111111111111111111111111111111111111111111111111111111111B8
:4028400011111111000000000000000000000000FFFFFFFFFFFFFFFFFFFFFFFFFFFFFFFFFFFFFFFFFF000000FFFFFFFFFFFFFFFFFFFFFFFFFFFFFFFFFFFFFFFFFF0000003E
:40288000000000000000000000000000000000000000000000000000FFFFFFFFFFFFFFFFFFFFFFFF1111111111111111111111111111111111111111111111111111111148
:4028C0001111111111111111111111111111111111111111000000000000000000000000FFFFFFFFFFFFFFFFFFFFFFFFFFFFFFFFFFFFFFFFFF000000FFFFFFFFFFFFFFFFA1
:40290000FFFFFFFFFFFFFFFFFFFFFFFFFF000000000000000000000000000000000000000000000000000000FFFFFFFFFFFFFFFFFFFFFFFF111111111111111111111111E4
:40294000111111111111111111111111111111111111111111111111111111111111111111111111000000000000000000000000FFFFFFFFFFFFFFFFFFFFFFFFFFFFFFFF03
:40298000FFFFFFFFFF000000FFFFFFFFFFFFFFFFFFFFFFFFFFFFFFFFFFFFFFFFFF000000000000000000000000000000000000000000000000000000FFFFFFFFFFFFFFFF39
:4029C000FFFFFFFF11111111111111111111111111111111111111111111111111111111111111111111111111111111111111111111111100000000000000001F1F1F1F2F
:402A00001F1F1F1F1F1F1F1F1F1F1F1F071F1F1F1F1F1F1F1F1F1F1F1F1F1F1F000000000000000000000000000000000000000000000000FFFFFFFFFFFFFFFFFFFFFFFF56
:402A400011111111111111111111111111111111111111111111111111111111111111111111111111111111111111111111114100000000000000001F1F1F1F1F1F1F1FFE
:402A80001F1F1F1F1F1F1F1F1F1F1F1F1F1F1F1F1F1F1F1F1F1F1F1F000000000000000000000000000000000000000000000000FFFFFFFFFFFFFFFFFFFFFFFF11111111F6
:402AC000111111111111111111111111111111111111111111111111111111111111111111111111111111111111111100000000000000001F1F1F1F1F1F1F1F1F1F1F1F76
:402B00001F1F1F1F1F1F1F1F1F1F1F1F1F1F1F1F1F1F1F1F000000000000000000000000000000000000000000000000FFFFFFFFFFFFFFFFFFFFFFFF1111111111111111AD
:402B40001111111111111111111111111111111111111111111111111111111111111111111111111111111100000000000000001F1F1F1F1F1F1F1F1F1F1F1F1F1F1F1FBD
:402B80001F1F1F1F1F1F1F1F1F1F1F1F1F1F1F1F000000000000000000000000000000000000000000000000FFFFFFFFFFFFFFFFFFFFFFFF11111111111111111111111165
:402BC00011111111111111111111111111111111111111111111111111111111111111111111111100000000000000001F1F1F1F1F1F1F1F1F1F1F1F1F1F1F1F1F1F1F1F05
:402C00001F1F1F1F1F1F1F1F1F1F1F1F000000000000000000000000000000000000000000000000FFFFFFFFFFFFFFFFFFFFFFFF111111111111111111111111111111111C
:402C4000111111111111111111111111111111111111111111111111111111111111111100000000000000001F1F1F1F1F1F1F1F1F1F1F1F1F1F1F1F1F1F1F1F1F1F1F1F4C
:402C80001F1F1F1F1F1F1F1F000000000000000000000000000000000000000000000000FFFFFFFFFFFFFFFFFFFFFFFF1111111111111111111111111111111111111111D4
:402CC0001111111111111111111111111111111111111111111111111111111100000000000000001F1F1F1F1F1F1F1F1F1F1F1F1F1F1F1F1F1F1F1F1F1F1F1F1F1F1F1F94
:402D00001F1F1F1F000000000000000000000000000000000000000000000000FFFFFFFFFFFFFFFFFFFFFFFF1111111111111111111111111111111111111111111111118B
:402D400011111111111111111111111111111111111111111111111100000000000000001F1F1F1F1F1F1F1F1F1F1F1F1F1F1F1F1F1F1F1F1F1F1F1F1F1F1F1F1F1F1F1FDB
:402D8000000000000000000000000000000000000000000000000000FFFFFFFFFFFFFFFFFFFFFFFF1111111111111111111111111111111111111111111111111111111143
:402DC000111111111111111111111111111111111111111100000000000000001F1F1F1F1F1F1F1F1F1F1F1F1F1F1F1F1F1F1F1F1F1F1F1F1F1F1F1F1F1F1F1F000000009F
:402E00000000000000000000000000000000000000000000FFFFFFFFFFFFFFFFFFFFFFFF11111111111111111111111111111111111111111111111111111111111111117E
:402E40001111111111111111111111111111111100000000000000001F1F1F1F1F1F1F1F1F1F1F1F1F1F1F1F1F1F1F1F1F1F1F1F1F1F1F1F1F1F1F1F000000000000000062
:402E800000000000000000000000000000000000FFFFFFFFFFFFFFFFFFFFFFFF111111111111111111111111111111111111111111111111111111111111111111111111BA
:402EC00011111111111111111111111100000000000000001F1F1F1F1F1F1F1F1F1F1F1F1F1F1F1F1F1F1F1F1F1F1F1F1F1F1F1F1F1F1F1F00000000000000000000000026
:402F0000000000000000000000000000FFFFFFFFFFFFFFFFFFFFFFFF11111111111111111111111111111111111111111111111111111111111111111111111111111111F5
:402F4000111111111111111100000000000000001F1F1F1F1F1F1F1F1F1F1F1F1F1F1F1F1F1F1F1F1F1F1F1F1F1F1F1F1F1F1F1F00000000000000000000000000000000E9
:402F80000000000000000000FFFFFFFFFFFFFFFFFFFFFFFF111111111111111111111111111111111111111111111111111111111111111111111111111111111111111131
:402FC0001111111147656E6572617465645F536F757263655C50536F43365C70646C5C647269766572732F7065726970686572616C2F6970632F63795F6970635F64727639
:403000002E68000047656E6572617465645F536F757263655C50536F43365C70646C5C647269766572735C7065726970686572616C5C6770696F5C63795F6770696F2E6353
:403040000000000047656E6572617465645F536F757263655C50536F43365C70646C5C647269766572735C7065726970686572616C5C6770696F5C63795F6770696F2E68A4
:403080000000000047656E6572617465645F536F757263655C50536F43365C70646C5C647269766572735C7065726970686572616C5C6970635C63795F6970635F64727635
:4030C0002E68000047656E6572617465645F536F757263655C50536F43365C70646C5C647269766572735C7065726970686572616C5C6970635C63795F6970635F6472765F
:403100002E63000047656E6572617465645F536F757263655C50536F43365C70646C5C647269766572735C7065726970686572616C5C6970635C63795F6970635F70697026
:40314000652E630047656E6572617465645F536F757263655C50536F43365C70646C5C647269766572735C7065726970686572616C5C70726F745C63795F70726F742E6386
:403180000000000047656E6572617465645F536F757263655C50536F43365C70646C5C647269766572735C7065726970686572616C5C737973636C6B5C63795F73797363FC
:4031C0006C6B2E630000000047656E6572617465645F536F757263655C50536F43365C70646C5C647269766572735C7065726970686572616C5C737973636C6B5C63795F16
:40320000737973636C6B2E680000000047656E6572617465645F536F757263655C50536F43365C70646C5C647269766572735C7065726970686572616C5C737973696E7494
:403240005C63795F737973696E742E630000000047656E6572617465645F536F757263655C50536F43365C70646C5C647269766572735C7065726970686572616C5C73796F
:4032800073706D5C63795F737973706D2E6300000000204000002440000000400000000000002340000030400000314000009F400000224000001040020202020202020271
:4032C0000210101D800017007500FF030602063604102000000000007FC0000000040000000000000019324B647D00804000080B100000000000FF012002001F00800004A7
:40330000FF081018001000140018001C4044484C50000000081000000800000004000000041000000012000004210000002100000016000040114002C41300138013A01335
:40334000200000001C0000000000214000002540000001400000344000002440000031400000324000001F4100002340000011400101010101010101011010108000190069
:403380005500F0000501053B04101C01010000000FC000000004000001010101011D3A57789600082000101208000000001F00000010000F002000023F06080E000800099E
:4033C000000A000B24282C3034000000100000009000000088000000080000008000000004F0000000F00000400200002005A000D00100018001A00120000000100000001D
:40340000000000000000001000000008C000000024340010C0000008400500003C060008100200000048E80100127A0000093D0000093D0000093D0004000000A00F0000A1
:403440000000D007E9000010C10000100000000010B50004400B27D0144B1A68146AB023D15ACA00531AE3181B68002BF4DA3E220F4B1A600F4A104B1A60104B0621A322EC
:40348000D20099500E4A98509B58084B1A68106AB023D15ACA00531AC31800225A60084B064AD358002BFADA10BDC04648080008040126401E1F000008012640000026406E
:4034C0001C05000010B54378FF2B20D100F00AFA04000F4B1A683123D35C042B04D8C421FF310C4800F016FA094B1A68116AB023D35A9B00CB18DB685A68116801230B4386
:4035000013601368DB07FCD4200000F0FBF910BD48080008C42F0010F0B585B001900291544B1A683123D35C002B04D1C421FF31514800F0EFF94F4B1B681E6AB4229A582A
:40354000971950229B5C002B77D000F0C3F9050003283CD1474B1A683123D35C062B04D8C421FF31444800F0D5F9424B1968B023CB5A5A00D21853000A6A94466344B4226C
:403580008A58D3181B68002B23DB002000F0D2F93A4B98421FD03A4B1A6900230021012000F0A8F9002803D0364C17E0013400E00024002000F0BEF9304B984202D0324B53
:4035C0009C42F3D9304B9C4207D92E4C06E0002404E02C4C02E02B4C00E00024002C46D100F080F90390294B294AD358002B13DA234A0121300000F0ADF900280ED102984C
:40360000FFF726FF019B002B0AD03B68002BFCDB00F088F9040004E01A4C02E0194C00E01C4C032D05D10121002000F08BF90028F9D1039800F066F919E000F053F9050009
:403640000F4A0121300000F085F9002809D1019B002B08D03B68002BFCDB00F063F9040002E0084C00E00B4C280000F04BF9200005B0F0BD48080008C42F0010010188006B
:40368000E807000805005200EF4902001C0500000000264001005000F0B54F464646C0B4824B1A685468B0235B055B78002B04D0B0235B055B78DBB200E02123212B67D125
:4036C000B023D15ACB005B1A116A8C46634419680029F5DADD6802212943D960B023D15ACB005B1A116A8C466344D968C9073ED5D9680904090C8C4684271168D559A84647
:4037000041440968090A0904FF26360431400D0088261168894691598846C14449460968090A0906294365462943D9601168D359C9180A685E4B98461A4090252D012A43DC
:403740000A605A4B99461A6813689C46925962441368414619400B002B4313604B461A681568D15969180B689359EB181B684F4B1A68B021555AEB005B1B156AAC4663446F
:4037800000255D60156A515ACA00531AEB185B68484A116904230B431361012801D030BF00E020BF414B1A68B023D15ACB005B1A116A8C46634419680029F3DAB02149058D
:4037C0004978002904D0B02149054978C9B200E02121212932D1D968C90722D510688421525880180468324A1440DB681B0C1B02FF2109020B40234303602C4B1968882335
:40380000C8580B689C46604403681A400D6AB023CC5AE1000B1BEB18DB681B0E1B021A430260224B1A68106AB023D15ACA00531AC318DA6802218A43DA6028E086235B00F7
:40384000E358002B23D11C4807681C4BA321C9005E581B4A904615681A4A0260062058503E21424611600631174A9950164B134AD358002BFADA154A86235B00E2500E4B76
:403880001F60A323DB000D4AD6500D4B1D60074B1A68106AB023D15ACA00531AC31800225A600CBC90469946F0BDC04648080008FF00FFFF00ED00E0080126400000264035
:4038C000040126401E1F00001C050000AAAAAAAA0000000001B40248844601BC604700BF3904001001B40248844601BC604700BFD31A001001B40248844601BC604700BF49
:40390000C912001001B40248844601BC604700BFDB1A001001B40248844601BC604700BF5119001001B40248844601BC604700BF010D001001B40248844601BC604700BF4F
:40394000E510001001B40248844601BC604700BF5910001001B40248844601BC604700BFCD0E00100000000000000000000000000000000000000000000000000000000006
:403980000000000000000000000000000000000000000000000000000000000000000000000000000000000000000000000000000000000000000000000000000000000007
:4039C00000000000000000000000000000000000000000000000000000000000000000000000000000000000000000000000000000000000000000000000000000000000C7
:020000041008E2
:4000000000780408EB0208100D0000005103081051030810510308105103081000000000000000000000000000000000515E08104D03081000000000F15E0810555F081018
:400040004D0308104D0308104D0308104D0308104D0308104D0308104D0308104D0308104D0308104D0308104D0308104D0308104D0308104D0308104D0308104D03081000
:400080004D0308104D0308104D0308104D0308104D0308104D0308104D0308104D0308104D0308104D0308104D0308104D0308104D0308104D0308104D0308104D030810C0
:4000C0004D0308104D0308104D0308104D0308104D0308104D0308104D0308104D0308104D0308104D0308104D0308104D0308104D0308104D0308104D0308104D03081080
:400100004D0308104D0308104D0308104D0308104D0308104D0308104D0308104D0308104D0308104D0308104D0308104D0308104D0308104D0308104D0308104D0308103F
:400140004D0308104D0308104D0308104D0308104D0308104D0308104D0308104D0308104D0308104D0308104D0308104D0308104D0308104D0308104D0308104D030810FF
:400180004D0308104D0308104D0308104D0308104D0308104D0308104D0308104D0308104D0308104D0308104D0308104D0308104D0308104D0308104D0308104D030810BF
:4001C0004D0308104D0308104D0308104D0308104D0308104D0308104D0308104D0308104D0308104D0308104D0308104D0308104D0308104D0308104D0308104D0308107F
:400200004D0308104D0308104D0308104D0308104D0308104D0308104D0308104D0308104D0308104D0308104D0308104D0308104D0308104D0308104D0308104D0308103E
:400240004D0308104D0308104D0308104D0308104D0308104D0308104D0308104D0308104D0308104D0308104D0308104D0308104D0308104D0308104D0308104D030810FE
:400280004D0308104D0308104D03081010B5054C237833B9044B13B10448AFF300800123237010BDB449020800000000D85C0910084B10B51BB108490848AFF30080084819
:4002C000036803B910BD074B002BFBD0BDE81040184700BF00000000B8490208D85C091084430208000000007047FFF7FDFF72B6104C114DAC4209DA21686268A368043B8D
:40030000A2BFC858D050FAE70C34F3E70B490C4A00209142BCBF41F8040BFAE709480A490860BFF34F8F00F0E7F900F0C1F900F01DF8FEE7DC5C0910F45C0910B44902081F
:40034000342B04080040020808ED00E0FEE7FEE700B504207146084202D0EFF3098001E0EFF30880043003F091FFFEE730B583B062B605F027FF06F0BBFB00F0FDFA032228
:400380000021012004F06AFA504B186009F06EFD142002F00FFD012002F014FD012009F05DFC002009F09CFC6FF07F4009F08EFC09F02AFD05F0DCFE454B19688C6891F894
:4003C0007300032303FA00F591F8702091F87200824045EA020091F871200125954003FA02F205EA0203034343F00043C4F800348B68D3F80034374C3749204603F0D8FEA1
:40040000B4F90030002B08DB5A0903F01F00012181406032314840F82210002B08DB590903F01F03012202FA03F32C4A42F8213000F03EF900F074F800F066FA002000F086
:400440006FF900F02FFA0121084600F0D9FA002401940223009323464FF4FA722049214804F0E2FE01940125009523464FF4FA721D491E4804F0D8FE0194009423464FF4C6
:40048000FA721B491B4804F0CFFE0194009423464FF4FA721849194804F0C6FE0194009523464FF4C8721649164804F0BDFE0194009423464FF4FA721349144804F0B4FE72
:4004C00004F0E4FE204603B030BD00BFB4BC030874280408701F09102D0A081000E100E01C190910850F081028190910A10D081034190910750A08103C190910C10A08101E
:400500004419091015090810501909104923081008B5012003F042FA08BD00BF704700BF5C4AD2F8803303F00F0303F1D00152F8212002F00702032A04D0042A05D092B940
:40054000554914E0554A116811E003F1C002514951F8222002F01F02112A06D0132A04D04FF4FA4103E04E4901E04FF400418BBB484BD3F8902502F00100D3F88825C2F3FA
:400580000172D3F8883513F0405F07D0414BD3F88835C3F30173012B02D102E0012300E0002303B108B9032A46D13A48D0F88025C2F31103D0F88425C2F30C02D0F880058F
:4005C000C0F300600130B1FBF2F202FB03F2B2FBF0F131E0012B2FD12E4BD3F8402602F00100D3F80026C2F30172D3F8003613F0405F07D0274BD3F80036C3F30173012B71
:4006000002D102E0012300E0002303B108B9032A12D12048D0F8002602F07F02D0F80036C3F30423D0F80006C0F3044002FB01F2B2FBF3F2B2FBF0F1164BD3F88033C3F34B
:40064000011321FA03F215494A601648D0F89030C3F3072301330069000E0130B2FBF0F08860B2FBF3F3CB600B6103F5742202F23F220D48A0FB0202C2F387420A7503F244
:40068000E7330A4AA2FB03239B098B61DB03CB61704700BF0000264000127A008C42020800366E010000214083DE1B43D34D621008B50D4803F08AFFFFF730FFFFF730FF00
:4006C00000221146042002F031FF084802F0C4FF074B1B6893F8513013B1064803F02CF802F0F2FD08BD00BF78230910D0490208742804085C19091008B503F022FE074A99
:40070000D2F8883043F47003C2F88830BFF34F8FBFF36F8F03F019FE08BD00BF00ED00E070B584B00646144C144D0095642300225721204603F030FA2B466422314620460D
:4007400003F098FB0095642301225721204603F09BFA002104AA02F8011D00956423204603F02EFB2A466421204603F0F7FA9DF80F0004B070BD00BF00006440C8280408A6
:40078000F0B583B007460E460D4C0E4D0095642300225721204603F0FFF92B4664223946204603F067FB2B4664223146204603F061FB2A466421204603F0D0FA03B0F0BD39
:4007C00000006440C82804082DE9F04182B080460D4616461A4C1B4F0097642300225721204603F0D9F93B4664224146204603F041FB0097642301225721204603F044FA45
:40080000002409E00F4B009364232A1900210C4803F0D6FA0134E4B2731E9C42F2DB084E084F009764232A190121304603F0C8FA3A466421304603F091FA02B0BDE8F08199
:4008400000006440C828040830B583B004460D46002303600B60062269460720FFF7B4FF9DF80020236803EB02439DF8012003EB02239DF80220134423609DF803202B6873
:4008800003EB02439DF8042003EB02239DF805201344C3F311032B602368C3F31103236003B030BD08B5C0210220FFF769FF00210320FFF765FF00210420FFF761FF0021E3
:4008C0000520FFF75DFF00210620FFF759FF2F210820FFF755FF03210920FFF751FF27210A20FFF74DFF0A210C20FFF749FF0A210D20FFF745FF7D211020FFF741FF012196
:400900002120FFF73DFF08BD08B540210920FFF737FF08BD70B5002420E00020FFF700FF10280DD1A0000F4E0F4D31182844FFF78BFF56F8242055F824100C480FF084FE5D
:40094000B4F5FA7F00D024B90122094B1A70094B1C80052004F0DEFD0134A4B2B4F57A7FDBD3D8E7BCBC03084C9D03089019091004AD0308ACBC03080122124B1A600023A4
:40098000114A1360114A1370114A1370114A1370114A1370114A13706221114A11809621104A11801049114A11605021104A1160C821104A116046210F4A11600F4A1360F0
:4009C000704700BFECAC0308B4BC0308F0AC0308F1AC0308F2AC0308F3AC0308FCAC0308DAB40308D8B403086666663FF4AC0308F8AC0308B0BC03082CD40308F42D030865
:400A0000F8B506460F4602F04BFB0546064C3B4632460146204602F0E1F941F2B062294620460FF0E3FDF8BD504B020808B50D4B1868002104F08AF80B4B5A6910225A619C
:400A40005B690A4BB3F90030002B09DB5A0903F01F03012101FA03F36032054941F8223008BD00BFB4BC030800003240701F091000E100E008B50D4B18684FF4FA7104F06B
:400A80006FF978B100230A4A13700A4A13700A4A13700A4A13700A2004F03CFD01210846FFF7AEFF322004F035FDE4E7B4BC0308F2AC0308F1AC0308F3AC0308FCAC030850
:400AC00008B5394B1B88394A1268934202DD0121374A1170374A1268934202DA0122364B1A70364B1A88364B1B689A4202DA0122344B1A70344B18680EF06EFF26A3D3E969
:400B000000230FF02FFA48B92F4B18680EF064FF23A3D3E900230FF043FA10B101222B4B1A702A4B1B7813F0FF0F0ED1204B1B7813F0FF0F09D1204B1B7813F0FF0F04D184
:400B4000204B1B7813F0FF0F09D0214C08256560322004F0DFFCA560322004F0DBFC1B4B1B7813F0FF0F11D1114B1B7813F0FF0F0CD1114B1B7813F0FF0F07D1114B1B785B
:400B800013F0FF0F02D10822114B9A60322004F0C1FC96E7AFF30080666666666666E63F9A9999999999F13FD8B40308B0BC0308F2AC03082CD40308F1AC0308DAB40308DC
:400BC000F8AC0308F3AC0308F4AC0308FCAC030800003240F0B597B002460F46002413941494ADF8544010941194ADF84840264B08AD93E8030085E803000A940B940C9430
:400C00000D940E94ADF83C40203393E803000090ADF80410CDF80640CDF80A40CDF80E40CDF81240CDF81640CDF81A40174E314613A80FF021FD3A46314610A80FF01CFD3D
:400C4000204609F04DF8124809F054F813A928460FF036FD04460FF042FD0E4B1B8823529B220521284609F0CDFA10A968460FF027FD9B22C821684609F0C4FA01210846C6
:400C8000FFF7BEFE17B0F0BDC4190910041D0910B43C0910081D0910F0B50026B64626E0B500144C2C44D4ED006A07EE902AB8EEE76A76EEC66A9C1A07EE904AF8EEE77A14
:400CC00086EEA77A4FEA8E040B4F274487ED007A0A4F3D4495ED007A37EE467AC7EE276A074D2C44C4ED006A0EF1010E0E448642D6DBF0BD5CCC030830D40308F82D030809
:400D000018D8030830B5FFB005460C464FF4FA72002101A80FF090FC002217E005EB820393ED007AF7EE007A77EEC77A9FED1A7A67EE877AB3EE0E7A77EE877AFDEEE77AA5
:400D400017EE903A01A921F812300132A242E5DB19230022FA2101A809F066FA012008F07DFF002008F0BCFFAF2340F207120021084608F07BFA18234FF4847219460020F9
:400D800009F0F6FC94234FF484721946002009F0EFFC7FB030BD00BF000096420000000070B505F035FE002840F0D68005F024FA002005F05FFC0446012005F047FC0646D5
:400DC000022005F043FC0546012008F047FF002008F086FF6FF07F4008F078FF624808F089FFA6B1614B1B68062B10DC5F4B1B68012B0CD05D4A1368013B136009F004F801
:400E0000322004F087FB01210846FFF7F9FD0A2004F080FB7EB1554B1B68012B0BD10622524B1A6008F0F0FF322004F073FB01210846FFF7E5FD0A2004F06CFBA5B14B4B08
:400E40001B68002B10DD494B1B68072B0CD0474A13680133136008F0D7FF322004F05AFB01210846FFF7CCFD0A2004F053FB7DB13E4B1B68072B0BD101253C4B1D6008F091
:400E8000C3FF322004F046FB29462846FFF7B8FD0A2004F03FFB4FF6FF739C4258D057D0324B1B68032B0FD120460EF083FD2CA3D3E900230EF0E4FD0FF07CF82C4B186044
:400EC00001210846FFF79CFD284B1B68042B12D1A4F13203274A82FB0312DB17C3EBA20325490A6813440B600A2004F013FB01210846FFF785FD1D4B1B68052B12D1A4F190
:400F000032031C4A82FB0312DB17C3EBA2031B490A6813440B600A2004F0FCFA01210846FFF76EFD114B1B68062B11D1323C114B83FB0423E417C4EBA304114A13681C44DA
:400F400014600A2004F0E6FA01210846FFF758FD05F0BCFC05F0CCFD322004F0DBFA20E76666666666660440D4260910ECAC0308F42D030867666666F8AC03082CD40308DA
:400F8000B0BC030870B5A6B09D4B1B68012B40F05D81002008F0A4FE9A4808F0ABFE08F033FF994B1B7813F0FF0F26D1974B1B7813F0FF0F21D1964B1B7813F0FF0F1CD0CB
:400FC000944B1B7813F0FF0F17D108F01DFF0DAC914D0FCD0FC495E8070003C422700023CDF84D30CDF85130CDF855301693062232210DA809F006F9EAE0834B1B7813F05B
:40100000FF0F23D0814B1B7813F0FF0F1ED1804B1B7813F0FF0F19D17E4B1B7813F0FF0F14D108F0F1FE0DAC7C4D0FCD0FC495E8030084E8030000231393149315931693DD
:40104000062232210DA809F0DDF8C1E06E4B1B7813F0FF0F26D16D4B1B7813F0FF0F21D06B4B1B7813F0FF0F1CD16A4B1B7813F0FF0F17D108F0C8FE0DAC694D0FCD0FC4CC
:4010800095E8070003C422700023CDF84D30CDF85130CDF855301693062232210DA809F0B1F895E0594B1B7813F0FF0F25D0584B1B7813F0FF0F20D0564B1B7813F0FF0FB5
:4010C0001BD108F0A1FE0DAC564D0FCD0FC40FCD0FC42B6824F8023B1B0C23700023CDF85730CDF85B30CDF85F30CDF8623006220F210DA809F086F86AE0444B1B7813F0B0
:40110000FF0F20D0404B1B7813F0FF0F1BD0414B1B7813F0FF0F16D108F076FE0DAC424D0FCD0FC495E80F0084E80F0000231593169317931893ADF86430062214210DA802
:4011400009F060F844E0334B1B7813F0FF0F1ED008F05AFE0DAC354D0FCD0FC495E8030044F8040B24F8021B090C21700023CDF84B30CDF84F30CDF85330CDF857308DF846
:401180005B30062232210DA809F03CF820E008F03BFE0DAC264D0FCD0FC495E8070003C422800023CDF84E30CDF85230CDF85630ADF85A301F4A06928DF81C3006223221DA
:4011C0000DA809F01FF80622EA2106A809F01AF8194B1A4A02214FF4FA70FFF75DFDFA211748FFF78FFD174B1988174B1888FFF7F1FC40F6B83004F08DF900F05BBF00BF11
:40120000ECAC0308B43C0910F1AC0308F3AC0308F2AC0308FCAC0308041A09102C1A0910541A09107C1A0910B01A0910E41A09100C1B0910312F36009C970100047001000F
:4012400030D40308D8B40308DAB403089F4B1B68022B40F06181002008F042FD9C4808F049FD08F0D1FD9B4B1B7813F0FF0F26D1994B1B7813F0FF0F21D1984B1B7813F0D0
:40128000FF0F1CD0964B1B7813F0FF0F17D108F0BBFD0DAC934D0FCD0FC495E8070003C422700023CDF84D30CDF85130CDF855301693062232210DA808F0A4FFEFE0854BEA
:4012C0001B7813F0FF0F23D0834B1B7813F0FF0F1ED1824B1B7813F0FF0F19D1804B1B7813F0FF0F14D108F08FFD0DAC7E4D0FCD0FC495E8030084E8030000231393149331
:4013000015931693062232210DA808F07BFFC6E0704B1B7813F0FF0F26D16F4B1B7813F0FF0F21D06D4B1B7813F0FF0F1CD16C4B1B7813F0FF0F17D108F066FD0DAC6B4D17
:401340000FCD0FC495E8070003C422700023CDF84D30CDF85130CDF855301693062232210DA808F04FFF9AE05B4B1B7813F0FF0F25D05A4B1B7813F0FF0F20D0584B1B78A5
:4013800013F0FF0F1BD108F03FFD0DAC584D0FCD0FC40FCD0FC42B6824F8023B1B0C23700023CDF85730CDF85B30CDF85F30CDF8623006220F210DA808F024FF6FE0464B28
:4013C0001B7813F0FF0F20D0424B1B7813F0FF0F1BD0434B1B7813F0FF0F16D108F014FD0DAC444D0FCD0FC495E80F0084E80F0000231593169317931893ADF864300622F1
:4014000014210DA808F0FEFE49E0354B1B7813F0FF0F1ED008F0F8FC0DAC374D0FCD0FC495E8030044F8040B24F8021B090C21700023CDF84B30CDF84F30CDF85330CDF85D
:4014400057308DF85B30062232210DA808F0DAFE25E008F0D9FC0DAC284D0FCD0FC42B6824F8023B1B0C23700023CDF84730CDF84B30CDF84F30CDF85330CDF857308DF884
:401480005B301F4A06928DF81C300622EA2106A808F0B8FE06223C210DA808F0B3FE194B194A02214FF4FA70FFF7F6FBFA211748FFF728FC164B1988164B1888FFF78AFBCD
:4014C00040F6B83004F026F800F0F4BDECAC0308B43C0910F1AC0308F3AC0308F2AC0308FCAC0308041A09102C1A0910541A09107C1A0910B01A0910E41A0910341B091093
:40150000322F3600E04903002111030018D80308D8B40308DAB40308B24B1B68032B40F08381AF2340F207120021084607F09EFE002008F0D5FBAC4808F0DCFBAB4B1B7853
:4015400013F0FF0F26D1AA4B1B7813F0FF0F21D1A84B1B7813F0FF0F1CD0A74B1B7813F0FF0F17D108F050FC0DACA44D0FCD0FC495E8070003C422700023CDF84D30CDF833
:401580005130CDF855301693062232210DA808F039FED5E0954B1B7813F0FF0F23D0944B1B7813F0FF0F1ED1924B1B7813F0FF0F19D1914B1B7813F0FF0F14D108F024FCD2
:4015C0000DAC8F4D0FCD0FC495E8030084E8030000231393149315931693062232210DA808F010FEACE0814B1B7813F0FF0F26D17F4B1B7813F0FF0F21D07E4B1B7813F010
:40160000FF0F1CD17C4B1B7813F0FF0F17D108F0FBFB0DAC7B4D0FCD0FC495E8070003C422700023CDF84D30CDF85130CDF855301693062232210DA808F0E4FD80E06C4BA3
:401640001B7813F0FF0F25D06A4B1B7813F0FF0F20D0694B1B7813F0FF0F1BD108F0D4FB0DAC694D0FCD0FC40FCD0FC42B6824F8023B1B0C23700023CDF85730CDF85B304B
:40168000CDF85F30CDF8623006220F210DA808F0B9FD55E0564B1B7813F0FF0F20D0534B1B7813F0FF0F1BD0534B1B7813F0FF0F16D108F0A9FB0DAC544D0FCD0FC495E8E2
:4016C0000F0084E80F0000231593169317931893ADF86430062214210DA808F093FD2FE0454B1B7813F0FF0F1ED008F08DFB0DAC474D0FCD0FC495E8030044F8040B24F830
:40170000021B090C21700023CDF84B30CDF84F30CDF85330CDF857308DF85B30062232210DA808F06FFD0BE008F06EFB394B0D9300238DF838300622EA210DA808F062FD48
:40174000AF2340F207120021084607F08FFD324C0DAD04F5CC760FCE0FC596E80F0085E80F000026ADF854608DF8566006AD04F5DE740FCC0FC594E8030045F8040B297062
:40178000CDF82D60252301938DF808604B2214210DA808F037FD5B223C2106A808F032FD7322782101A808F02DFD1C4B1A68642303FB02F31A4A82FB03121A44DB17C3EB8C
:4017C000E21292B2174903A80EF056FF73225A2103A808F017FD4FF4967003F09BFE00F069BC00BFECAC0308B43C0910F1AC0308F3AC0308F2AC0308FCAC0308041A091052
:401800002C1A0910541A09107C1A0910B01A0910E41A0910332F3600C4190910F42D0308818080800C1D0910AD4B1B68042B40F07781AF2340F207120021084607F016FDB4
:40184000002008F04DFAA74808F054FAA64B1B7813F0FF0F26D1A54B1B7813F0FF0F21D1A34B1B7813F0FF0F1CD0A24B1B7813F0FF0F17D108F0C8FA0DAC9F4D0FCD0FC4BD
:4018800095E8070003C422700023CDF84D30CDF85130CDF855301693062232210DA808F0B1FCD5E0904B1B7813F0FF0F23D08F4B1B7813F0FF0F1ED18D4B1B7813F0FF0FC8
:4018C00019D18C4B1B7813F0FF0F14D108F09CFA0DAC8A4D0FCD0FC495E8030084E8030000231393149315931693062232210DA808F088FCACE07C4B1B7813F0FF0F26D187
:401900007A4B1B7813F0FF0F21D0794B1B7813F0FF0F1CD1774B1B7813F0FF0F17D108F073FA0DAC764D0FCD0FC495E8070003C422700023CDF84D30CDF85130CDF8553048
:401940001693062232210DA808F05CFC80E0674B1B7813F0FF0F25D0654B1B7813F0FF0F20D0644B1B7813F0FF0F1BD108F04CFA0DAC644D0FCD0FC40FCD0FC42B6824F85B
:40198000023B1B0C23700023CDF85730CDF85B30CDF85F30CDF8623006220F210DA808F031FC55E0514B1B7813F0FF0F20D04E4B1B7813F0FF0F1BD04E4B1B7813F0FF0FCA
:4019C00016D108F021FA0DAC4F4D0FCD0FC495E80F0084E80F0000231593169317931893ADF86430062214210DA808F00BFC2FE0404B1B7813F0FF0F1ED008F005FA0DACF3
:401A0000424D0FCD0FC495E8030044F8040B24F8021B090C21700023CDF84B30CDF84F30CDF85330CDF857308DF85B30062232210DA808F0E7FB0BE008F0E6F9344B0D9388
:401A400000238DF838300622EA210DA808F0DAFBAF2340F207120021084607F007FC2D4E0DAC06F5EC750FCD0FC495E80F0007C424F8023B1B0C2370452200210DF1530099
:401A80000EF0DAFD06AC06F50F7393E8070084E80700002309930A93252201928DF808304B2214210DA808F0ADFB65225021204608F0A8FB6522B42101A808F0A3FB164B4E
:401AC0001A68164903A80EF0D7FD6422962103A808F098FB4FF4967003F01CFDEAE200BFECAC0308B43C0910F1AC0308F3AC0308F2AC0308FCAC0308041A09102C1A091045
:401B0000541A09107C1A0910B01A0910E41A0910342F3600C4190910F8AC03080C1D0910AA4B1B68052B40F07181AF2340F207120021084607F09AFB002008F0D1F8A44846
:401B400008F0D8F8A34B1B7813F0FF0F26D1A24B1B7813F0FF0F21D1A04B1B7813F0FF0F1CD09F4B1B7813F0FF0F17D108F04CF90DAC9C4D0FCD0FC495E8070003C4227035
:401B80000023CDF84D30CDF85130CDF855301693062232210DA808F035FBD5E08D4B1B7813F0FF0F23D08C4B1B7813F0FF0F1ED18A4B1B7813F0FF0F19D1894B1B7813F0D4
:401BC000FF0F14D108F020F90DAC874D0FCD0FC495E8030084E8030000231393149315931693062232210DA808F00CFBACE0794B1B7813F0FF0F26D1774B1B7813F0FF0F75
:401C000021D0764B1B7813F0FF0F1CD1744B1B7813F0FF0F17D108F0F7F80DAC734D0FCD0FC495E8070003C422700023CDF84D30CDF85130CDF855301693062232210DA85C
:401C400008F0E0FA80E0644B1B7813F0FF0F25D0624B1B7813F0FF0F20D0614B1B7813F0FF0F1BD108F0D0F80DAC614D0FCD0FC40FCD0FC42B6824F8023B1B0C237000231F
:401C8000CDF85730CDF85B30CDF85F30CDF8623006220F210DA808F0B5FA55E04E4B1B7813F0FF0F20D04B4B1B7813F0FF0F1BD04B4B1B7813F0FF0F16D108F0A5F80DAC33
:401CC0004C4D0FCD0FC495E80F0084E80F0000231593169317931893ADF86430062214210DA808F08FFA2FE03D4B1B7813F0FF0F1ED008F089F80DAC3F4D0FCD0FC495E8ED
:401D0000030044F8040B24F8021B090C21700023CDF84B30CDF84F30CDF85330CDF857308DF85B30062232210DA808F06BFA0BE008F06AF8314B0D9300238DF83830062205
:401D4000EA210DA808F05EFAAF2340F207120021084607F08BFA2A4E0DAC06F514750FCD0FC495E80F0007C42380462200210DF152000EF061FC06AB06F52D7207CA03C3D7
:401D800023F8022B120C1A700023CDF82330CDF827308DF82B304B2214210DA808F032FA6522502106A808F02DFA164B1A68164903A80EF061FC6422962103A808F022FA78
:401DC0004FF4967003F0A6FB74E100BFECAC0308B43C0910F1AC0308F3AC0308F2AC0308FCAC0308041A09102C1A0910541A09107C1A0910B01A0910E41A0910352F360038
:401E0000C41909102CD403080C1D0910AC4B1B68062B40F04F81AF2340F207120021084607F024FA002007F05BFFA64807F062FFA54B1B7813F0FF0F26D1A44B1B7813F04C
:401E4000FF0F21D1A24B1B7813F0FF0F1CD0A14B1B7813F0FF0F17D107F0D6FF0DAC9E4D0FCD0FC495E8070003C422700023CDF84D30CDF85130CDF8553016930622322158
:401E80000DA808F0BFF9D5E08F4B1B7813F0FF0F23D08E4B1B7813F0FF0F1ED18C4B1B7813F0FF0F19D18B4B1B7813F0FF0F14D107F0AAFF0DAC894D0FCD0FC495E8030009
:401EC00084E8030000231393149315931693062232210DA808F096F9ACE07B4B1B7813F0FF0F26D1794B1B7813F0FF0F21D0784B1B7813F0FF0F1CD1764B1B7813F0FF0FFC
:401F000017D107F081FF0DAC754D0FCD0FC495E8070003C422700023CDF84D30CDF85130CDF855301693062232210DA808F06AF980E0664B1B7813F0FF0F25D0644B1B7826
:401F400013F0FF0F20D0634B1B7813F0FF0F1BD107F05AFF0DAC634D0FCD0FC40FCD0FC42B6824F8023B1B0C23700023CDF85730CDF85B30CDF85F30CDF8623006220F21A3
:401F80000DA808F03FF955E0504B1B7813F0FF0F20D04D4B1B7813F0FF0F1BD04D4B1B7813F0FF0F16D107F02FFF0DAC4E4D0FCD0FC495E80F0084E80F00002315931693EB
:401FC00017931893ADF86430062214210DA808F019F92FE03F4B1B7813F0FF0F1ED007F013FF0DAC414D0FCD0FC495E8030044F8040B24F8021B090C21700023CDF84B3000
:40200000CDF84F30CDF85330CDF857308DF85B30062232210DA808F0F5F80BE007F0F4FE334B0D9300238DF838300622EA210DA808F0E8F8AF2340F207120021084607F05E
:4020400015F92C4E0DAC06F532750FCD0FC495E80F0007C42380462200210DF152000EF0EBFA06AB06F54B7207CA03C323F8022B120C1A700023CDF82330CDF827308DF84C
:402080002B304B2214210DA808F0BCF86522502106A808F0B7F8184B1A68184903A80EF0EBFA6422A02103A808F0ACF84FF4967003F030FA322003F02DFAFEF765BF00BF69
:4020C000ECAC0308B43C0910F1AC0308F3AC0308F2AC0308FCAC0308041A09102C1A0910541A09107C1A0910B01A0910E41A0910362F3600C4190910B0BC03080C1D091076
:4021000070B586B006460D460D4B1B6800930D4B0D4A3D2103A806F089FC00240AE0084B1B6803FB04F189006A18314403A806F08FFC0134024B5B689C42F0D306B070BDB8
:40214000AC42020800620208141D091070B586B006460D460D4B1B6800930D4B0D4A3D2103A806F063FC00240AE0084B1B6803FB04F189006A18314403A806F069FC0134AA
:40218000024B5B689C42F0D306B070BDAC42020800620208081E0910F0B52DED028B8BB007460E4615461C46002309930893079306930593049300230393029301930093D2
:4021C00003AB07AA4FF47A71284606F097FB02AB06AA4FF47A71284606F0BCFA01AB05AA4FF47A71204606F089FB6B4604AA4FF47A71204606F0AEFADDED068ADDED077A18
:4022000077EEE88A9DED048ADDED057A37EEC88A09AA4FF47A71384606F034FB08AA4FF47A71304606F02EFBDDED097A88EEA77ADDED086AC8EE267AC7EE276A16EE900A9C
:402240000DF0CAFB04460D4613A3D3E900230DF017FC02460B46204629460DF011FC06460F460FA3D3E90023204629460DF008FC02460B46304639460DF050FA0AA3D3E99C
:4022800000230DF04BFA06F017FA0DF0BBFE80B20BB0BDEC028BF0BD48E17A14AE8746C0B4C876BE9F5A3E40AE47E17A1476584070B501230024264625462BE003F180429C
:4022C000013A00EB820292ED007A00EB8302D2ED007AB4EEE77AF1EE10FA19D5013100EB810191ED007AF4EEC77AF1EE10FA0FD59FED137AF4EEC77AF1EE10FA08DD0134F2
:40230000A4B2012C01D002D802E01E4600E01D4601339BB219460B4A92689342CED3AD1B084BDE68B5FBF6F53C20B0FBF5F00DF031FB06F0C1F90DF065FE80B270BD00BF02
:4023400000803B45AC42020880B50023154A1380154A1380154A1370144B1B78002BFBD0134C21461348FFF7CBFE134D29461348FFF7C6FE124E31462046FFF7E7FE114F23
:4023800039462846FFF7E2FE3046FFF791FF054B18803B46324629462046FFF7FDFE024B1880D9E7D8B40308DAB4030804AD030808AD03084C9D0308DCB40308BCBC030854
:4023C000F82D03085CCC03082DE9F04180460E4617460A4C08256560702000F06FFD404600F06CFDA5606560722000F067FD3946304600F0C7FDA560BDE8F08100063240BD
:4024000000B583B002AB03F8011D01221946FFF7DBFF03B05DF804FBF8B507460E46094C08256560702000F049FD384600F046FDA5606560732000F041FD304600F06EFD2D
:40244000A560F8BD0006324038B50425084B5D60084C402363601023636000F0FFFC0822054B5A6065602023636000F0E1FC38BD00003240800232400006324010B5434CB6
:402480006F22002120460EF0D7F8631C236704F14E03636704F12203A36700F0C9FC03E000F0D0FC032868D800F0AEFD0028F7D100F0CEFC00217220FFF7AEFF00F00F00A1
:4024C00002285CD14021FFF79BFF00210F20FFF7A3FF10F0800F54D002210B20FFF790FF08222B490120FFF76FFFD1210720FFF787FF02210820FFF783FFC2210920FFF7A9
:402500007FFF03210420FFF77BFF01210320FFF777FF00210320FFF773FF0A2001F082FE002400E01C4601210520FFF769FF642001F078FE03210520FFF762FF322001F094
:4025400071FE0F210520FFF75BFF322001F06AFE00210F20FFF760FF10F0400F05D040210220FFF74DFF234603E0631C9BB2042CD8D1032B07D9052010BD012010BD02200D
:4025800010BD032010BD002010BD00BFC06A0208FC1E091010F1090F0EDB10F1040F0EDB05280FDD0A2810DD0F2811DD142811DD282811DC5A2210E04FF496620DE04FF4B1
:4025C00061720AE04FF4167207E04FF4A57204E0DC2202E0B42200E03C22034BA3F87C20A3F87E20704700BFC06A02082DE9F84F06460D46047828B1CA4B984205D1012794
:40260000002403E00127FF2400E0002700F010FC4FF00008D0E1C8EBC80AC8EB0A1ADFF80C930AEB090B6F22002158460EF004F80BF1010EBC4BC3F870E00AF1480048443C
:40264000063058670AF1200AD14409F10209C3F878902022002397E10FB934780136032D00F29081DFE815F004006500C600270100EB030C14F0400F01D0C02100E0802105
:402680008CF8001049B214F0100F02D04FF0300A01E04FF0200A4AEA01018CF8001014F0040F02D04FF00C0A01E04FF0080A4AEA01018CF8001014F0010F02D04FF0030A9D
:4026C00001E04FF0020A4AEA01018CF800100EEB020C14F0800F01D0032100E002218CF8001049B214F0200F02D04FF00C0A01E04FF0080A4AEA01018CF8001014F0080F52
:4027000002D04FF0300A01E04FF0200A4AEA01018CF80010013A92B214F0020F02D06FF03F0A01E06FF07F0A4AEA01018CF8001028E100EB030C14F0400F01D0802100E0F1
:4027400040218CF8001049B214F0100F02D04FF0200A01E04FF0100A4AEA01018CF8001014F0040F02D04FF0080A01E04FF0040A4AEA01018CF8001014F0010F02D04FF0B0
:40278000020A01E04FF0010A4AEA01018CF800100EEB020C14F0800F01D0022100E001218CF8001049B214F0200F02D04FF0080A01E04FF0040A4AEA01018CF8001014F0A7
:4027C000080F02D04FF0200A01E04FF0100A4AEA01018CF80010013A92B214F0020F02D06FF07F0A01E04FF0400A4AEA01018CF80010C7E000EB030C14F0400F01D0C0215B
:4028000000E040218CF8001049B214F0100F02D04FF0300A01E04FF0100A4AEA01018CF8001014F0040F02D04FF00C0A01E04FF0040A4AEA01018CF8001014F0010F02D03A
:402840004FF0030A01E04FF0010A4AEA01018CF800100EEB020C14F0800F01D0032100E001218CF8001049B214F0200F02D04FF00C0A01E04FF0040A4AEA01018CF80010A5
:4028800014F0080F02D04FF0300A01E04FF0100A4AEA01018CF80010013A92B214F0020F02D06FF03F0A01E04FF0400A4AEA01018CF8001066E000EB030C14F0400F01D008
:4028C000802100E0C0218CF8001049B214F0100F02D04FF0200A01E04FF0300A4AEA01018CF8001014F0040F02D04FF0080A01E04FF00C0A4AEA01018CF8001014F0010F17
:4029000002D04FF0020A01E04FF0030A4AEA01018CF800100EEB020C14F0800F08D0022107E000BFFFFF0F10C06A020800DC030803218CF8001049B214F0200F02D04FF019
:40294000080A01E04FF00C0A4AEA01018CF8001014F0080F02D04FF0200A01E04FF0300A4AEA01018CF80010013A92B214F0020F02D06FF07F0A01E06FF03F0A4AEA0101BE
:402980008CF8001001339BB2202B7FF665AEC8F1AF031BB299101A4A134003D5013B63F003030133174A02FA83F31B7A09F8013008F101081FFA88F8B8F1AF0F7FF62BAE0C
:4029C00000240FE0C4EBC403C4EB03136F220E4919440A20FFF7F8FC07210220FFF710FD0134A4B2AF2CEDD9084BB3F87C4000F029FA8442E4D800F02BFABDE8F88F00BF68
:402A000003000080FC1E091000DC0308C06A02082DE9F04706460D4600F00AFAD2210920FFF7EEFC0024C6E0C4EBC407C4EB0717DFF8008207EB08096F22002148460DF03F
:402A4000FBFD09F1010C784BC3F870C007F1480EC6440EF1060EC3F874E02037B84408F10208C3F87880202000218EE0771C32786E1C95F800900EEB010582EA090212F0FB
:402A8000400F04D019F0400F03D0802302E0402300E0C0232B705BB212F0100F05D019F0100F05D04FF0200A04E04FF0100A01E04FF0300A4AEA03032B7012F0040F05D0C3
:402AC00019F0040F05D04FF0080A04E04FF0040A01E04FF00C0A4AEA03032B7012F0010F05D019F0010F05D04FF0020A04E04FF0010A01E04FF0030A4AEA03032B700CEB11
:402B0000000512F0800F04D019F0800F03D0022302E0012300E003232B705BB212F0200F05D019F0200F05D04FF0080A04E04FF0040A01E04FF00C0A4AEA03032B7012F045
:402B4000080F05D019F0080F05D04FF0200A04E04FF0100A01E04FF0300A4AEA03032B70013880B212F0020F05D019F0020F04D06FF07F0203E0402201E06FF03F02134362
:402B80002B70013189B235463E4620297FF66EAFC4F1AF031BB29910244A134003D5013B63F003030133224A02FA83F31B7A08F801300134A4B2AF2C7FF636AF002421E06B
:402BC000C4EBC405C4EB05151A4B1D446F2229460A20FFF7F9FB07210220FFF711FCC4F1AF0343F38D032B44002283F822206F2229460A20FFF7E8FB07210220FFF700FCB3
:402C00000134A4B2AF2CDBD9074BB3F87E4000F019F98442D2D800F01BF9C2210920FFF7EFFBBDE8F08700BFC06A020803000080FC1E091000DC0308002307E01349086FD4
:402C40005522C254496FCA5401339BB2202BF5D970B5002416E0A6080C4DAA6F04F003030B490B441B7A93556F2229460A20FFF7ABFB07210220FFF7C3FBAB6F00229A55EF
:402C80000134A4B2AF2CE6D970BD00BFC06A0208FC1E091008B5002304E00021094AD1540133DBB2152BF8D900210420FFF7A8FB6F2204490A20FFF787FB07210220FFF7CF
:402CC0009FFB08BDC06A020838B50E4C1023A360142001F0A7FA00F0D9F808220A4B9A604023A3600425A5600A2001F09BFA65600A2001F097FAA5600A2001F093FAFFF76C
:402D0000BDFB38BD800232400006324038B5FFF793FFFFF7BFFF1E2001F084FA234C40256560322001F07EFAA56000210F20FFF773FB10F0400F36D000210B20FFF760FBA5
:402D400001210320FFF75CFB03210520FFF758FB01210520FFF754FB322001F063FA80210420FFF74DFB00210520FFF749FB01210720FFF745FB1E2001F054FA00F094F808
:402D8000102363606560142001F04CFA0822084B5A60042363602025A5601E2001F042FA6560002038BD042038BD00BF800232400006324010B50446FFF746FB2046FFF757
:402DC000E9FB10BD08B510B1FFF77EFF01E0FFF79DFF08B9012008BD002008BDF8B507460E4614461D4613B10120FFF7EBFF24B931463846FFF70CFE15E0631EDBB2012B61
:402E000011D800213846FFF7F1FB012C07D101213846FFF7EBFB02213046FFF7E7FB03213046FFF7E3FB15B10020FFF7CBFFF8BD08B50022024BC3F8082100F069F908BD46
:402E400000003840014BD3F808017047000038400122014B5A6070470000384010B5074C074A0849204601F039F8236843F0004323600822044B9A6010BD00BF00006740C7
:402E800050280408781F0910000632400822044B9A60044A136843F000431360704700BF000632400000674008B50249024801F049F908BD502804080000674008B5014633
:402EC000154800F081FD144BD3F8C03F13F0040FF9D0114BD3F8042242F48032C3F80422D3F8042222F48032C3F80422D3F80422D3F8042342F48032C3F80423D3F80423B0
:402F000022F48032C3F80423D3F804230422C3F8C02FD3F8C03F08BD0000674008B50146174800F051FD164BD3F8C03F13F0040FF9D0134BD3F84003D3F8042242F48032FF
:402F4000C3F80422D3F8042222F48032C3F80422D3F80422D3F8042342F48032C3F80423D3F8042322F48032C3F80423D3F804230422C3F8C02FD3F8C03FC0B208BD00BF0B
:402F80000000674038B50C46054600B121B940F2E6511B4801F06AF922462946194800F059FD184AD2F80832C3F30803D2F80822C2F3C032D342F4D1124BD3F8042242F497
:402FC0008032C3F80422D3F8042222F48032C3F80422D3F80422D3F8042342F48032C3F80423D3F8042322F48032C3F80423D3F804230422C3F8C02FD3F8C03F204638BD74
:40300000081F091000006740044B1B6913F0080F01D0012070470020704700BF8002324010B582B002AC012344F8043D00231A461449154807F038F8214608F04CFD09F03E
:40304000ABF960B14FF48472B021002009F089FA4FF48472B021002009F0AFFA0BE0B0224FF48471002009F07CFAB0224FF48471002009F0A2FA0549002009F089FA02B04A
:4030800010BD00BFC8590910FC590910BC420208012901D1002070474FF0FF30704700BF00487047406B020808B5012001F0D0FC014B186008BD00BFF081020808B500232B
:4030C0001A4619460248006801F0EEFB08BD00BFF081020808B54FF0FF31024B186801F03FFE08BDF081020808B502F06DFB08BD704700BF08B54FF40041034806F006FA4B
:40310000024806F049FE08BDF48102084052091008B5084B1B783BB9074A0021074801F017F90122034B1A70044B01229A609A6108BD00BFF4010308AC1F0910000038407E
:403140001F4B98422DD00CD840282ED003D8E8B1102828D02FE0802829D0B0F5807F28D029E0184B984228D006D8B0F1204F0DD0154B984212D01EE0144B98420AD001336A
:40318000984209D0023B984215D101E0002070470F4870470F4870470F4870474FF4A0007047074870470D4870470D4870470D487047034870470C4870474FF4A40070470E
:4031C00006005200010000F0090000A0040000F0010052000200520003005200010050000200500005005200FF00520038B5124B1B6893F83130012B04D840F2C3110F4884
:4032000001F034F80C4B1D682A6AB5F8B03013442C46D5F8B420D358002B0BDB084B1868FFF78EFF6B6801229A6063689B68002BFBD138BD034838BD74280408F81F0910B6
:40324000F8010308020050001A4B186128B102230370FF23437000234380174B1B6893F850202AB300B583B0B3F93830ADF80030002301931149684600F09AFFBDF9003032
:40328000002B08DB590903F01F03012202FA03F30B4A42F82130084B1B6893F8513023B102220849012000F0F3FA03B05DF804FB704700BFF801030874280408F543020800
:4032C00000E100E0AD44020808B50248FFF7BCFF08BD00BF0C0203082DE9F04104460D46174698469DF81860072903D9D921354800F0BCFF37F00F0303D0DA21314800F0F3
:40330000B5FFB8F1010F03D9DB212E4800F0AEFF36F01F0303D0DC212A4800F0A7FF22680123AB4022EA030308F0010808FA05F843EA08032360244B1B6893F87D100B5941
:40334000A8000F22824023EA020207F00F0303FA00F717430F51072D04D94FF422711B4800F084FF36F01F0304D040F28921174800F07CFF144B1B689A69A41AE4095B6917
:4033800024011919032D0DD81959ED001F22AA4021EA020206F01F0606FA05F515431D51BDE8F081043D4A68ED001F23AB4022EA030306F01F0606FA05F51D434D60BDE831
:4033C000F08100BF38200910742804087820091038B50B4B1B68D3F8B4301B58002B0DDA0D4604460B0C1B0423B140F2D521054800F03CFFA9B26160002038BD024838BD22
:4034000074280408B820091001008A0038B50368002B01DA002300E0094B73B90D460446C2600B0C1B0423B140F2BB21054800F01DFFA9B2A160002038BD014838BD00BFE9
:4034400001008A00B820091038B504460D4619B99921084800F00AFF074B1B68D3F8B4301B59002B03DAE3682B60002038BD034838BD00BFF82009107428040801008A0023
:40348000254B1B6893F8313083423AD900293AD00B6813F01F0F38D170B50D4604461E4B1B6893F83130984204D340F2C3111B4800F0DCFE184B1B68186AB3F8B03004FB05
:4034C0000304174E34602A68D208002168680DF0B3F800212046FFF77BFF346825B940F293310E4800F0C2FE2A4600212046FFF78DFF60B900210A4B1868FFF769FF40B97B
:4035000070BD084870470748704706487047064870BD054870BD00BF74280408B82009101002030803018A0001018A0010B504461346B2B9A9B9124B1B6893F831309842ED
:4035400004D340F2C3110F4800F090FE0C4B1B681A6AB3F8B03004FB03240B4B1C60002010BD43B149B1084A51609360111D2046FFF786FF10BD054810BD044810BD00BF19
:4035800074280408B82009101002030803018A002DE9F0411B4B1B68DC68236883422CD90D464609A0EB4610012303FA00F819B900F0C7FE074600E00027124B186803683F
:4035C000002B01DA002300E00F4B83B9626852F8263018EA030F05D023EA080342F82630002400E0094C0021FFF7F2FE00E0084C25B9384600F0A9FE00E0064C2046BDE86D
:40360000F08100BF1002030801008A00020188000301880004018A000B4B1B68DB681A6882420CD94109A0EB4110012202FA00F05B6853F82130184203D0044870470448B5
:4036400070470448704700BF100203080101880004018A0000018800024B1B680BB9014B186070471C0203082DE9F8430446884691461D46089F2C4B1B681BB9B5212B4879
:4036800000F0F4FD284B1B682C2000FB04F01C18EEB21E50C5F3072363602D0CA560244B1B6893F831309E4204D340F2C311214800F0DCFD1E4B1B68196AB3F8B02006FB1B
:4036C00002162661666893F832309E4204D340F2DF11184800F0CAFD154B1B681D6A803605EB46156561A668330C1B0423B14FF4FF71104800F0BAFD330C1B0423B140F2F9
:40370000FF110C4800F0B2FDB3B243EA0646AE60C4F81C90C4F820800023A36117B1B7F90030A381BDE8F8831C0203083821091074280408B8200910F0B58FB0044618B990
:403740005221274800F092FDA369072B03D95621234800F08BFDE36A1BB95821204800F085FD236B1BB959211D4800F07FFD07AD04F114060FCE0FC537682F6002AD264696
:403780000FCE0FC533682B60164B1B68B3F93620079B1344ADF83030089B0D93A26AE16A0CAD00953B460A98FFF75EFF00210091069B0A460598FFF757FF216B284600F07A
:4037C000F7FCBDF93030002B08DB590903F01F03012202FA03F3044A42F821300FB0F0BD382109107428040800E100E0F8B506460F461D4614461AB9FD211F4800F036FD80
