:020000041008E2
:4000000000780408EB0208100D0000005103081051030810510308105103081000000000000000000000000000000000D17508104D0308100000000071760810D576081052
:400040004D0308104D0308104D0308104D0308104D0308104D0308104D0308104D0308104D0308104D0308104D0308104D0308104D0308104D0308104D0308104D03081000
:400080004D0308104D0308104D0308104D0308104D0308104D0308104D0308104D0308104D0308104D0308104D0308104D0308104D0308104D0308104D0308104D030810C0
:4000C0004D0308104D0308104D0308104D0308104D0308104D0308104D0308104D0308104D0308104D0308104D0308104D0308104D0308104D0308104D0308104D03081080
:400100004D0308104D0308104D0308104D0308104D0308104D0308104D0308104D0308104D0308104D0308104D0308104D0308104D0308104D0308104D0308104D0308103F
:400140004D0308104D0308104D0308104D0308104D0308104D0308104D0308104D0308104D0308104D0308104D0308104D0308104D0308104D0308104D0308104D030810FF
:400180004D0308104D0308104D0308104D0308104D0308104D0308104D0308104D0308104D0308104D0308104D0308104D0308104D0308104D0308104D0308104D030810BF
:4001C0004D0308104D0308104D0308104D0308104D0308104D0308104D0308104D0308104D0308104D0308104D0308104D0308104D0308104D0308104D0308104D0308107F
:400200004D0308104D0308104D0308104D0308104D0308104D0308104D0308104D0308104D0308104D0308104D0308104D0308104D0308104D0308104D0308104D0308103E
:400240004D0308104D0308104D0308104D0308104D0308104D0308104D0308104D0308104D0308104D0308104D0308104D0308104D0308104D0308104D0308104D030810FE
:400280004D0308104D0308104D03081010B5054C237833B9044B13B10448AFF300800123237010BDF44902080000000034A30910084B10B51BB108490848AFF30080084836
:4002C000036803B910BD074B002BFBD0BDE81040184700BF00000000F849020834A30910C0430208000000007047FFF7FDFF72B6104C114DAC4209DA21686268A368043B6E
:40030000A2BFC858D050FAE70C34F3E70B490C4A00209142BCBF41F8040BFAE709480A490860BFF34F8F00F0F7F900F0D1F900F01DF8FEE738A3091050A30910F449020879
:40034000F82B04080040020808ED00E0FEE7FEE700B504207146084202D0EFF3098001E0EFF30880043005F04DFBFEE730B583B062B607F079FC08F00DF900F0E5FB03221E
:400380000021012005F026FE564B18600CF0DEFB07F0D6FB07F01AFC142003F019FA012003F01EFA01200CF0C9FA00200CF008FB6FF07F400CF0FAFA0CF096FB07F09EFB8F
:4003C000494B19688C6891F87300032303FA00F591F8702091F87200824045EA020091F871200125954003FA02F205EA0203034343F00043C4F800348B68D3F800343B4CBA
:400400003B49204605F090FAB4F90030002B08DB5A0903F01F00012181406032354840F82210002B08DB590903F01F03012202FA03F3304A42F8213000F04AF900F080F85D
:4004400000F0E2FA002000F0EBF900F0ABFA0121084600F0BDFB002401940223009323464FF4FA722449254806F09AFA01940125009523464FF4FA722149224806F090FA66
:400480000194009423464FF4FA721F491F4806F087FA0194009423464FF4FA721C491D4806F07EFA0194009523464FF4C8721A491A4806F075FA0194009523464FF4C872F2
:4004C0001749184806F06CFA0194009423464FF4FA721549154806F063FA06F093FA204603B030BD04BD0308EC2804085C640910FD0B081000E100E0005E0910551108106D
:400500000C5E0910710F0810185E0910450C0810205E0910910C0810285E0910150A0810345E0910B10A0810445E09103D25081008B5012003F05AFF08BD00BF704700BFAF
:400540005C4AD2F8803303F00F0303F1D00152F8212002F00702032A04D0042A05D092B9554914E0554A116811E003F1C002514951F8222002F01F02112A06D0132A04D00E
:400580004FF4FA4103E04E4901E04FF400418BBB484BD3F8902502F00100D3F88825C2F30172D3F8883513F0405F07D0414BD3F88835C3F30173012B02D102E0012300E0CE
:4005C000002303B108B9032A46D13A48D0F88025C2F31103D0F88425C2F30C02D0F88005C0F300600130B1FBF2F202FB03F2B2FBF0F131E0012B2FD12E4BD3F8402602F0B9
:400600000100D3F80026C2F30172D3F8003613F0405F07D0274BD3F80036C3F30173012B02D102E0012300E0002303B108B9032A12D12048D0F8002602F07F02D0F8003635
:40064000C3F30423D0F80006C0F3044002FB01F2B2FBF3F2B2FBF0F1164BD3F88033C3F3011321FA03F215494A601648D0F89030C3F3072301330069000E0130B2FBF0F0D8
:400680008860B2FBF3F3CB600B6103F5742202F23F220D48A0FB0202C2F387420A7503F2E7330A4AA2FB03239B098B61DB03CB61704700BF0000264000127A008C42020854
:4006C00000366E010000214083DE1B43D34D621008B50D4805F036FBFFF730FFFFF730FF00221146042003F049FC084803F0DCFC074B1B6893F8513013B1064803F044FD0A
:4007000003F00AFB08BD00BF64680910104A0208EC280408505E091008B505F0CEF9074AD2F8883043F47003C2F88830BFF34F8FBFF36F8F05F0C5F908BD00BF00ED00E061
:400740002DE9F04182B0884616461D46114C124F009700231A460146204604F015FD3B4600224146204604F07DFE002406E00A4B0022315D074804F075FE0134AC42F6DB30
:40078000054A0021034804F0E1FD002002B0BDE8F08100BF000063408C2904082DE9F04383B08046894616461D461B4C1B4F009700231A460146204604F0E6FC3B460022C0
:4007C0004946204604F04EFE0097002301224146204604F051FD002408E0104B00930023321919460C4804F0E3FD01346B1E9C42F3DB1A46084C094D009500233244012105
:40080000204604F0D5FD2A460021204604F09EFD002003B0BDE8F083000063408C29040870B584B00646144C144D0095642300225721204604F0A8FC2B46642231462046C9
:4008400004F010FE0095642301225721204604F013FD002104AA02F8011D00956423204604F0A6FD2A466421204604F06FFD9DF80F0004B070BD00BF00006440402904083D
:40088000F0B583B007460E460D4C0E4D0095642300225721204604F077FC2B4664223946204604F0DFFD2B4664223146204604F0D9FD2A466421204604F048FD03B0F0BD4A
:4008C00000006440402904082DE9F04182B080460D4616461A4C1B4F0097642300225721204604F051FC3B4664224146204604F0B9FD0097642301225721204604F0BCFC59
:40090000002409E00F4B009364232A1900210C4804F04EFD0134E4B2731E9C42F2DB084E084F009764232A190121304604F040FD3A466421304604F009FD02B0BDE8F08124
:40094000000064404029040830B583B004460D46002303600B60062269460720FFF7B4FF9DF80020236803EB02439DF8012003EB02239DF80220134423609DF803202B68F9
:4009800003EB02439DF8042003EB02239DF805201344C3F311032B602368C3F31103236003B030BD08B5C0210220FFF769FF00210320FFF765FF00210420FFF761FF0021E2
:4009C0000520FFF75DFF00210620FFF759FF2F210820FFF755FF03210920FFF751FF27210A20FFF74DFF0A210C20FFF749FF0A210D20FFF745FF7D211020FFF741FF012195
:400A00002120FFF73DFF08BD08B540210920FFF737FF08BD30B5ADF5FA5D81B00024B4F57A7F01D00134A4B20C4B1B6913F0800FFAD1A0000DF57A650DEB00012844FFF701
:400A400083FF5DF8243055F824202146044813F0F9F80A2006F01AF9E1E700BF80063240845E091010B5642006F010F90C4C0D4BE3610D4B23620D4B63626823637020466C
:400A800002F014F90023E3731523237311232371204602F051F9636A3220984710BD00BF80D403089D070810410708108D6C0810F0B585B0FFF7D6FF204B002201A9012073
:400AC00002F05CF900244FF08045BDF9040011F0E1FD22462B4609F08FFB06460F46BDF9060011F0D7FD22462B4609F085FB02460B463046394611F081FC06460F46BDF9AB
:400B0000080011F0C7FD22462B4609F075FB04460D4622462B463046394611F06FFC09F0EFFC0022064B11F01BFE02460B46054813F088F8C82006F0A9F8BDE780D4030873
:400B40000000103FA45E09100122124B1A600023114A1360114A1370114A1370114A1370114A1370114A13706221114A11809621104A11801049114A11605021104A116058
:400B8000C821104A116046210F4A11600F4A1360704700BF3CAD030804BD030840AD030841AD030842AD030843AD03084CAD03082AB5030828B503086666663F44AD030825
:400BC00048AD030800BD03087CD40308442E0308F8B506460F4602F071FF0546064C3B4632460146204602F007FE41F2B0622946204612F087FBF8BD904B020808B50D4B1E
:400C00001868002105F05EFB0B4B5A6910225A615B690A4BB3F90030002B09DB5A0903F01F03012101FA03F36032054941F8223008BD00BF04BD0308000032405C6409102A
:400C400000E100E008B50D4B18684FF4FA7105F043FC78B100230A4A13700A4A13700A4A13700A4A13700A2006F010F801210846FFF7AEFF322006F009F8E4E704BD030879
:400C800042AD030841AD030843AD03084CAD030808B5394B1B88394A1268934202DD0121374A1170374A1268934202DA0122364B1A70364B1A88364B1B689A4202DA0122AD
:400CC000344B1A70344B186811F0F6FC26A3D3E9002311F0B7FF48B92F4B186811F0ECFC23A3D3E9002311F0CBFF10B101222B4B1A702A4B1B7813F0FF0F0ED1204B1B786C
:400D000013F0FF0F09D1204B1B7813F0FF0F04D1204B1B7813F0FF0F09D0214C08256560322005F0B3FFA560322005F0AFFF1B4B1B7813F0FF0F11D1114B1B7813F0FF0FBE
:400D40000CD1114B1B7813F0FF0F07D1114B1B7813F0FF0F02D10822114B9A60322005F095FF96E7AFF30080666666666666E63F9A9999999999F13F28B5030800BD0308F1
:400D800042AD03087CD4030841AD03082AB5030848AD030843AD030844AD03084CAD030800003240F0B597B002460F46002413941494ADF8544010941194ADF84840264B72
:400DC00008AD93E8030085E803000A940B940C940D940E94ADF83C40203393E803000090ADF80410CDF80640CDF80A40CDF80E40CDF81240CDF81640CDF81A40174E31469B
:400E000013A812F037FF3A46314610A812F032FF20460BF0D5FD12480BF0DCFD13A9284612F04CFF044612F058FF0E4B1B8823529B22052128460CF055F810A9684612F0EE
:400E40003DFF9B22C82168460CF04CF801210846FFF7BEFE17B0F0BDB05E0910F0610910E8810910F4610910F0B50026B64626E0B500144C2C44D4ED006A07EE902AB8EEB9
:400E8000E76A76EEC66A9C1A07EE904AF8EEE77A86EEA77A4FEA8E040B4F274487ED007A0A4F3D4495ED007A37EE467AC7EE276A074D2C44C4ED006A0EF1010E0E44864266
:400EC000D6DBF0BDACCC0308A8D40308482E030890D8030830B5FFB005460C464FF4FA72002101A812F034FA002217E005EB820393ED007AF7EE007A77EEC77A9FED1A7A0F
:400F000067EE877AB3EE0E7A77EE877AFDEEE77A17EE903A01A921F812300132A242E5DB19230022FA2101A80BF0EEFF01200BF005FD00200BF044FDAF2340F20712002113
:400F400008460BF003F818234FF48472194600200CF07EFA94234FF48472194600200CF077FA7FB030BD00BF000096420000000070B507F09FFA002840F0D68006F08EFE52
:400F8000002007F0C9F80446012007F0B1F80646022007F0ADF8054601200BF0CFFC00200BF00EFD6FF07F400BF000FD62480BF011FDA6B1614B1B68062B10DC5F4B1B6853
:400FC000012B0CD05D4A1368013B13600BF08CFD322005F05BFE01210846FFF7F9FD0A2005F054FE7EB1554B1B68012B0BD10622524B1A600BF078FD322005F047FE012170
:401000000846FFF7E5FD0A2005F040FEA5B14B4B1B68002B10DD494B1B68072B0CD0474A1368013313600BF05FFD322005F02EFE01210846FFF7CCFD0A2005F027FE7DB163
:401040003E4B1B68072B0BD101253C4B1D600BF04BFD322005F01AFE29462846FFF7B8FD0A2005F013FE4FF6FF739C4258D057D0324B1B68032B0FD1204611F00BFB2CA3A4
:40108000D3E9002311F06CFB11F01AFE2C4B186001210846FFF79CFD284B1B68042B12D1A4F13203274A82FB0312DB17C3EBA20325490A6813440B600A2005F0E7FD012101
:4010C0000846FFF785FD1D4B1B68052B12D1A4F132031C4A82FB0312DB17C3EBA2031B490A6813440B600A2005F0D0FD01210846FFF76EFD114B1B68062B11D1323C114B14
:4011000083FB0423E417C4EBA304114A13681C4414600A2005F0BAFD01210846FFF758FD07F026F907F036FA322005F0AFFD20E76666666666660440086C09103CAD03081E
:40114000442E03086766666648AD03087CD4030800BD030870B5A6B09D4B1B68012B40F05D8100200BF02CFC9A480BF033FC0BF0BBFC994B1B7813F0FF0F26D1974B1B7821
:4011800013F0FF0F21D1964B1B7813F0FF0F1CD0944B1B7813F0FF0F17D10BF0A5FC0DAC914D0FCD0FC495E8070003C422700023CDF84D30CDF85130CDF8553016930622CB
:4011C00032210DA80BF08EFEEAE0834B1B7813F0FF0F23D0814B1B7813F0FF0F1ED1804B1B7813F0FF0F19D17E4B1B7813F0FF0F14D10BF079FC0DAC7C4D0FCD0FC495E809
:40120000030084E8030000231393149315931693062232210DA80BF065FEC1E06E4B1B7813F0FF0F26D16D4B1B7813F0FF0F21D06B4B1B7813F0FF0F1CD16A4B1B7813F019
:40124000FF0F17D10BF050FC0DAC694D0FCD0FC495E8070003C422700023CDF84D30CDF85130CDF855301693062232210DA80BF039FE95E0594B1B7813F0FF0F25D0584BE1
:401280001B7813F0FF0F20D0564B1B7813F0FF0F1BD10BF029FC0DAC564D0FCD0FC40FCD0FC42B6824F8023B1B0C23700023CDF85730CDF85B30CDF85F30CDF86230062257
:4012C0000F210DA80BF00EFE6AE0444B1B7813F0FF0F20D0404B1B7813F0FF0F1BD0414B1B7813F0FF0F16D10BF0FEFB0DAC424D0FCD0FC495E80F0084E80F0000231593A7
:40130000169317931893ADF86430062214210DA80BF0E8FD44E0334B1B7813F0FF0F1ED00BF0E2FB0DAC354D0FCD0FC495E8030044F8040B24F8021B090C21700023CDF8FC
:401340004B30CDF84F30CDF85330CDF857308DF85B30062232210DA80BF0C4FD20E00BF0C3FB0DAC264D0FCD0FC495E8070003C422800023CDF84E30CDF85230CDF85630A5
:40138000ADF85A301F4A06928DF81C30062232210DA80BF0A7FD0622EA2106A80BF0A2FD194B1A4A02214FF4FA70FFF75DFDFA211748FFF78FFD174B1988174B1888FFF703
:4013C000F1FC40F6B83005F061FC00F05BBF00BF3CAD0308E881091041AD030843AD030842AD03084CAD0308F05E0910185F0910405F0910685F09109C5F0910D05F091074
:40140000F85F0910312F36009C97010004700100A8D4030828B503082AB503089F4B1B68022B40F0618100200BF0CAFA9C480BF0D1FA0BF059FB9B4B1B7813F0FF0F26D19F
:40144000994B1B7813F0FF0F21D1984B1B7813F0FF0F1CD0964B1B7813F0FF0F17D10BF043FB0DAC934D0FCD0FC495E8070003C422700023CDF84D30CDF85130CDF85530BF
:401480001693062232210DA80BF02CFDEFE0854B1B7813F0FF0F23D0834B1B7813F0FF0F1ED1824B1B7813F0FF0F19D1804B1B7813F0FF0F14D10BF017FB0DAC7E4D0FCD7C
:4014C0000FC495E8030084E8030000231393149315931693062232210DA80BF003FDC6E0704B1B7813F0FF0F26D16F4B1B7813F0FF0F21D06D4B1B7813F0FF0F1CD16C4BF3
:401500001B7813F0FF0F17D10BF0EEFA0DAC6B4D0FCD0FC495E8070003C422700023CDF84D30CDF85130CDF855301693062232210DA80BF0D7FC9AE05B4B1B7813F0FF0FDF
:4015400025D05A4B1B7813F0FF0F20D0584B1B7813F0FF0F1BD10BF0C7FA0DAC584D0FCD0FC40FCD0FC42B6824F8023B1B0C23700023CDF85730CDF85B30CDF85F30CDF814
:40158000623006220F210DA80BF0ACFC6FE0464B1B7813F0FF0F20D0424B1B7813F0FF0F1BD0434B1B7813F0FF0F16D10BF09CFA0DAC444D0FCD0FC495E80F0084E80F00AF
:4015C00000231593169317931893ADF86430062214210DA80BF086FC49E0354B1B7813F0FF0F1ED00BF080FA0DAC374D0FCD0FC495E8030044F8040B24F8021B090C217014
:401600000023CDF84B30CDF84F30CDF85330CDF857308DF85B30062232210DA80BF062FC25E00BF061FA0DAC284D0FCD0FC42B6824F8023B1B0C23700023CDF84730CDF8D4
:401640004B30CDF84F30CDF85330CDF857308DF85B301F4A06928DF81C300622EA2106A80BF040FC06223C210DA80BF03BFC194B194A02214FF4FA70FFF7F6FBFA211748B9
:40168000FFF728FC164B1988164B1888FFF78AFB40F6B83005F0FAFA00F0F4BD3CAD0308E881091041AD030843AD030842AD03084CAD0308F05E0910185F0910405F0910D3
:4016C000685F09109C5F0910D05F091020600910322F3600E04903002111030090D8030828B503082AB50308B24B1B68032B40F08381AF2340F20712002108460AF026FC4E
:4017000000200BF05DF9AC480BF064F9AB4B1B7813F0FF0F26D1AA4B1B7813F0FF0F21D1A84B1B7813F0FF0F1CD0A74B1B7813F0FF0F17D10BF0D8F90DACA44D0FCD0FC4AA
:4017400095E8070003C422700023CDF84D30CDF85130CDF855301693062232210DA80BF0C1FBD5E0954B1B7813F0FF0F23D0944B1B7813F0FF0F1ED1924B1B7813F0FF0FE8
:4017800019D1914B1B7813F0FF0F14D10BF0ACF90DAC8F4D0FCD0FC495E8030084E8030000231393149315931693062232210DA80BF098FBACE0814B1B7813F0FF0F26D195
:4017C0007F4B1B7813F0FF0F21D07E4B1B7813F0FF0F1CD17C4B1B7813F0FF0F17D10BF083F90DAC7B4D0FCD0FC495E8070003C422700023CDF84D30CDF85130CDF8553064
:401800001693062232210DA80BF06CFB80E06C4B1B7813F0FF0F25D06A4B1B7813F0FF0F20D0694B1B7813F0FF0F1BD10BF05CF90DAC694D0FCD0FC40FCD0FC42B6824F864
:40184000023B1B0C23700023CDF85730CDF85B30CDF85F30CDF8623006220F210DA80BF041FB55E0564B1B7813F0FF0F20D0534B1B7813F0FF0F1BD0534B1B7813F0FF0FEA
:4018800016D10BF031F90DAC544D0FCD0FC495E80F0084E80F0000231593169317931893ADF86430062214210DA80BF01BFB2FE0454B1B7813F0FF0F1ED00BF015F90DACF4
:4018C000474D0FCD0FC495E8030044F8040B24F8021B090C21700023CDF84B30CDF84F30CDF85330CDF857308DF85B30062232210DA80BF0F7FA0BE00BF0F6F8394B0D939C
:4019000000238DF838300622EA210DA80BF0EAFAAF2340F20712002108460AF017FB324C0DAD04F5CC760FCE0FC596E80F0085E80F000026ADF854608DF8566006AD04F5A5
:40194000DE740FCC0FC594E8030045F8040B2970CDF82D60252301938DF808604B2214210DA80BF0BFFA5B223C2106A80BF0BAFA7322782101A80BF0B5FA1C4B1A686423B4
:4019800003FB02F31A4A82FB03121A44DB17C3EBE21292B2174903A812F06CF973225A2103A80BF09FFA4FF4967005F06FF900F069BC00BF3CAD0308E881091041AD03085E
:4019C00043AD030842AD03084CAD0308F05E0910185F0910405F0910685F09109C5F0910D05F0910332F3600B05E0910442E030881808080F8610910AD4B1B68042B40F07A
:401A00007781AF2340F20712002108460AF09EFA00200AF0D5FFA7480AF0DCFFA64B1B7813F0FF0F26D1A54B1B7813F0FF0F21D1A34B1B7813F0FF0F1CD0A24B1B7813F0CB
:401A4000FF0F17D10BF050F80DAC9F4D0FCD0FC495E8070003C422700023CDF84D30CDF85130CDF855301693062232210DA80BF039FAD5E0904B1B7813F0FF0F23D08F4BFF
:401A80001B7813F0FF0F1ED18D4B1B7813F0FF0F19D18C4B1B7813F0FF0F14D10BF024F80DAC8A4D0FCD0FC495E8030084E8030000231393149315931693062232210DA897
:401AC0000BF010FAACE07C4B1B7813F0FF0F26D17A4B1B7813F0FF0F21D0794B1B7813F0FF0F1CD1774B1B7813F0FF0F17D10AF0FBFF0DAC764D0FCD0FC495E8070003C48C
:401B000022700023CDF84D30CDF85130CDF855301693062232210DA80BF0E4F980E0674B1B7813F0FF0F25D0654B1B7813F0FF0F20D0644B1B7813F0FF0F1BD10AF0D4FF72
:401B40000DAC644D0FCD0FC40FCD0FC42B6824F8023B1B0C23700023CDF85730CDF85B30CDF85F30CDF8623006220F210DA80BF0B9F955E0514B1B7813F0FF0F20D04E4BD5
:401B80001B7813F0FF0F1BD04E4B1B7813F0FF0F16D10AF0A9FF0DAC4F4D0FCD0FC495E80F0084E80F0000231593169317931893ADF86430062214210DA80BF093F92FE01B
:401BC000404B1B7813F0FF0F1ED00AF08DFF0DAC424D0FCD0FC495E8030044F8040B24F8021B090C21700023CDF84B30CDF84F30CDF85330CDF857308DF85B3006223221DB
:401C00000DA80BF06FF90BE00AF06EFF344B0D9300238DF838300622EA210DA80BF062F9AF2340F20712002108460AF08FF92D4E0DAC06F5EC750FCD0FC495E80F0007C429
:401C400024F8023B1B0C2370452200210DF1530011F07EFB06AC06F50F7393E8070084E80700002309930A93252201928DF808304B2214210DA80BF035F965225021204609
:401C80000BF030F96522B42101A80BF02BF9164B1A68164903A811F0EDFF6422962103A80BF020F94FF4967004F0F0FFEAE200BF3CAD0308E881091041AD030843AD0308E5
:401CC00042AD03084CAD0308F05E0910185F0910405F0910685F09109C5F0910D05F0910342F3600B05E091048AD0308F8610910AA4B1B68052B40F07181AF2340F20712E2
:401D0000002108460AF022F900200AF059FEA4480AF060FEA34B1B7813F0FF0F26D1A24B1B7813F0FF0F21D1A04B1B7813F0FF0F1CD09F4B1B7813F0FF0F17D10AF0D4FEA1
:401D40000DAC9C4D0FCD0FC495E8070003C422700023CDF84D30CDF85130CDF855301693062232210DA80BF0BDF8D5E08D4B1B7813F0FF0F23D08C4B1B7813F0FF0F1ED129
:401D80008A4B1B7813F0FF0F19D1894B1B7813F0FF0F14D10AF0A8FE0DAC874D0FCD0FC495E8030084E8030000231393149315931693062232210DA80BF094F8ACE0794BD0
:401DC0001B7813F0FF0F26D1774B1B7813F0FF0F21D0764B1B7813F0FF0F1CD1744B1B7813F0FF0F17D10AF07FFE0DAC734D0FCD0FC495E8070003C422700023CDF84D3073
:401E0000CDF85130CDF855301693062232210DA80BF068F880E0644B1B7813F0FF0F25D0624B1B7813F0FF0F20D0614B1B7813F0FF0F1BD10AF058FE0DAC614D0FCD0FC453
:401E40000FCD0FC42B6824F8023B1B0C23700023CDF85730CDF85B30CDF85F30CDF8623006220F210DA80BF03DF855E04E4B1B7813F0FF0F20D04B4B1B7813F0FF0F1BD0DF
:401E80004B4B1B7813F0FF0F16D10AF02DFE0DAC4C4D0FCD0FC495E80F0084E80F0000231593169317931893ADF86430062214210DA80BF017F82FE03D4B1B7813F0FF0F7B
:401EC0001ED00AF011FE0DAC3F4D0FCD0FC495E8030044F8040B24F8021B090C21700023CDF84B30CDF84F30CDF85330CDF857308DF85B30062232210DA80AF0F3FF0BE0FB
:401F00000AF0F2FD314B0D9300238DF838300622EA210DA80AF0E6FFAF2340F20712002108460AF013F82A4E0DAC06F514750FCD0FC495E80F0007C42380462200210DF14F
:401F4000520011F005FA06AB06F52D7207CA03C323F8022B120C1A700023CDF82330CDF827308DF82B304B2214210DA80AF0BAFF6522502106A80AF0B5FF164B1A68164966
:401F800003A811F077FE6422962103A80AF0AAFF4FF4967004F07AFE74E100BF3CAD0308E881091041AD030843AD030842AD03084CAD0308F05E0910185F0910405F091095
:401FC000685F09109C5F0910D05F0910352F3600B05E09107CD40308F8610910AC4B1B68062B40F04F81AF2340F207120021084609F0ACFF00200AF0E3FCA6480AF0EAFC75
:40200000A54B1B7813F0FF0F26D1A44B1B7813F0FF0F21D1A24B1B7813F0FF0F1CD0A14B1B7813F0FF0F17D10AF05EFD0DAC9E4D0FCD0FC495E8070003C422700023CDF82E
:402040004D30CDF85130CDF855301693062232210DA80AF047FFD5E08F4B1B7813F0FF0F23D08E4B1B7813F0FF0F1ED18C4B1B7813F0FF0F19D18B4B1B7813F0FF0F14D1E4
:402080000AF032FD0DAC894D0FCD0FC495E8030084E8030000231393149315931693062232210DA80AF01EFFACE07B4B1B7813F0FF0F26D1794B1B7813F0FF0F21D0784BB9
:4020C0001B7813F0FF0F1CD1764B1B7813F0FF0F17D10AF009FD0DAC754D0FCD0FC495E8070003C422700023CDF84D30CDF85130CDF855301693062232210DA80AF0F2FE43
:4021000080E0664B1B7813F0FF0F25D0644B1B7813F0FF0F20D0634B1B7813F0FF0F1BD10AF0E2FC0DAC634D0FCD0FC40FCD0FC42B6824F8023B1B0C23700023CDF85730C0
:40214000CDF85B30CDF85F30CDF8623006220F210DA80AF0C7FE55E0504B1B7813F0FF0F20D04D4B1B7813F0FF0F1BD04D4B1B7813F0FF0F16D10AF0B7FC0DAC4E4D0FCD0D
:402180000FC495E80F0084E80F0000231593169317931893ADF86430062214210DA80AF0A1FE2FE03F4B1B7813F0FF0F1ED00AF09BFC0DAC414D0FCD0FC495E8030044F82A
:4021C000040B24F8021B090C21700023CDF84B30CDF84F30CDF85330CDF857308DF85B30062232210DA80AF07DFE0BE00AF07CFC334B0D9300238DF838300622EA210DA88E
:402200000AF070FEAF2340F207120021084609F09DFE2C4E0DAC06F532750FCD0FC495E80F0007C42380462200210DF1520011F08FF806AB06F54B7207CA03C323F8022BEF
:40224000120C1A700023CDF82330CDF827308DF82B304B2214210DA80AF044FE6522502106A80AF03FFE184B1A68184903A811F001FD6422A02103A80AF034FE4FF49670B8
:4022800004F004FD322004F001FDFEF765BF00BF3CAD0308E881091041AD030843AD030842AD03084CAD0308F05E0910185F0910405F0910685F09109C5F0910D05F0910BA
:4022C000362F3600B05E091000BD0308F861091070B586B006460D460F4B1B6800930F4B0F4A3D2103A809F011FA00240EE00A4B1B6803FB04F20B490988114405EB82022C
:4023000006EB810103A809F013FA0134024B5B689C42ECD306B070BDAC4202084062020800620910FCBC030870B586B006460D460F4B1B6800930F4B0F4A3D2103A809F0B3
:40234000E5F900240EE00A4B1B6803FB04F20B490988114405EB820206EB810103A809F0E7F90134024B5B689C42ECD306B070BDAC42020840620208F4620910FCBC030861
:402380002DE9F0412DED028B8AB080460F4616461D460023099308930793069305930493002303930293019300933B4C03AB07AAA168304609F012F902AB06AAA1683046A5
:4023C00009F038F801AB05AAA168284609F006F96B4604AAA168284609F02CF8DDED068ADDED077A77EEE88A9DED048ADDED057A37EEC88A09AAA168404609F0B3F808AA0B
:40240000A168384609F0AEF8DDED097A88EEA77ADDED086AC8EE267AC7EE276A16EE900A10F04AF904460D4615A3D3E9002310F097F902460B462046294610F091F90646D1
:402440000F4611A3D3E900232046294610F088F902460B46304639460FF0D0FF0CA3D3E900230FF0CBFF07F079FE10F051FC80B20A4B18800AB0BDEC028BBDE8F08100BFCC
:4024800048E17A14AE8746C0B4C876BE9F5A3E40AE47E17A14765840AC4202082AB5030838B5052300210D460C4629E05A1F00EB820292ED007A00EB8302D2ED007AB4EE9F
:4024C000E77AF1EE10FA19D55A1D00EB820292ED007AF4EEC77AF1EE10FA0FD59FED147AF4EEC77AF1EE10FA08DD013189B2012901D002D802E01D4600E01C4601339BB280
:402500000C4A9268053A9342D0D3641B094BDD68B4FBF5F43C20B0FBF4F010F0ABF807F01DFE10F0F5FB80B2034B188038BD00BF00007A44AC42020828B5030880B5002392
:40254000174A1380174A1380174A1370164B1B78002BFBD0154C21461548FFF7B9FE154D29461548FFF7B4FE144E31462046FFF7DBFE134F39462846FFF7D6FE3046FFF76A
:402580008FFF074B18803B46324629462046FFF7F7FE044B18800022034B1A70D6E700BF28B503082AB5030854AD030858AD03089C9D03082CB503080CBD0308482E03081A
:4025C000ACCC030840B1C2694AB1026A52B1436A5BB94FF0FF3070474FF0FF3070474FF0FF3070474FF0FF3070470020704700BF0222C271082343711021017103218171F8
:40260000C2734373142303730023837343688360C3680361704700BF4B790F2B0BD84A7A93420BD0027802F0F00203F00F0313430370002070476FF003007047002070470E
:40264000CB79022B08D8CA7A934208D0037803F08F030370002070476FF0030070470020704700BF8B790C2B0BD88A7A93420BD0027802F0F00203F00F0313430370002001
:4026800070476FF003007047002070474B7B0D2B0BD84A7C93420BD0027802F0F00203F00F0313430370002070476FF00300704700207047CB7B022B09D8027802F0CF0298
:4026C0001B0103F0300313430370002070476FF0030070478B7B042B0BD88A7C93420BD0027802F0F80203F0070313430370002070476FF0030070470020704738B593B1ED
:402700001C46DD6995B19B78012B01D140F0800013460A4601466078A8470546636A0120984745B105E04FF0FF3504E04FF0FF3501E06FF00105284638BD00BF38B50446D7
:402740000D460B46022201464020FFF7D7FF034680B929462046FFF75FFF034650B929462046FFF76DFF034620B92946601CFFF779FF0346184638BD38B504460D460B46F8
:40278000022201464220FFF7B9FF034680B929462046FFF77BFF034650B929462046FFF789FF034620B92946601CFFF793FF0346184638BD00B583B002A9002301F8013D14
:4027C000034601220220FFF799FF9DF80730C3F34303012B06D0022B07D0032B08D0072B0BD108E06FF0050007E06FF0060004E06FF0070001E06FF0080003B05DF804FBAA
:4028000030B585B005460C460023019302938DF80C301346821D01A91220FFF76FFF48BB02469DF805301B021BB29DF804100B4323809DF807301B021BB29DF806100B4354
:4028400063809DF809301B021BB29DF808100B43A380032D0BD19DF80A009DF80B309DF80C10090441EA03230343A36004E00023A36001E06FF00102104605B030BD00BFC8
:4028800010B584B00C4613460021009101910291CDF80B1010BB062269460C20FFF72EFF0146002846D19DF801301B021BB29DF80020134323809DF803301B021BB29DF8A1
:4028C0000220134363809DF805301B021BB29DF804201343A3800023A36030E002460C3269460C20FFF70AFF014630BB9DF801301B021BB29DF80020134323809DF80330A9
:402900001B021BB29DF80220134363809DF805301B021BB29DF804201343A3809DF80C009DF80D309DF80E20120442EA03230343A36004E06FF0010101E06FF0010108461B
:4029400004B010BD70B584B006460D4614460022009201920292CDF80B2000F10C0269460C20FFF7CBFE002843D102469DF801301B021BB29DF800100B4323809DF803308E
:402980001B021BB29DF802100B4363809DF805301B021BB29DF804100B43A3809DF807301B021BB29DF806100B432B809DF809301B021BB29DF808100B436B809DF80B30BF
:4029C0001B021BB29DF80A100B43AB80032E0CD19DF80C009DF80D309DF80E10090441EA03230343AB60A36005E00023AB60A36001E06FF00102104604B070BD2DE9F843FE
:402A0000002B31D00546894690461E461C6A74B39B78012B01D100F07F05337A112B02D0337C152B19D143464A4629467078A0470746736A0120984714E0376A012309EB22
:402A4000040229467078B84707460135EDB2736A012098470134E4B201E000242746A3B24345EAD347B105E04FF0FF3704E04FF0FF3701E06FF001073846BDE8F88300BFD4
:402A800010B582B0044602A8002320F8043D2146FFF754FE0346C8B92346012201A94020FFF7ACFF034688B963796372E379E372636A01209847234601220DF10501412055
:402AC000FFF79CFF034608B9A279A272184602B010BD00BF10B582B0044602A8002320F8043D2146FFF748FE0346C8B92346012201A94220FFF782FF034688B9637B63744E
:402B0000E37BE374636A01209847234601220DF105014320FFF772FF034608B9A27BA274184602B010BD00BF30B583B004460D4600238DF807300B46012201464020FFF73B
:402B4000DDFD034628BB2A79122A14D1237863F07F0323702B46012221464020FFF74EFF0346B0B92B4602220DF107015820FFF745FF03460DE0227812F0800F09D002F0BF
:402B80007F0222702B46012221464020FFF736FF0346184603B030BD30B583B000238DF807300279A2F11003DBB2022B1AD8037A9A421AD0044601460DF10700FFF7B4FFEF
:402BC000054698B923460122211D7E20FFF716FF0546237A102B02D1636A052098472379237203E06FF0030500E00025284603B030BD00BF38B5027BA2F11403DBB2012BE5
:402C000001D9172A1DD1037C9A421DD004460346012200F10C017E20FFF7F0FE0546237C142B03D1636A5120984707E0172B05D1237B152B02D1636A0A209847237B237438
:402C400003E06FF0030500E00025284638BD00BF30B583B0B6238DF80730F0B10446436AF3B1034601220DF107017E20FFF7C6FE0546636A0F20984755B9A378012B07D1DD
:402C8000234601220DF107017F20FFF737FD054645B92046FFF7ACFC04E04FF0FF3501E04FF0FF35284603B030BD00BF10B582B00446FFF787FC034648B9A278012A06D1D4
:402CC00023460DF107017F20FFF718FD0346C3B9234601220DF106010020FFF70FFD58B99DF80630D12B0AD12370FF23E3702046FFF7AEFF034604E06FF0020301E06FF0AE
:402D00000203184602B010BD60B1426A6AB110B50446FFF741FF034658B92046FFF76AFF034606E04FF0FF3301E04FF0FF3318467047184610BD00BFB0B1426ABAB110B547
:402D40000446FFF79DFE0346A8B92046FFF7C2FE034680B92046FFF7D7FF034658B92046FFF728FD034606E04FF0FF3301E04FF0FF3318467047184610BD00BF38B500F055
:402D8000030510F0040F01D1002000E00320B3B11446022D08D0032D0CD0012D12D1A1B11A46FFF72DFD38BD92B11A462146FFF767FD38BD7AB189B1FFF7C4FD38BD4FF0B1
:402DC000FF3038BD6FF0040038BD4FF0FF3038BD4FF0FF3038BD4FF0FF3038BD4FF0FF3038BD00BF2DE9F04180460E4617460A4C08256560702000F06FFD404600F06CFD3B
:402E0000A5606560722000F067FD3946304600F0C7FDA560BDE8F0810006324000B583B002AB03F8011D01221946FFF7DBFF03B05DF804FBF8B507460E46094C082565600A
:402E4000702000F049FD384600F046FDA5606560732000F041FD304600F06EFDA560F8BD0006324038B50425084B5D60084C402363601023636000F0FFFC0822054B5A6098
:402E800065602023636000F0E1FC38BD00003240800232400006324010B5434C6F220021204610F055FA631C236704F14E03636704F12203A36700F0C9FC03E000F0D0FC5B
:402EC000032868D800F0AEFD0028F7D100F0CEFC00217220FFF7AEFF00F00F0002285CD14021FFF79BFF00210F20FFF7A3FF10F0800F54D002210B20FFF790FF08222B4979
:402F00000120FFF76FFFD1210720FFF787FF02210820FFF783FFC2210920FFF77FFF03210420FFF77BFF01210320FFF777FF00210320FFF773FF0A2002F030FD002400E0D2
:402F40001C4601210520FFF769FF642002F026FD03210520FFF762FF322002F01FFD0F210520FFF75BFF322002F018FD00210F20FFF760FF10F0400F05D040210220FFF771
:402F80004DFF234603E0631C9BB2042CD8D1032B07D9052010BD012010BD022010BD032010BD002010BD00BF006B0208E863091010F1090F0EDB10F1040F0EDB05280FDD6A
:402FC0000A2810DD0F2811DD142811DD282811DC5A2210E04FF496620DE04FF461720AE04FF4167207E04FF4A57204E0DC2202E0B42200E03C22034BA3F87C20A3F87E20F0
:40300000704700BF006B02082DE9F84F06460D46047828B1CA4B984205D10127002403E00127FF2400E0002700F010FC4FF00008D0E1C8EBC80AC8EB0A1ADFF80C930AEB53
:40304000090B6F220021584610F082F90BF1010EBC4BC3F870E00AF148004844063058670AF1200AD14409F10209C3F878902022002397E10FB934780136032D00F29081D3
:40308000DFE815F004006500C600270100EB030C14F0400F01D0C02100E080218CF8001049B214F0100F02D04FF0300A01E04FF0200A4AEA01018CF8001014F0040F02D073
:4030C0004FF00C0A01E04FF0080A4AEA01018CF8001014F0010F02D04FF0030A01E04FF0020A4AEA01018CF800100EEB020C14F0800F01D0032100E002218CF8001049B236
:4031000014F0200F02D04FF00C0A01E04FF0080A4AEA01018CF8001014F0080F02D04FF0300A01E04FF0200A4AEA01018CF80010013A92B214F0020F02D06FF03F0A01E0D0
:403140006FF07F0A4AEA01018CF8001028E100EB030C14F0400F01D0802100E040218CF8001049B214F0100F02D04FF0200A01E04FF0100A4AEA01018CF8001014F0040F8C
:4031800002D04FF0080A01E04FF0040A4AEA01018CF8001014F0010F02D04FF0020A01E04FF0010A4AEA01018CF800100EEB020C14F0800F01D0022100E001218CF80010AA
:4031C00049B214F0200F02D04FF0080A01E04FF0040A4AEA01018CF8001014F0080F02D04FF0200A01E04FF0100A4AEA01018CF80010013A92B214F0020F02D06FF07F0ADE
:4032000001E04FF0400A4AEA01018CF80010C7E000EB030C14F0400F01D0C02100E040218CF8001049B214F0100F02D04FF0300A01E04FF0100A4AEA01018CF8001014F06E
:40324000040F02D04FF00C0A01E04FF0040A4AEA01018CF8001014F0010F02D04FF0030A01E04FF0010A4AEA01018CF800100EEB020C14F0800F01D0032100E001218CF8E0
:40328000001049B214F0200F02D04FF00C0A01E04FF0040A4AEA01018CF8001014F0080F02D04FF0300A01E04FF0100A4AEA01018CF80010013A92B214F0020F02D06FF082
:4032C0003F0A01E04FF0400A4AEA01018CF8001066E000EB030C14F0400F01D0802100E0C0218CF8001049B214F0100F02D04FF0200A01E04FF0300A4AEA01018CF800107A
:4033000014F0040F02D04FF0080A01E04FF00C0A4AEA01018CF8001014F0010F02D04FF0020A01E04FF0030A4AEA01018CF800100EEB020C14F0800F08D0022107E000BFF0
:40334000FFFF0F10006B020878DC030803218CF8001049B214F0200F02D04FF0080A01E04FF00C0A4AEA01018CF8001014F0080F02D04FF0200A01E04FF0300A4AEA01016D
:403380008CF80010013A92B214F0020F02D06FF07F0A01E06FF03F0A4AEA01018CF8001001339BB2202B7FF665AEC8F1AF031BB299101A4A134003D5013B63F0030301334B
:4033C000174A02FA83F31B7A09F8013008F101081FFA88F8B8F1AF0F7FF62BAE00240FE0C4EBC403C4EB03136F220E4919440A20FFF7F8FC07210220FFF710FD0134A4B264
:40340000AF2CEDD9084BB3F87C4000F029FA8442E4D800F02BFABDE8F88F00BF03000080E863091078DC0308006B02082DE9F04706460D4600F00AFAD2210920FFF7EEFC05
:403440000024C6E0C4EBC407C4EB0717DFF8008207EB08096F22002148460FF079FF09F1010C784BC3F870C007F1480EC6440EF1060EC3F874E02037B84408F10208C3F8E8
:403480007880202000218EE0771C32786E1C95F800900EEB010582EA090212F0400F04D019F0400F03D0802302E0402300E0C0232B705BB212F0100F05D019F0100F05D055
:4034C0004FF0200A04E04FF0100A01E04FF0300A4AEA03032B7012F0040F05D019F0040F05D04FF0080A04E04FF0040A01E04FF00C0A4AEA03032B7012F0010F05D019F09F
:40350000010F05D04FF0020A04E04FF0010A01E04FF0030A4AEA03032B700CEB000512F0800F04D019F0800F03D0022302E0012300E003232B705BB212F0200F05D019F077
:40354000200F05D04FF0080A04E04FF0040A01E04FF00C0A4AEA03032B7012F0080F05D019F0080F05D04FF0200A04E04FF0100A01E04FF0300A4AEA03032B70013880B297
:4035800012F0020F05D019F0020F04D06FF07F0203E0402201E06FF03F0213432B70013189B235463E4620297FF66EAFC4F1AF031BB29910244A134003D5013B63F003034C
:4035C0000133224A02FA83F31B7A08F801300134A4B2AF2C7FF636AF002421E0C4EBC405C4EB05151A4B1D446F2229460A20FFF7F9FB07210220FFF711FCC4F1AF0343F309
:403600008D032B44002283F822206F2229460A20FFF7E8FB07210220FFF700FC0134A4B2AF2CDBD9074BB3F87E4000F019F98442D2D800F01BF9C2210920FFF7EFFBBDE891
:40364000F08700BF006B020803000080E863091078DC0308002307E01349086F5522C254496FCA5401339BB2202BF5D970B5002416E0A6080C4DAA6F04F003030B490B4483
:403680001B7A93556F2229460A20FFF7ABFB07210220FFF7C3FBAB6F00229A550134A4B2AF2CE6D970BD00BF006B0208E863091008B5002304E00021094AD1540133DBB296
:4036C000152BF8D900210420FFF7A8FB6F2204490A20FFF787FB07210220FFF79FFB08BD006B020838B50E4C1023A360142002F055F900F0D9F808220A4B9A604023A360B6
:403700000425A5600A2002F049F965600A2002F045F9A5600A2002F041F9FFF7BDFB38BD800232400006324038B5FFF793FFFFF7BFFF1E2002F032F9234C40256560322005
:4037400002F02CF9A56000210F20FFF773FB10F0400F36D000210B20FFF760FB01210320FFF75CFB03210520FFF758FB01210520FFF754FB322002F011F980210420FFF7CE
:403780004DFB00210520FFF749FB01210720FFF745FB1E2002F002F900F094F8102363606560142002F0FAF80822084B5A60042363602025A5601E2002F0F0F865600020E0
:4037C00038BD042038BD00BF800232400006324010B50446FFF746FB2046FFF7E9FB10BD08B510B1FFF77EFF01E0FFF79DFF08B9012008BD002008BDF8B507460E461446A5
:403800001D4613B10120FFF7EBFF24B931463846FFF70CFE15E0631EDBB2012B11D800213846FFF7F1FB012C07D101213846FFF7EBFB02213046FFF7E7FB03213046FFF773
:40384000E3FB15B10020FFF7CBFFF8BD08B50022024BC3F8082100F083F908BD00003840014BD3F808017047000038400122014B5A6070470000384010B5074C074A0849F5
:40388000204601F0E7FE236843F0004323600822044B9A6010BD00BF00006740C828040864640910000632400822044B9A60044A136843F000431360704700BF000632403A
:4038C0000000674008B50249024801F0F7FF08BDC82804080000674008B50146154800F0C5FD144BD3F8C03F13F0040FF9D0114BD3F8042242F48032C3F80422D3F804225E
:4039000022F48032C3F80422D3F80422D3F8042342F48032C3F80423D3F8042322F48032C3F80423D3F804230422C3F8C02FD3F8C03F08BD0000674008B50146174800F04A
:4039400095FD164BD3F8C03F13F0040FF9D0134BD3F84003D3F8042242F48032C3F80422D3F8042222F48032C3F80422D3F80422D3F8042342F48032C3F80423D3F804234C
:4039800022F48032C3F80423D3F804230422C3F8C02FD3F8C03FC0B208BD00BF0000674038B50C46054600B121B940F2E6511B4802F018F822462946194800F09DFD184A2D
:4039C000D2F80832C3F30803D2F80822C2F3C032D342F4D1124BD3F8042242F48032C3F80422D3F8042222F48032C3F80422D3F80422D3F8042342F48032C3F80423D3F864
:403A0000042322F48032C3F80423D3F804230422C3F8C02FD3F8C03F204638BDF463091000006740044B1B6913F0080F01D0012070470020704700BF8002324010B582B0A0
:403A400002AC012344F8043D00231A461449154809F09AF921460AF0AEFE0BF00DFB60B14FF48472B02100200BF0EBFB4FF48472B02100200BF011FC0BE0B0224FF48471DB
:403A800000200BF0DEFBB0224FF4847100200BF004FC054900200BF0EBFB02B010BD00BFFC9E0910309F0910BC420208012901D1002070474FF0FF30704700BF0048704707
:403AC000806B020808B5012002F07EFB014B186008BD00BF3082020808B500231A4619460248006802F09CFA08BD00BF3082020808B54FF0FF31024B186802F0EDFC08BDD2
:403B00003082020808B503F01BFA08BD704700BF08B54FF40041034808F068FB024808F0ABFF08BD348202087497091010B504462146034800F09AFC0028F9D010BD00BF89
:403B400000006140054BD3F80833C3F30803002BF8D0024BD3F84003704700BF0000614008B5084B1B783BB9074A0021074801F0ABFF0122034B1A70044B01229A609A61D3
:403B800008BD00BF3402030898640910000038401F4B98422DD00CD840282ED003D8E8B1102828D02FE0802829D0B0F5807F28D029E0184B984228D006D8B0F1204F0DD02F
:403BC000154B984212D01EE0144B98420AD00133984209D0023B984215D101E0002070470F4870470F4870470F4870474FF4A0007047074870470D4870470D4870470D48C5
:403C00007047034870470C4870474FF4A400704706005200010000F0090000A0040000F0010052000200520003005200010050000200500005005200FF00520038B5124BAB
:403C40001B6893F83130012B04D840F2C3110F4801F0C8FE0C4B1D682A6AB5F8B03013442C46D5F8B420D358002B0BDB084B1868FFF78EFF6B6801229A6063689B68002BD7
:403C8000FBD138BD034838BDEC280408E464091038020308020050001A4B186128B102230370FF23437000234380174B1B6893F850202AB300B583B0B3F93830ADF8003053
:403CC000002301931149684601F02EFEBDF90030002B08DB590903F01F03012202FA03F30B4A42F82130084B1B6893F8513023B102220849012000F0F3FA03B05DF804FB58
:403D0000704700BF38020308EC2804083144020800E100E0E944020808B50248FFF7BCFF08BD00BF4C0203082DE9F04104460D46174698469DF81860072903D9D9213548ED
:403D400001F050FE37F00F0303D0DA21314801F049FEB8F1010F03D9DB212E4801F042FE36F01F0303D0DC212A4801F03BFE22680123AB4022EA030308F0010808FA05F8B5
:403D800043EA08032360244B1B6893F87D100B59A8000F22824023EA020207F00F0303FA00F717430F51072D04D94FF422711B4801F018FE36F01F0304D040F289211748CF
:403DC00001F010FE144B1B689A69A41AE4095B6924011919032D0DD81959ED001F22AA4021EA020206F01F0606FA05F515431D51BDE8F081043D4A68ED001F23AB4022EA61
:403E0000030306F01F0606FA05F51D434D60BDE8F08100BF24650910EC2804086465091038B50B4B1B68D3F8B4301B58002B0DDA0D4604460B0C1B0423B140F2D5210548CB
:403E400001F0D0FDA9B26160002038BD024838BDEC280408A465091001008A0038B50368002B01DA002300E0094B73B90D460446C2600B0C1B0423B140F2BB21054801F051
:403E8000B1FDA9B2A160002038BD014838BD00BF01008A00A465091038B504460D4619B99921084801F09EFD074B1B68D3F8B4301B59002B03DAE3682B60002038BD034811
:403EC00038BD00BFE4650910EC28040801008A00254B1B6893F8313083423AD900293AD00B6813F01F0F38D170B50D4604461E4B1B6893F83130984204D340F2C3111B48B6
:403F000001F070FD184B1B68186AB3F8B03004FB0304174E34602A68D208002168680FF017FA00212046FFF77BFF346825B940F293310E4801F056FD2A4600212046FFF7D6
:403F40008DFF60B900210A4B1868FFF769FF40B970BD084870470748704706487047064870BD054870BD00BFEC280408A46509105002030803018A0001018A0010B5044694
:403F80001346B2B9A9B9124B1B6893F83130984204D340F2C3110F4801F024FD0C4B1B681A6AB3F8B03004FB03240B4B1C60002010BD43B149B1084A51609360111D2046A9
:403FC000FFF786FF10BD054810BD044810BD00BFEC280408A46509105002030803018A002DE9F0411B4B1B68DC68236883422CD90D464609A0EB4610012303FA00F819B923
:4040000001F05BFD074600E00027124B18680368002B01DA002300E00F4B83B9626852F8263018EA030F05D023EA080342F82630002400E0094C0021FFF7F2FE00E0084C6D
:4040400025B9384601F03DFD00E0064C2046BDE8F08100BF5002030801008A00020188000301880004018A000B4B1B68DB681A6882420CD94109A0EB4110012202FA00F042
:404080005B6853F82130184203D004487047044870470448704700BF500203080101880004018A0000018800024B1B680BB9014B186070475C0203082DE9F84304468846CC
:4040C00091461D46089F2C4B1B681BB9B5212B4801F088FC284B1B682C2000FB04F01C18EEB21E50C5F3072363602D0CA560244B1B6893F831309E4204D340F2C3112148F9
:4041000001F070FC1E4B1B68196AB3F8B02006FB02162661666893F832309E4204D340F2DF11184801F05EFC154B1B681D6A803605EB46156561A668330C1B0423B14FF4A5
:40414000FF71104801F04EFC330C1B0423B140F2FF110C4801F046FCB3B243EA0646AE60C4F81C90C4F820800023A36117B1B7F90030A381BDE8F8835C0203082466091072
:40418000EC280408A4650910F0B58FB0044618B95221274801F026FCA369072B03D95621234801F01FFCE36A1BB95821204801F019FC236B1BB959211D4801F013FC07ADC4
:4041C00004F114060FCE0FC537682F6002AD26460FCE0FC533682B60164B1B68B3F93620079B1344ADF83030089B0D93A26AE16A0CAD00953B460A98FFF75EFF00210091EB
:40420000069B0A460598FFF757FF216B284601F08BFBBDF93030002B08DB590903F01F03012202FA03F3044A42F821300FB0F0BD24660910EC28040800E100E0F8B50646C1
:404240000F461D4614461AB9FD211F4801F0CAFB1E4B1B681BB9FE211B4801F0C3FB1B4B1B682C2101FB063001FB07314B68012202FA03F31B04466802FA06F60269EAB1FE
:404280008F69EFB91268002A01DA002200E0104AC2B92288134323600369DC6001238B614D620469330C1B0423B140F2BB21094801F098FBB2B2A2600020F8BD0648F8BD5E
:4042C0000648F8BD0548F8BD246609105C02030801008A00A465091004028A0007028A00F8B505460F4616460E4B1B6823B94FF4AF710D4801F076FB0A4B1B682C2404FB3B
:404300000534236A23B94FF4B171074801F06AFBE369B34204D9236A43F826700020F8BD0248F8BD5C020308246609100A028A0070B582B000230193044620B940F2D1119A
:40434000284801F04FFB236923B94FF4E971254801F048FB636923B940F2D311214801F041FB236A23B94FF4EA711E4801F03AFB6369DD682A0C20D012041A601B68206932
:40438000194B1B68D3F8B430C358002B15DA01A9FFF782FD60B9019803681E0CDBB2E269934206D2226A52F8233013B1984700E0002631462069FFF733FDADB275B16369FE
:4043C000ADB21D601B68636A1BB198470023636202E0A36A03B198470023A36163691B6802B070BD24660910EC28040810B50446074B1B6823B940F2B111064801F0F2FA85
:40440000034B1B682C2000FB0430FFF791FF10BD5C0203082466091010B4D0F8003303F00F03072B06D900230DE0D0F84043CC54013300E000239342F7D306E0D0F840437A
:4044400021F8134001339342F8D35DF8044B704710B51446D0F80833C3F308039A4200D31C462246FFF7D8FF204610BD036813F4006F01D0802200E04022D0F80832C3F3F7
:404480000803934203D0C0F84012012070470020704700BF10B4D0F8003203F00F03072B06D900230DE0CC5CC0F84042013300E000239342F7D306E031F81340C0F8404219
:4044C00001339342F8D35DF8044B704710B51446036813F4006F01D0802200E04022D0F80832C3F30803D31AA34200D81C462246FFF7D0FF204610BDF8B507460D46144602
:40450000D0F8006206F00F060BE0224629463846FFF7DCFF072E01D9430000E003461D44241A002CF1D1F8BD02E0C0F84012013A002AFAD1704700BF10B51446036813F455
:40454000006F01D0802200E04022D0F80832C3F30803D31AA34200D81C462246FFF7E4FF204610BD10B54A6841F201039A4231D1D0F80833C3F30803B3B10B6A43F0400335
:404580000B620B7873B1D0F8043343F48033C0F80433D0F8043323F48033C0F80433D0F8043301E0D0F840330B6A43F020030B620B6A23F010030B62036E23F420430366A8
:4045C0000023C0F8C83F0123C0F8C03FD0F8C03F202221E0D0F80832C3F30802D0F80832C3F3C03313440A6BD21A4A630A6A12F0080F05D1CA6A1A44CA628A6AD31A8B6233
:404600000B6A43F004030B620B6A23F001030B620023C0F8883F1022D0F84C4F40F201131C420DD0036823F00043036000238366C366036843F000430360036842F0400231
:404640004FF080534B604B6C0BB11046984710BDD0F80C3F13F0020F1DD00222C0F8002FD0F8002FD0F8002F12F0040F02D04FF4001001E04FF480108A6802438A604A683A
:40468000B2F5B81F07D00A7B12B14FF4C01201E04FF4B0124A6013F4807F03D08A6842F400028A6013F0010F03D08A6842F480028A6040F21112134202D04FF4C0134B6014
:4046C000704700BF0023C0F8C83FC0F8883F836E23B140F21713C0F8083F704740F21313C0F8083F182383664FF4B8134B60704738B5D0F80C4F036E23F48073036600230A
:40470000C0F8C83FC0F8883FC0F8083F40F21713C0F8003FD0F8003F8B6823F480338B604B7B13B18B69CB610BE08D69D0F80822C2F30802D0F80832C3F3C0331344EB1AF7
:40474000CB6140F201131C421BD0036E9B0F032B05D114F4827F14BF0123002300E001235BB1036823F00043036000238366C366036843F00043036003684FF080534B6067
:404780001BE00B7893B1D0F8043343F48033C0F80433D0F8043323F48033C0F80433D0F804330123C0F8C03FD0F8C03F0B7B0BB10B4B01E04FF080534B604A6C72B14B7B31
:4047C00013B14FF4802001E04FF400308B6813F0F87301D04FF400231843904738BD00BF000010100346002940DB11F0C00F06D0002181664FF0805050602F4844E011F486
:40480000807F36D111F0010F0ED050682B49884232D1196E11F0804F0CBF012100214FF08050506026482FE011F0020F06D050682249884223D10021224825E011F0100F70
:4048400005D04FF080515160002108461CE050681A49884216D1517B11B14FF4881101E04FF4A0115160002108460DE0012116480AE00121154807E00121114804E00021CF
:40488000134801E00021084679B1196821F00041196000219966D966196841F0004119601B684FF080535360704740F21712C3F8002FD3F8003F70470820AA000000131012
:4048C0000620AA000420AA000320AA000720AA000520AA00036853B110B50446012001F075F82368013B23601BB1002010BD002070474FF0004010BD70B505460C4691F83F
:40490000243013F0FF0F0ED1CB6A63B94B6C0BB108209847E36AB3FA83F35B0984F824300123C5F8883F94F8243013F0FF0F16D063783BB12B6813F4006F01D0802202E020
:40494000402200E00122FF212846FFF7F5FD236B18442063236A43F00803236270BDE26A012A11D963780BB1013A00E00122A16A2846FFF7ABFD236B03442363E36A1B1A48
:40498000E362A36A1844A062D5F80832C3F30803802B23D0E36A012B20D101F08EF8A36A1B78C5F840324026C5F8806FD5F8803F01F087F8236B013323630023E362A36A66
:4049C0000133A362C5F8886F63783BB1236A43F002032362636C0BB10420984770BD00BF38B54B68B3F5A81F03D14FF4C0134B6038BD4B68B3F5A01F4DD10C4605464A691E
:404A0000012A11D94B780BB1013A00E0012221692846FFF75BFDA3690344A36163691B1A6361236903442361D5F80832C3F30803802B14D06369012B11D101F03EF8236907
:404A40001B78C5F840324023C5F8803FD5F8803F01F037F8A3690133A361002363616369CBB9237B33B14023C5F8883F4FF4A813636005E00023C5F8883F4FF4B0136360EF
:404A8000637843B1A36843F40033A360636C13B14FF48030984738BD70B504460D468A6C82B3036813F4803F06D0D0F84C3F13F0400F03D0022002E0002000E00020236E34
:404AC00013F4006F06D1D4F84C3F13F0800300D001231843C0B190470123C4F8C03FD4F8C03F024648B91023C4F8403FD4F8403F40F2D113C4F8483F07E040F2C113C4F847
:404B0000483F02E0002200E00022D4F8043243F48033C4F80432D4F8043223F48033C4F80432D4F804320AB9012300E00223E366002A59D1666E06F010066B6C23B10EB177
:404B4000012000E0022098477EB141F202036B602B6A43F001032B626B6B2B63002385F824300123C4F8883F70BD41F201036B602B6A43F010032B620123C4F8C83F2B7888
:404B8000BBB1EB6BBBB1236E43F400532366ED6B802D05D9A5F18003802B0ED8813D0DE0013D236E43F4004323660023C4F8C83F04E0002502E0002500E03F25236813F44D
:404BC000006F01D0802300E040239D4204D34FF42071064800F006FFD4F8043323F0FF03EDB21D43C4F8045370BD00BF6466091038B54B68B3F5881F03D0B3F5901F1AD0C6
:404C000038BD0B69D0F840231A708B6901338B614B69013B4B612BB10B6901330B610423836638BD0B7B13B14FF4C01301E04FF4B0134B6038BD0C4605464A690969FFF712
:404C400007FCA3690344A36163691B1A6361226910442061012B24D82B6E23F480732B666369012B16D12B6813F4006F01D0802300E0402323B94FF42071184800F0B2FE0A
:404C8000D5F8043323F0FF03C5F804334FF48813636038BD0023C5F8C83F4FF4B013636038BD402B01D89C1E00E03F242B6813F4006F01D0802300E040239C4204D34FF4B3
:404CC0002071064800F08EFED5F8043323F0FF02E3B21343C5F8043338BD00BF6466091038B5CB6B002B50D00B78002B3FD00C460546D0F80423D2B20132896BFFF7A8FBD0
:404D0000236C03442364E36B1B1AE363A26B1044A063802B06D9A3F18002802A0FD8A3F181040DE02B6E43F400432B66E36B0BB15C1E00E000240023C5F8C83F00E03F245C
:404D40002B6813F4006F01D0802300E040239C4204D34FF42071104800F044FED5F8043323F0FF02E3B21343C5F8043338BD0123C3668A6B0B6CD0F84003D0540B6C0133E1
:404D80000B64CB6B013BCB6338BD0223C3660023C0F8C83F38BD00BF64660910F8B50B78012B03D00C7A1CB9002702E0002700E00127002800F0A780002900F0A680002ABE
:404DC00000F0A58016460C460546013BDBB2022B03D94F214F4800F005FE637803B163791BB150214B4800F0FDFD94F90330002B03DA5121474800F0F5FD237913F0010F5A
:404E000003D05221434800F0EDFD2369102B03D95321404800F0E6FDE368102B03D954213C4800F0DFFD637913B14FF4803100E00021E27912B14FF4807300E000230B43F4
:404E400043F400632B60A37913B94FF4006300E000232269013A02F00F021A43E368013B1B01DBB21343227843EA82732B6617B140F2073301E040F20713C5F800330FB172
:404E8000254B00E0254B2B6763780BB17F2300E00023C5F80433E3785B00DBB2227943EA0243C5F810331E4BC5F80032A3780BB1402300E00123C5F804320023C5F8C83EB1
:404EC000C5F8883EC5F8C83FC5F8883FC5F8083F2378022B02D040F2D11300E00023C5F8483F63783370A37873704FF0805373600020B060B06130623064F0633063F062EC
:404F00007064B064F8BD0748F8BD0648F8BD0548F8BD00BFA866091003002A0013102A00070101000120AA0038B505460C4621B940F2C321194800F055FD2B6E9B0F012B0B
:404F400017D1174B2344174A93421ED9A4F5BD13A3F5D66302F5611202F56162934216D9A4F57104A4F533440F4B9C4211D80F4838BD84B1286EC0F303102B6E03F00F0377
:404F800018440230B4FBF0F038BD094838BD094838BD002038BD002038BD00BFA866091020AD88FF405B730040555C0440420F00801A0600A08601002DE9F8430746884628
:404FC000914622B940F21221624800F00BFD08F1FF34614B9C4204D940F213215D4800F001FD3B6E9B0F012B0DD149463846FFF79BFF0546D7F8003323F40073C7F80033A9
:40500000564B3B67A2E0544B9C421FD8544B984509D8A9F5BD13A3F5D663524A934218D90021012328E0504B984507D84F4B4B444F4A934213D9002101231DE04D4B4B44A9
:405040004D4A934212D90021012315E00021012312E0002141F288352E460B460CE000214FF461754FF4C8660B4605E001214FF4BE754FF41B760023002B66D13F4BB3FB9C
:40508000F9F3B6FBF3F404FB03F2964200D90134102C00D910240F2C8CBF00220122B5FBF3F606FB03F39D4200D90136102E00D91026A519B9FBF5F50FE022B10F2C09D878
:4050C0000134002206E00F2E04D801360F2C8CBF00220122A519B9FBF5F5454502D9A3191F2BEAD941B1D7F8003343F40073C7F80033234B3B6707E0D7F8003323F40073BB
:40510000C7F80033154B3B67E31F092B04D940F283511C4800F066FC3B6E23F0F003013C2401E4B223433B66731F0B2B04D94FF4B461144800F056FC3B6E23F00F03013E56
:4051400006F00F061E433E6600E000252846BDE8F88300BFA86609103F420F0013102A00A0860100502D1900801A060020AD88FFA0432100807E25FFC02BAF0000CA9A3BB9
:4051800003002A00E86609102DE9F04182B005460C4617469846089E11F0800F04D04FF4D961314800F01EFC304B984504D940F2C9612D4800F016FC012F04D940F2CA618E
:4051C000294800F00FFC0023C5F8483F7368B3F1805F41D14FF47A7303FB08F30193244B7360012F14BF00230123737340F21713C5F8003FD5F8003F0423C5F8C03FD5F829
:40520000C03FD5F8043243F48033C5F80432D5F8043223F48033C5F80432D5F804326400E4B23C43C5F840420223AB66D5F8004F24F0F804E405E40DD5F8403F03F0C003D6
:405240001C4301A8FFF746FB54EA0001EED032462846FFF7C7FA00E0064840F2D113C5F8483F02B0BDE8F081A866091037894100000013100220AA002DE9F04182B005462A
:405280000F4614469846089E11F0800F04D040F229712A4800F0A6FB294B984504D940F22A71264800F09EFB012C04D940F22B71224800F097FB736813F4801F39D04FF405
:4052C0007A7303FB08F301931E4B7360012C14BF0023012373736B6E13F0200F01D0092300E00123AB666B6E13F0200F05D0002009E001A8FFF7EEFA00E0002018B9AB6E54
:4053000013F0010FF5D170B97F00FFB23C43C5F84042D5F8000F40F20714044001A8FFF7D9FA2043F5D0324601462846FFF75AFA00E0054802B0BDE8F08100BFA866091024
:4053400037894100000013100220AA0070B582B005460C461646134B994204D940F28C71114800F03FFB736813F4801F17D04FF47A7303FB04F401941823AB66D5F8004F9A
:4053800024F0EE04E405E40D01A8FFF7A3FA54EA0001F3D032462846FFF724FA00E0034802B070BD37894100A86609100220AA002DE9F04383B0074688461C460A9D914660
:4053C00022B94FF4FB61244800F00CFB234B9C4204D940F2D971204800F004FBB8F1010F04D940F2DA711C4800F0FCFA6B68B3F5881F2BD14FF47A7303FB04F40194D7F8CF
:40540000C06F06F00406D7F8001F40F201140C4001A8FFF75FFA44EA00010EB90029EED046B1D7F8403389F800300523C7F8C03FD7F8C03F2A463846FFF7D4F9034630B966
:40544000B8F1000F03D10422BA6600E0044B184603B0BDE8F08300BFA8660910378941000220AA00F0B583B005460F4614461E46134B9A4204D940F63201124800F0B2FAA3
:405480007368B3F5A01F17D14FF47A7303FB04F40194C5F84072D5F8004F24F0F804E405E40D01A8FFF716FA54EA0001F3D032462846FFF797F900E0034803B0F0BD00BF2B
:4054C00037894100A86609100220AA0070B504460E46D0F88C3E13F0010F07D04FF480534B600123C0F8803ED0F8803ED4F84C5F40F201131D420FD0336A15F4807F02D026
:405500004FF4807200E08022134333620023C4F8C83F45F010050EE015F0100F0BD0D4F80833C3F3080333B1F36B23B10123C4F8C43FC4F8C83FD4F8CC3F13F0010F08D066
:4055400031462046FFF7CCFB0123C4F8C03FD4F8C03F15F0100F0AD031462046FFF702F81023C4F8403FD4F8403FD4F84C5F15F0C00F0DD031462046FFF78EFA0123C4F800
:40558000803ED4F8803EC023C4F8403FD4F8403FD4F88C3F13F0410F08D031462046FFF7ABF90123C4F8803FD4F8803F70BD00BF70B506460D46D0F8004E14F0020F0AD022
:4055C000836E2BB1002383668B6843F080738B604FF4C0136B6014F0010F05D029463046FFF736F824F0040414F0080F08D029463046FFF7FDFA0123C6F8C03FD6F8C03F6C
:4056000014F0040F08D029463046FFF7E9F90123C6F8803FD6F8803F6B68B3F5C01F03D129463046FFF764F86B68B3F5B01F03D129463046FFF746F870BD00BF08B54B6898
:4056400013F4801F02D0FFF7B3FF08BDFFF73EFF08BD00BF002800F02481F8B50546002900F0218117460C460B78012B03D93F218F4800F0B7F96378012B07D9052B05D021
:40568000022B03D040218A4800F0ACF9A378032B03D94121864800F0A5F92378012B07D16368023B0E2B03D94321814800F09AF9A36933F00F0303D044217D4800F092F91A
:4056C000A368043B0C2B03D94521794800F08AF9E368043B0C2B03D94621754800F082F96378022B07D0A268E3689A4203D047216F4800F077F9636A33F06D0303D0492188
:405700006B4800F06FF9E36A33F0730303D04A21674800F067F9236B33F4206303D04B21634800F05FF96378A678052B07D8DFE803F0060305060603022600E00026A368B9
:40574000082B04D8E368082B03D9002302E0002300E0012313B14FF4006200E00022237F13B14FF4807300E000231A436368013B03F00F03134343F080732B60226A2B68FB
:4057800013F4006F01D0802300E040239A4203D35821474800F026F9A26A2B6813F4006F01D0802300E040239A4203D35921404800F018F9237D0BB9012100E00021627811
:4057C000052A01D1022300E000230B43E17C09B1102100E000210B43617C09B1202100E000210B432178012902D14FF0004100E000210B43B60006F00C063343A1690902C6
:4058000001F470610B43120602F0407213432B62237C13B14FF4807200E00022A37C13B14FF4007300E000231A43A368013B03F00F031343C5F8003394F82030C5F80433C0
:40584000237C13B14FF4807200E00022E368013B03F00F031343C5F8003294F82830C5F80432636A03F06D03C5F8C83FE36A03F07303C5F8883F236B03F40073C5F8003FC4
:40588000236B03F40063C5F8403F0023C5F8C83E5FB118463B60BB61FB60FB61054B3B62F8BD054870470448F8BD0020F8BD00BF28670910EFCDAB000140AA00036823F04F
:4058C0000043036019B100220A60CA608A61036A002B04DB0023C0F8C83FC0F8883F704738B50D4B9A680D4B9A420FD10D46044621B940F237110A4800F074F804F1100306
:40590000064A52F8230042F8235038BD1030054B53F8200038BD00BF00ED00E000400208686709100000081048B338B504460D464368072B03D93221134800F053F8B4F96E
:4059400000306268002B08DB5201D2B203F1604303F5614383F8002305E003F00F035201D2B20A49CA540A4B9A680A4B9A4208D12946B4F90000FFF7B3FF002038BD0648BD
:405980007047002038BD00BF6867091014ED00E000ED00E0004002080100560010B5044605E0084B186800F07FF8A4F50044B4F5004FF6D8044B186800FB04F000F074F83A
:4059C00010BD00BFA8420208A442020808B5034B1B7800FB03F000F067F808BDA042020801BEFEE738B50D46044C1822014620460EF07BF9A5610020FFF7F2FF604902085E
:405A0000FEE700BF08B50268254BDA6142681A6282685A62C2689A620269DA6242691A6382695A63C2699A631E4A916AD963D16A1964516A5964516B9964926BDA64F1EEBD
:405A4000103A13F0900F27D0026A154B1A65426A5A65826A9A65C26ADA65026B1A66426B5A66826B9A66C26BDA66026C1A67426C5A67826C9A67C26CDA67026DC3F88020FD
:405A8000426DC3F88420826DC3F88820C26DC3F88C20026EC3F89020FFF7B2FF08BD00BF6049020800ED00E00230800803D001300238FCD100BF00BF7047EFF3108072B6D6
:405AC000704780F31088704700287DD00346002A7CD070B45068000280B29568AD0405F480252843D468240404F4403404431069000600F0E0602043147F0CB1012400E0B4
:405B0000002420430C1DA4011851D06828B903EB81100024C0F808410CE0012805D1146803EB8110C0F8084104E003EB81100124C0F80841106938B9546903EB8110C0F81C
:405B40000C419469C0F81041146803EB8110C0F81441906CB0F1FF3F17D0946A04F00F04166B360206F470663443956B2D0405F470252543146C2403A4B22C430001C0B2FD
:405B8000204303EB8114C4F82001506A00F00300D66A360106F030063043556B2D0205F440752843D46BA401E4B20443506C800000F00C00204303EB8113C3F82401126A1D
:405BC000C3F83821002003E0024870470148704770BC70470100B600002800F0AC8070B40446002A00F0A98092F828300BB1012500E00025137F0BB1022300E000231D435F
:405C00001669B60406F4802645EA060395682D0405F440351D431668300600F0E0602843136B556B43EA45031B0503F440130343906B43EA8000052E03D1D3681B029BB251
:405C400002E053681B029BB20343081D800123501368062B08D104EB81130120C3F808013F20C3F828011DE0936843B904EB81130020C3F808013120C3F8280112E0012BE0
:405C800008D1506904EB8113C3F808011C20C3F8280107E004EB81130120C3F808011220C3F82801106A04EB8113C3F80C01506AC3F810015069C3F814019069C3F81801E5
:405CC000136EB3F1FF3F17D0106C00F00F00966C360206F470663043156D2D0405F470250543906D000380B228431B01DBB2034304EB8110C0F82031D36B03F00303566CCB
:405D0000360106F030063343D56C2D0205F440752B43506D8001C0B21843D36D9B0003F00C03034304EB8114C4F82431D36AC4F83831002002E002487047014870BC7047AA
:405D40000100B600014B1860704700BFEC28040800F1080343604FF0FF328260C360036100230360704700BF00230361704700BF43684B609A688A609A685160996008614A
:405D8000036801330360704730B40D68B5F1FF3F01D1026907E000F1080200E01A4653681C68A542FAD253684B6099608A605160086103680133036030BC7047036942687E
:405DC000816891608268416851605A68904201D182685A60002202611A68013A1A601868704700BF436A23B1036B1868C0F1070070470020704700BF10B5044601F0FAFB60
:405E0000A26BE36B9A4201D1012400E0002401F013FC204610BD00BF10B5044601F0EAFBA36B0BB9012400E0002401F005FC204610BD00BF70B504461646856B026C3AB95E
:405E4000036843BB406801F0E5F80023636029E06EB980680DF056FAA268236C1344A3606268934219D32368A36000201AE0C0680DF048FA236C5B42E2681A44E2602168CC
:405E80008A4202D262681344E360022E07D145B1013D002006E0002004E0002002E0002000E000200135A56370BD00BF026C72B110B50346C4681444C4604068844201D3C3
:405EC0001868D8600846D9680DF01CFA10BD704738B5054601F08EFB95F8454064B20AE06B6A53B105F1240000F094FF08B101F01FF8013C64B2002CF2DCFF2385F8453068
:405F000001F09AFB01F076FB95F8444064B20AE02B6953B105F1100000F07CFF08B101F007F8013C64B2002CF2DCFF2385F8443001F082FB38BD00BF38B540B94FF03F03CD
:405F400083F31188BFF36F8FBFF34F8FFEE704460D4601F04FFB2168E26B236C03FB021060600020A063A160013A02FB0313E360FF2384F8443084F845307DB92369ABB10A
:405F800004F1100000F046FF80B14FF08052094B1A60BFF34F8FBFF36F8F07E004F11000FFF7D6FE04F12400FFF7D2FE01F044FB012038BD04ED00E010B5029B0C4609B935
:405FC0001B6000E01A60D8631C6401211846FFF7B3FF10BD40B94FF03F0383F31188BFF36F8FBFF34F8FFEE7F0B583B0034611B101FB00F000E000201D4617460C46483015
:4060000001F092FC064638B100903B4600F1480221462846FFF7D0FF304603B0F0BD00BFF0B585B0019240B94FF03F0383F31188BFF36F8FBFF34F8FFEE7044619B9026C8C
:406040001AB9012202E0012200E0002242B94FF03F0383F31188BFF36F8FBFF34F8FFEE7022B03D1E26B012A02D102E0012200E0002242B94FF03F0383F31188BFF36F8FE5
:40608000BFF34F8FFEE71D460E4600F05FFF18B9019B1BB9012302E0012300E0002343B94FF03F0383F31188BFF36F8FBFF34F8FFEE7002701F09EFAA26BE36B9A4201D38C
:4060C000022D21D12A4631462046FFF7B3FE636A6BB104F1240000F09DFE88B14FF08052324B1A60BFF34F8FBFF36F8F08E038B14FF080522D4B1A60BFF34F8FBFF36F8F69
:4061000001F09AFA01204EE0019B1BB901F094FA002048E01FB902A800F0C0FE012701F08BFA00F0ADFC01F065FA94F844305BB2B3F1FF3F02D1002384F8443094F84530C7
:406140005BB2B3F1FF3F02D1002384F8453001F073FA01A902A800F0ABFEF0B92046FFF74BFEA0B1019904F1100000F01BFE2046FFF7AEFE00F012FD00289BD14FF080520B
:406180000A4B1A60BFF34F8FBFF36F8F92E72046FFF79EFE00F002FD8CE72046FFF798FE00F0FCFC002005B0F0BD00BF04ED00E048B108B5002141600160C1600B460A4676
:4061C000FFF72EFF08BD704710B5024600210120FFF700FF0446FFF7EBFF204610BD00BF2DE9F84340B94FF03F0383F31188BFF36F8FBFF34F8FFEE7044619B9006C18B948
:40620000012002E0012000E0002040B94FF03F0383F31188BFF36F8FBFF34F8FFEE7022B03D1E06B012802D102E0012000E0002040B94FF03F0383F31188BFF36F8FBFF356
:406240004F8FFEE71F469046894601F0D7FAEFF311864FF03F0383F31188BFF36F8FBFF34F8FA26BE36B9A4201D3022F1ED194F845506DB23A4649462046FFF7DBFDB5F1F2
:40628000FF3F0DD1636A9BB104F1240000F0C2FD80B1B8F1000F0FD00120C8F800000CE06B1C5BB284F84530012006E0002004E0012002E0012000E0012086F31188BDE8E0
:4062C000F88300BF40B94FF03F0383F31188BFF36F8FBFF34F8FFEE770B50446036C43B14FF03F0383F31188BFF36F8FBFF34F8FFEE703681BB943681BB9012302E0012347
:4063000000E0002343B94FF03F0383F31188BFF36F8FBFF34F8FFEE70E4601F06FFAEFF311854FF03F0383F31188BFF36F8FBFF34F8FA26BE36B9A4218D294F845305BB284
:406340000132A263B3F1FF3F0AD1636A83B104F1240000F05FFD68B176B1012030600CE001335BB284F84530012006E0002004E0012002E0012000E0012085F3118870BD45
:40638000F0B585B0019240B94FF03F0383F31188BFF36F8FBFF34F8FFEE7044619B9036C1BB9012302E0012300E0002343B94FF03F0383F31188BFF36F8FBFF34F8FFEE785
:4063C0000E4600F0C3FD18B9019B1BB9012302E0012300E0002343B94FF03F0383F31188BFF36F8FBFF34F8FFEE7002701F002F9A56BC5B131462046FFF758FD013DA56373
:40640000236963B104F1100000F004FD38B14FF08052304B1A60BFF34F8FBFF36F8F01F00BF9012053E0019B1BB901F005F900204DE01FB902A800F031FD012701F0FCF8F5
:4064400000F01EFB01F0D6F894F844305BB2B3F1FF3F02D1002384F8443094F845305BB2B3F1FF3F02D1002384F8453001F0E4F801A902A800F01CFDF0B92046FFF7CCFCB1
:40648000A0B1019904F1240000F08CFC2046FFF71FFD00F083FB0028A8D14FF080520D4B1A60BFF34F8FBFF36F8F9FE72046FFF70FFD00F073FB99E72046FFF709FD00F098
:4064C0006DFB2046FFF7A8FC00288FD0002005B0F0BD00BF04ED00E070B584B0019140B94FF03F0383F31188BFF36F8FBFF34F8FFEE70446036C43B14FF03F0383F31188C5
:40650000BFF36F8FBFF34F8FFEE700F01FFD18B9019B1BB9012302E0012300E0002343B94FF03F0383F31188BFF36F8FBFF34F8FFEE700252E4601F05DF8A36BCBB1013B66
:40654000A363236813B900F005FE6060236963B104F1100000F05EFC38B14FF08052414B1A60BFF34F8FBFF36F8F01F065F8012076E0019B6BB945B14FF03F0383F31188D1
:40658000BFF36F8FBFF34F8FFEE701F055F8002066E01EB902A800F081FC012601F04CF800F06EFA01F026F894F844305BB2B3F1FF3F02D1002384F8443094F845305BB27E
:4065C000B3F1FF3F02D1002384F8453001F034F801A902A800F06CFC40BB2046FFF71CFCF0B123683BB901F005F8606800F0BEFC054601F021F8019904F1240000F0D2FB55
:406600002046FFF765FC00F0C9FA002893D14FF08052144B1A60BFF34F8FBFF36F8F8AE72046FFF755FC00F0B9FA84E72046FFF74FFC00F0B3FA2046FFF7EEFB00283FF424
:406640007AAF65B100F0D6FF2046FFF7CBFB0146606800F029FD00F0EFFF002000E0002004B070BD04ED00E000230BE0074A52F8332032B9054A42F8331002EBC303586001
:4066800070470133092BF1D9704700BFF028040870B504460D46164600F0ACFF94F844305BB2B3F1FF3F02D1002384F8443094F845305BB2B3F1FF3F02D1002384F84530F2
:4066C00000F0BAFFA36B2BB93246294604F1240000F082FB2046FFF7FBFB70BD094B9B6A1B680BB9012300E0002323B14FF0FF32044BDA627047034B9A6AD268D268526846
:40670000DA6270479C02030810B50446006B01F091F9204601F08EF910BD00BF2DE9F04780460D4616469946DDF820A0099F0A9C9200A521206B0CF00BFE236B06F18042AB
:40674000013A03EB820626F00706002306E0E95CE21882F83410EA5C12B101330F2BF6D9002384F84330BAF1060F01D94FF0060AC4F82CA0C4F844A00025A564201DFFF775
:40678000F3FA04F11800FFF7EFFA2461CAF10703A36164622B4606E003F1120204EB8202002151600133042BF6D90023236684F864304A464146304600F0EEFE206007B1B9
:4067C0003C60BDE8F08700BF70B5002407E004EB8402930010481844FFF7BAFA0134062CF5D90E4C04F1BC063046FFF7B1FA04F1D0052846FFF7ACFA04F11400FFF7A8FABA
:4068000004F1E400FFF7A4FA2046FFF7A1FAA662C4F8F85070BD00BFCC0203089C02030838B5044600F0E6FE264BD3F8FC200132C3F8FC20D3F800314BB9224BC3F80041A4
:40684000D3F8FC30012B10D1FFF7BEFF0DE01D4BD3F804314BB91B4BD3F80031DA6AE36A9A4202D8174BC3F80041164AD2F808310133C2F80831E36AD2F80C21934202D983
:40688000104AC2F80C310F4D05F1300003EB83039A00211D1044FFF76BFA00F0CDFED5F804316BB1D5F80031DA6AE36A9A4207D24FF08052044B1A60BFF34F8FBFF36F8FD3
:4068C00038BD00BF9C02030804ED00E038B517E000F090FE0D4CD4F8F030DD68281DFFF76DFAD4F8FC30013BC4F8FC30D4F81031013BC4F8103100F09FFE2846FFF704FF86
:40690000024BD3F81031002BE2D138BD9C02030808B5FFF7DBFF064B1B6B012BF9D94FF08052044B1A60BFF34F8FBFF36F8FF0E79C02030804ED00E070B504460E46174B90
:40694000D3F81451D3F800010430FFF737FAB4F1FF3F07D136B11148D0F800110431FFF707FA70BD2C440D4BD3F800315C60A54208D90A4BD3F8F800D3F800110431FFF72C
:4069800003FA70BD054DA86AD5F800110431FFF7FBF9EB6A9C4200D2EC6270BD9C0203082DE9F04385B006460F4615469846900000F0BAFF60B18146682000F0B5FF044644
:4069C00010B1C0F8309004E0484601F033F800E000248CB10023039302940D9B01930C9B009343462A4639463046FFF797FE2046FFF716FF012001E04FF0FF3005B0BDE816
:406A0000F08300BF00B583B0194B019300230093802218491848FFF7C3FF012801D100F0FFFB012814D14FF03F0383F31188BFF36F8FBFF34F8F114B4FF0FF32DA62012285
:406A4000C3F804210022C3F8142100F075FE0BE0B0F1FF3F08D14FF03F0383F31188BFF36F8FBFF34F8FFEE703B05DF804FB00BFB80303081C690910116908109C02030804
:406A8000034AD2F818310133C2F81831704700BF9C020308014BD3F8140170479C0203082DE9F0413C4BD3F81831002B65D13A4BD3F814410134C3F81441CCB99B6A1B685A
:406AC00043B14FF03F0383F31188BFF36F8FBFF34F8FFEE7304B9A6AD3F8F8109962C3F8F820D3F820210132C3F82021FFF7F6FD294BDB6A9C4203D2002645E0012600E0EB
:406B00000026254B9B6A1B680BB9012300E0002323B14FF0FF32204BDA6235E01E4B9B6ADB68DD686B689C4202D21B4AD3622BE005F104084046FFF741F9AB6A1BB105F19D
:406B40001800FFF73BF9EB6A134AD2F80C21934202D9114AC2F80C310F4F07F1300003EB83039A0041461044FFF702F9EA6AD7F80031DB6A9A42C1D2C3E7074AD2F82431A6
:406B80000133C2F824310026034BD3F8283103B101263046BDE8F0819C020308394BD3F8183143B94FF03F0383F31188BFF36F8FBFF34F8FFEE770B500F01CFD314BD3F82C
:406BC0001821013AC3F81821D3F81831002B52D12C4BD3F8FC303BBB00244FE0294D2B6ADC6804F11800FFF7E9F8261D3046FFF7E5F8E36AD5F80C21934201D9C5F80C3165
:406C0000204D05F1300003EB83039A0031461044FFF7AEF8E26AD5F80031DB6A9A4204D30122C5F8282100E00024164B5B69002BD4D10CB1FFF752FD124BD3F8244164B144
:406C4000FFF72EFF18B101220E4BC3F82821013CF6D100220B4BC3F824210A4BD3F828315BB14FF08052084B1A60BFF34F8FBFF36F8F012402E0002400E0002400F0DCFC92
:406C8000204670BD9C02030804ED00E010B5B0B10446104BD3F8183143B14FF03F0383F31188BFF36F8FBFF34F8FFEE7FFF7E8FE00212046FFF740FEFFF770FF00E0002043
:406CC00038B94FF08052044B1A60BFF34F8FBFF36F8F10BD9C02030804ED00E0304BD3F8183123B101222E4BC3F82821704710B52B4B0022C3F82821D3F800311B6B1A6823
:406D0000B2F1A53F0BD15A68B2F1A53F07D19A68B2F1A53F03D1DB68B3F1A53F07D0204BD3F80001D3F80011343100F093FD1C4BD3F80C310AE043B94FF03F0383F31188F3
:406D4000BFF36F8FBFF34F8FFEE7013B03EB83018A0013490A44126B002AECD008469900CC18A2000244546B64685463303019448A0008320244944206D1606803EB830106
:406D80008A0007490A445063054903EB830082000A44526BD268C1F80021C1F80C3110BD9C02030840B94FF03F0383F31188BFF36F8FBFF34F8FFEE710B50C46054BD3F84C
:406DC00000111831FEF7E0FF01212046FFF7B4FD10BD00BF9C02030838B540B94FF03F0383F31188BFF36F8FBFF34F8FFEE70C461546074AD2F800111831FEF7B9FF0DB1D9
:406E00004FF0FF3429462046FFF796FD38BD00BF9C02030838B5C368DC6844B94FF03F0383F31188BFF36F8FBFF34F8FFEE704F118052846FEF7C2FF154BD3F81831ABB909
:406E4000251D2846FEF7BAFFE36A114AD2F80C21934202D90E4AC2F80C3103EB83039A0029460C481044FEF783FF03E029460A48FEF77EFFE26A064BD3F80031DB6A9A42AA
:406E800004D90120024BC3F8280138BD002038BD9C020308CC020308B0020308034BD3F820210260D3F81431436070479C020308F8B540B94FF03F0383F31188BFF36F8FA5
:406EC000BFF34F8FFEE7054641B94FF03F0383F31188BFF36F8FBFF34F8FFEE70C4600F089FB124BD3F814016968421A2368B3F1FF3F14D02F680D4ED6F82061B74201D097
:406F000088420ED29A4206D29B1A23602846FFF7C5FF002406E000232360012402E0002400E0012400F088FB2046F8BD9C0203080122024BC3F82821704700BF9C020308E9
:406F4000014BD3F8000170479C020308064BD3F804312BB1044BD3F818311BB90220704701207047002070479C020308002849D038B50346C26A2549D1F80011C96A8A421A
:406F800037D28169002906DB2049D1F80011C96AC1F107018161586902EB820291001C4A1144884201D1012200E00022D2B11D461C1D2046FEF702FF144AD2F80031DB6A6A
:406FC000EB62D2F80C21934202D9104AC2F80C3103EB83039A0021460D481044FEF7C8FE012038BD094AD2F80021D26ADA62012038BD426C054BD3F80031DB6A9A4203D3A0
:40700000002038BD00207047012038BD9C020308CC02030800283DD038B50346204AD2F80021904208D04FF03F0383F31188BFF36F8FBFF34F8FFEE7826C42B94FF03F0343
:4070400083F31188BFF36F8FBFF34F8FFEE7013A8264C06A596C88421ED0FAB91C461D1D2846FEF7ABFE636CE362C3F10702A2610B4AD2F80C21934202D9094AC2F80C319F
:4070800003EB83039A00294606481044FEF770FE012038BD00207047002038BD002038BD9C020308CC02030800284DD038B50346806C40B94FF03F0383F31188BFF36F8F15
:4070C000BFF34F8FFEE75A6C8A4200D20A46D96A8A4238D0012836D11C48D0F80001834208D14FF03F0383F31188BFF36F8FBFF34F8FFEE7DA629869002802DBC2F10702A2
:407100009A61586901EB81018A0011490A44904201D1012200E00022AAB11C461D1D2846FEF74CFEE36A094AD2F80C21934202D9064AC2F80C3103EB83039A00294604482F
:407140001044FEF715FE38BD704700BF9C020308CC020308064BD3F800312BB1044BD3F80021936C01339364014BD3F8000170479C020308064B1A681368B3FA83F35B09EB
:40718000036013B9D368186870470020704700BFC803030808B54160006191420AD8D21A83699A4211D2011D0A4B5868FEF7ECFD002008BD9A4201D2994208D2011D054BEF
:4071C0001868FEF7E1FD002008BD012008BD012008BD00BFC803030870B500F00BFA0E4B9B68B3B90C4C04F10C063046FEF7B0FD04F120052846FEF7ABFD2660656000220B
:407200000C210A20FEF7E6FEA06010B10349FFF72BFA00F011FA70BDC80303082469091000B583B0FFF7D8FF0D4B9B6853B10D4B019303230093002380220B490B48FFF737
