:020000041008E2
:4000000000780408EB0208100D00000051030810510308105103081051030810000000000000000000000000000000004D0308104D030810000000004D0308104D030810DA
:400040004D0308104D0308104D0308104D0308104D0308104D0308104D0308104D0308104D0308104D0308104D0308104D0308104D0308104D0308104D0308104D03081000
:400080004D0308104D0308104D0308104D0308104D0308104D0308104D0308104D0308104D0308104D0308104D0308104D0308104D0308104D0308104D0308104D030810C0
:4000C0004D0308104D0308104D0308104D0308104D0308104D0308104D0308104D0308104D0308104D0308104D0308104D0308104D0308104D0308104D0308104D03081080
:400100004D0308104D0308104D0308104D0308104D0308104D0308104D0308104D0308104D0308104D0308104D0308104D0308104D0308104D0308104D0308104D0308103F
:400140004D0308104D0308104D0308104D0308104D0308104D0308104D0308104D0308104D0308104D0308104D0308104D0308104D0308104D0308104D0308104D030810FF
:400180004D0308104D0308104D0308104D0308104D0308104D0308104D0308104D0308104D0308104D0308104D0308104D0308104D0308104D0308104D0308104D030810BF
:4001C0004D0308104D0308104D0308104D0308104D0308104D0308104D0308104D0308104D0308104D0308104D0308104D0308104D0308104D0308104D0308104D0308107F
:400200004D0308104D0308104D0308104D0308104D0308104D0308104D0308104D0308104D0308104D0308104D0308104D0308104D0308104D0308104D0308104D0308103E
:400240004D0308104D0308104D0308104D0308104D0308104D0308104D0308104D0308104D0308104D0308104D0308104D0308104D0308104D0308104D0308104D030810FE
:400280004D0308104D0308104D03081010B5054C237833B9044B13B10448AFF300800123237010BDE448020800000000DC1B0810084B10B51BB108490848AFF30080084828
:4002C000036803B910BD074B002BFBD0BDE81040184700BF00000000E8480208DC1B0810B4420208000000007047FFF7FDFF72B6104C114DAC4209DA21686268A368043B6D
:40030000A2BFC858D050FAE70C34F3E70B490C4A00209142BCBF41F8040BFAE709480A490860BFF34F8F00F021F900F0FBF800F01DF8FEE7E01B0810F81B0810E4480208F9
:40034000244B02080040020808ED00E0FEE7FEE700B504207146084202D0EFF3098001E0EFF30880043000F077FDFEE708B562B601F0DCF900F01EF900F01AF900F00AF9A4
:40038000FCE700BF08B5012000F0C8FC08BD00BF704700BF5C4AD2F8803303F00F0303F1D00152F8212002F00702032A04D0042A05D092B9554914E0554A116811E003F1BE
:4003C000C002514951F8222002F01F02112A06D0132A04D04FF4FA4103E04E4901E04FF400418BBB484BD3F8902502F00100D3F88825C2F30172D3F8883513F0405F07D097
:40040000414BD3F88835C3F30173012B02D102E0012300E0002303B108B9032A46D13A48D0F88025C2F31103D0F88425C2F30C02D0F88005C0F300600130B1FBF2F202FBB3
:4004400003F2B2FBF0F131E0012B2FD12E4BD3F8402602F00100D3F80026C2F30172D3F8003613F0405F07D0274BD3F80036C3F30173012B02D102E0012300E0002303B133
:4004800008B9032A12D12048D0F8002602F07F02D0F80036C3F30423D0F80006C0F3044002FB01F2B2FBF3F2B2FBF0F1164BD3F88033C3F3011321FA03F215494A601648D3
:4004C000D0F89030C3F3072301330069000E0130B2FBF0F08860B2FBF3F3CB600B6103F5742202F23F220D48A0FB0202C2F387420A7503F2E7330A4AA2FB03239B098B618F
:40050000DB03CB61704700BF0000264000127A008C42020800366E010000214083DE1B43D34D621008B50D4800F0FAFCFFF730FFFFF730FF00221146042000F0B7F908484B
:4005400000F04AFA074B1B6893F8513013B1064800F0B2FA00F0F4F808BD00BF201A081000490208E84A0208E017081008B500F0D0FC074AD2F8883043F47003C2F8883000
:40058000BFF34F8FBFF36F8F00F0C7FC08BD00BF00ED00E008B54FF47A7000F033FC0249024800F01FFD08BD1418081000006640704700BF704700BF1F4B98422DD00CD88D
:4005C00040282ED003D8E8B1102828D02FE0802829D0B0F5807F28D029E0184B984228D006D8B0F1204F0DD0154B984212D01EE0144B98420AD00133984209D0023B984271
:4006000015D101E0002070470F4870470F4870470F4870474FF4A0007047074870470D4870470D4870470D487047034870470C4870474FF4A400704706005200010000F03A
:40064000090000A0040000F0010052000200520003005200010050000200500005005200FF00520038B5124B1B6893F83130012B04D840F2C3110F4800F0DEFB0C4B1D68D3
:400680002A6AB5F8B03013442C46D5F8B420D358002B0BDB084B1868FFF78EFF6B6801229A6063689B68002BFBD138BD034838BDE84A020824180810804A0208020050007D
:4006C0001A4B186128B102230370FF23437000234380174B1B6893F850202AB300B583B0B3F93830ADF80030002301931149684600F04EFBBDF90030002B08DB590903F021
:400700001F03012202FA03F30B4A42F82130084B1B6893F8513023B102220849012000F077FA03B05DF804FB704700BF804A0208E84A02082543020800E100E0DD4302080B
:4007400008B50248FFF7BCFF08BD00BF944A020838B50B4B1B68D3F8B4301B58002B0DDA0D4604460B0C1B0423B140F2D521054800F062FBA9B26160002038BD024838BD82
:40078000E84A02086418081001008A0038B50368002B01DA002300E0094B73B90D460446C2600B0C1B0423B140F2BB21054800F043FBA9B2A160002038BD014838BD00BF3D
:4007C00001008A006418081038B504460D4619B99921084800F030FB074B1B68D3F8B4301B59002B03DAE3682B60002038BD034838BD00BFA4180810E84A020801008A00D4
:40080000254B1B6893F8313083423AD900293AD00B6813F01F0F38D170B50D4604461E4B1B6893F83130984204D340F2C3111B4800F002FB184B1B68186AB3F8B03004FB8E
:400840000304174E34602A68D2080021686800F09FFF00212046FFF77BFF346825B940F293310E4800F0E8FA2A4600212046FFF78DFF60B900210A4B1868FFF769FF40B91F
:4008800070BD084870470748704706487047064870BD054870BD00BFE84A020864180810984A020803018A0001018A0010B504461346B2B9A9B9124B1B6893F83130984294
:4008C00004D340F2C3110F4800F0B6FA0C4B1B681A6AB3F8B03004FB03240B4B1C60002010BD43B149B1084A51609360111D2046FFF786FF10BD054810BD044810BD00BFA4
:40090000E84A020864180810984A020803018A002DE9F0411B4B1B68DC68236883422CD90D464609A0EB4610012303FA00F819B900F0EFFA074600E00027124B18680368C1
:40094000002B01DA002300E00F4B83B9626852F8263018EA030F05D023EA080342F82630002400E0094C0021FFF7F2FE00E0084C25B9384600F0D1FA00E0064C2046BDE8F5
:40098000F08100BF984A020801008A00020188000301880004018A000B4B1B68DB681A6882420CD94109A0EB4110012202FA00F05B6853F82130184203D004487047044893
:4009C00070470448704700BF984A02080101880004018A0000018800024B1B680BB9014B18607047A44A02082DE9F8430446884691461D46089F2C4B1B681BB9B5212B4888
:400A000000F01AFA284B1B682C2000FB04F01C18EEB21E50C5F3072363602D0CA560244B1B6893F831309E4204D340F2C311214800F002FA1E4B1B68196AB3F8B02006FB81
:400A400002162661666893F832309E4204D340F2DF11184800F0F0F9154B1B681D6A803605EB46156561A668330C1B0423B14FF4FF71104800F0E0F9330C1B0423B140F261
:400A8000FF110C4800F0D8F9B3B243EA0646AE60C4F81C90C4F820800023A36117B1B7F90030A381BDE8F883A44A0208E4180810E84A020864180810F0B58FB0044618B973
:400AC0005221274800F0B8F9A369072B03D95621234800F0B1F9E36A1BB95821204800F0ABF9236B1BB959211D4800F0A5F907AD04F114060FCE0FC537682F6002AD2646BB
:400B00000FCE0FC533682B60164B1B68B3F93620079B1344ADF83030089B0D93A26AE16A0CAD00953B460A98FFF75EFF00210091069B0A460598FFF757FF216B284600F026
:400B400027F9BDF93030002B08DB590903F01F03012202FA03F3044A42F821300FB0F0BDE4180810E84A020800E100E0F8B506460F461D4614461AB9FD211F4800F05CF9A7
:400B80001E4B1B681BB9FE211B4800F055F91B4B1B682C2101FB063001FB07314B68012202FA03F31B04466802FA06F60269EAB18F69EFB91268002A01DA002200E0104A0B
:400BC000C2B92288134323600369DC6001238B614D620469330C1B0423B140F2BB21094800F02AF9B2B2A2600020F8BD0648F8BD0648F8BD0548F8BDE4180810A44A020830
:400C000001008A006418081004028A0007028A00F8B505460F4616460E4B1B6823B94FF4AF710D4800F008F90A4B1B682C2404FB0534236A23B94FF4B171074800F0FCF807
:400C4000E369B34204D9236A43F826700020F8BD0248F8BDA44A0208E41808100A028A0070B582B000230193044620B940F2D111284800F0E1F8236923B94FF4E971254892
:400C800000F0DAF8636923B940F2D311214800F0D3F8236A23B94FF4EA711E4800F0CCF86369DD682A0C20D012041A601B682069194B1B68D3F8B430C358002B15DA01A927
:400CC000FFF782FD60B9019803681E0CDBB2E269934206D2226A52F8233013B1984700E0002631462069FFF733FDADB275B16369ADB21D601B68636A1BB1984700236362AB
:400D000002E0A36A03B198470023A36163691B6802B070BDE4180810E84A020810B50446074B1B6823B940F2B111064800F084F8034B1B682C2000FB0430FFF791FF10BD7F
:400D4000A44A0208E418081038B50D4B9A680D4B9A420FD10D46044621B940F237110A4800F06AF804F11003064A52F8230042F8235038BD1030054B53F8200038BD00BF61
:400D800000ED00E000400208241908100000081048B338B504460D464368072B03D93221134800F049F8B4F900306268002B08DB5201D2B203F1604303F5614383F8002335
:400DC00005E003F00F035201D2B20A49CA540A4B9A680A4B9A4208D12946B4F90000FFF7B3FF002038BD06487047002038BD00BF2419081014ED00E000ED00E00040020861
:400E00000100560010B5044605E0084B186800F077F8A4F50044B4F5004FF6D8044B186800FB04F000F06CF810BD00BFA8420208A442020801BEFEE738B50D46044C1822A2
:400E40000146204600F0ACFCA5610020FFF7F2FF50480208FEE700BF08B50268254BDA6142681A6282685A62C2689A620269DA6242691A6382695A63C2699A631E4A916A14
:400E8000D963D16A1964516A5964516B9964926BDA64F1EE103A13F0900F27D0026A154B1A65426A5A65826A9A65C26ADA65026B1A66426B5A66826B9A66C26BDA66026CE2
:400EC0001A67426C5A67826C9A67C26CDA67026DC3F88020426DC3F88420826DC3F88820C26DC3F88C20026EC3F89020FFF7B2FF08BD00BF5048020800ED00E0000000006F
:400F00000230800803D001300238FCD100BF00BF7047EFF3108072B6704780F310887047014B1860704700BFE84A020810B4D0F8003303F00F03072B06D900230DE0D0F881
:400F40004043CC54013300E000239342F7D306E0D0F8404321F8134001339342F8D35DF8044B704710B51446D0F80833C3F308039A4200D31C462246FFF7D8FF204610BDD0
:400F800010B4D0F8003203F00F03072B06D900230DE0CC5CC0F84042013300E000239342F7D306E031F81340C0F8404201339342F8D35DF8044B704710B51446036813F4B9
:400FC000006F01D0802200E04022D0F80832C3F30803D31AA34200D81C462246FFF7D0FF204610BD30B4036813F4006F01D0802200E04022002408E0D0F80832C3F3080355
:401000009A42F9D0C0F8405201340D5D002DF3D130BC70472DE9F84305460C46036813F4006F02D04FF0800801E04FF04008D5F8007207F00F07A26A012A19D9D4F82490C9
:40104000E262561EB9F1000F00D026B940F273512548FFF7F1FE324649462846FFF7ACFFA36A1B1AA362072F00D9400048446062D5F80832C3F30803984533D0A36A012B2D
:4010800030D10023A362072F02D8636A1E7801E0636A1E88FFF73DFFC5F840624FF40073C5F8803FD5F8803FFFF737FFD5F8883F23F4007222F0010242F4007623F4EE637F
:4010C00023F0030323B140F22A410848FFF7B4FEC5F8886F236843F002032360236B0BB101209847BDE8F883D81A0810181B08102DE9F04105460C46036813F4006F01D01F
:40110000802600E040267608A769D4F81C8017B1B8F1000F04D14FF499613148FFF78CFE424639462846FFF71DFF236A03442362E3691B1AE36173BBA368FBB1E3689E428D
:4011400001D8013E00E05E1E2B6813F4006F01D0802300E040239E4204D34FF420712148FFF76AFED5F8043323F0FF03F6B21E43C5F804630123C5F8C83F02E00023C5F8F9
:40118000C83F636823F001036360236B33B304209847BDE8F081A169D5F8002302F00F02072A00D940000844A0619E4216D95C1E2B6813F4006F01D0802300E040239C427B
:4011C00004D34FF420710748FFF736FED5F8043323F0FF02E3B21343C5F80433BDE8F081D81A0810181B0810002800F0A48170B50546002900F0A18116460C460B78022B23
:4012000003D93F21A248FFF717FE637B023BDBB2062B03D940219E48FFF70EFEA37B3BB1022B05D0032B03D041219948FFF704FE94F82130012B03D942219548FFF7FCFD23
:4012400094F82830012B03D943219148FFF7F4FD2378012B06D86368083B082B94BF0023012307E0A37F2BB16368013B062B94BF002301231BB145218548FFF7DDFDA3684D
:40128000053B042B03D946218148FFF7D5FD6369FF2B03D947217E48FFF7CEFDA369FF2B03D948217A48FFF7C7FDA37C6BB1237833B9A368092B05D1A37B2BB1012304E05A
:4012C000012302E0012300E000231BB14A217048FFF7B2FD636B23F4366323F00D031BB14C216B48FFF7A8FDE36B23F4EE6323F003031BB14D216648FFF79EFD2378022BF5
:4013000001D1A37F13B16268013A00E00022237F13B14FF4803100E00021A368082B02D84FF4006300E000230B4302F00F02134343F000732B60226B2B6813F4006F01D093
:40134000802300E040239A4203D362215048FFF773FDA26B2B6813F4006F01D0802300E040239A4203D363214948FFF765FD626A2B6813F4006F01D0802300E040239A4200
:4013800003D364214248FFF757FD23781B0603F040732B64637F0BB1402200E00022A37C13B14FF4806300E000231343227C12B14FF4807200E000221343627C12B14FF4D7
:4013C000007200E000221A43E36A013B1B0403F470231343627B013A02F007021343A27B120102F030021343AB64237B13B14FF4807200E00022E37B23B92378022B03D103
:40140000012302E0012300E0002313B14FF4007300E000231A43A368013B03F00F031343C5F80033227DA3691B0403F47F031343C5F81033E26AD5F8003303F00F030333F3
:401440009A4201D3102A03D97A211148FFF7F4FCE37F23B12378012B03D0002302E0002300E0012313B14FF4807200E00022637B013B03F007031A43A37B1B0103F0300301
:4014800013436B64237B2BB14FF4807203E000BF5C1B08100022A368013B03F00F0313432278012A02D14FF4803200E000221343C5F8003294F83030C5F8043394F82030D3
:4014C00013B14FF0007200E0002294F82130012B02D14FF0807300E00023134394F82820012A02D14FF4803200E00022134394F8242013432B6594F83830C5F80432636B84
:4015000023F4926323F002031B051B0DC5F8C83FE36B23F08C035B055B0DC5F8883F76B1002070603060B060F0603062F0623063044B736370BD04487047034870BD0020D4
:4015400070BD00BFEFCDAB000160AA000B694A69934202D34869181A7047CA694869101A184470472DE9F04107460D46036813F4006F02D04FF0800801E04FF040084FEA7F
:401580005808D7F80863C6F308062C6926E00134EB689C4200D100246B699C420FD12B6B0BB1082098476B699C4208D10023C7F8C83F0CB1013C13E0EC68013C10E0D7F838
:4015C0004023D7F8003303F00F03072B02D8AB681A5502E0AB6823F81420013E002ED6D12C61EC6829463846FFF7B0FF201A804519D908B1441E00E000243B6813F4006FFF
:4016000001D0802300E040239C4204D34FF420710648FFF711FCD7F8040320F0FF03E0B21843C7F80403BDE8F08100BF181B081038B504460D46D0F8003E13F0080F35D0AF
:40164000D0F8CC3F13F448730AD04A681A434A60C0F8C03FD0F8C03F0B6B0BB110209847D4F8CC3F13F4006F09D06B6843F400636B604FF40063C4F8C03FD4F8C03FD4F82D
:40168000CC3F13F0010F11D0EB6923B129462046FFF72EFD05E0AB681BB129462046FFF761FF0123C4F8C03FD4F8C03FD4F8003E13F0040F2ED0D4F88C3F13F4A0630AD0DB
:4016C0002A681A432A60C4F8803FD4F8803F2B6B0BB120209847D4F88C3F13F0010F08D029462046FFF796FC0123C4F8803FD4F8803FD4F88C3F13F4007F0BD00022C4F81B
:40170000882F2B6823F001032B60EA622B6B0BB10220984738BD00BF08B502490248FFF787FF08BDEC4A02080000664008B5114B1B785BB9104A11491148FFF755FD114982
:401740001148FFF725FB01220A4B1A700E4BB3F90030002B08DB590903F01F03012202FA03F30A4A42F82130054A136843F00043136008BDE44A0208EC4A02089C1B08108B
:4017800000006640191708101C18081000E100E002440346934202D003F8011BFAE7704710B5034642B111F8014B03F8014B013A002CF7D11A4400E010BD934202D003F8D0
:4017C000014BFAE710BD0000F8B500BFF8BC08BC9E467047F8B500BFF8BC08BC9E46704703000000010000000100000000000000050360000400000001000000000000007F
:40180000010000000604600008000000604A020885030810594F4F4F4F4F4F002E0000000700000047656E6572617465645F536F757263655C50536F43365C70646C5C64D7
:401840007269766572732F7065726970686572616C2F6970632F63795F6970635F6472762E68000047656E6572617465645F536F757263655C50536F43365C70646C5C647E
:401880007269766572735C7065726970686572616C5C6970635C63795F6970635F6472762E68000047656E6572617465645F536F757263655C50536F43365C70646C5C64B7
:4018C0007269766572735C7065726970686572616C5C6970635C63795F6970635F6472762E63000047656E6572617465645F536F757263655C50536F43365C70646C5C647C
:401900007269766572735C7065726970686572616C5C6970635C63795F6970635F706970652E630047656E6572617465645F536F757263655C50536F43365C70646C5C64D9
:401940007269766572735C7065726970686572616C5C737973696E745C63795F737973696E742E630000000000002040000024400000004000000000000023400000304095
:401980000000314000009F40000022400000104002020202020202020210101D800017007500FF030602063604102000000000007FC0000000040000000000000019324B77
:4019C000647D00804000080B100000000000FF012002001F00800004FF081018001000140018001C4044484C50000000081000000800000004000000041000000012000025
:401A000004210000002100000016000040114002C41300138013A013200000001C0000000000214000002540000001400000344000002440000031400000324000001F4129
:401A40000000234000001140010101010101010101101010800019005500F0000501053B04101C01010000000FC000000004000001010101011D3A57789600082000101245
:401A800008000000001F00000010000F002000023F06080E00080009000A000B24282C3034000000100000009000000088000000080000008000000004F0000000F00000CD
:401AC000400200002005A000D00100018001A001200000001000000047656E6572617465645F536F757263655C50536F43365C70646C5C647269766572735C706572697002
:401B0000686572616C5C7363625C63795F7363625F756172742E680047656E6572617465645F536F757263655C50536F43365C70646C5C647269766572735C7065726970CC
:401B4000686572616C5C7363625C63795F7363625F636F6D6D6F6E2E6800000047656E6572617465645F536F757263655C50536F43365C70646C5C647269766572735C706F
:401B800065726970686572616C5C7363625C63795F7363625F756172742E6300000000000C0000000800000000020000000000000000000000000000000000000000000044
:401BC00000000000000000000B000000000000000000000000000000000000000000000000000810004002088C020000001C08108C420208C4050000E4480208400200009D
:401C00000048E80100127A0000093D0000127A0000127A0008000000401F00000000A00FB10208108D0208100000000080B2C10050B3164B1B681A6AB3F8B030C3EBC303A4
:401C4000D358002BF5DA3E22114B1A6041F61E7204331A60A3F584730622C3F8182521F07F41C3F81C15D3F81C35084B1A68116AB2F8B030C3EBC3030B4400225A60054B40
:401C8000D3F81C35002BFADA704700BFE84A02080401264000002640F8B5274B1B6893F83130052B04D840F2C311244800F062FA214F3A68166AB2F8B03003EB83031E443C
:401CC00052684FF26003D458A4B200F043FA05463B681968D3F890208A58013C032C27D8032A0CD1164A127812F0FF0F07D10822B2601968D3F890208A58032AF9D0196833
:401D0000D3F884208B588858C0F307221B0E581C02FB00000B4B03FB00F00B4B1B680B4AA2FB03239B09B0FBF3F08230FFF77EFF284600F027FAF8BDE84A020824180810AB
:401D40000B00001640420F0090420208D34D62104378FF2B23D110B500F0FCF90446104B1B6893F83130042B04D840F2C3110D4800F000FA0A4B1A68136AB2F8B02003EBA0
:401D80008203DB685A68136843F001031360136813F0010FFBD1204600F0F4F910BD7047E84A0208241808102DE9F04707468846554B1B6893F83130012B04D840F2C3113E
:401DC000524800F0D7F9504B1B681C6AB3F8B0201444D3F8B420161993F85030002B79D04B4B1B7813F0FF0F02D04FF0000901E04FF00109B9F1000F38D0434B1B6893F8EA
:401E00003130052B04D840F2C311404800F0B2F93D4B1A68116AB2F8B03003EB83030B44D2F8B420D358002B22DB002000F0B2F9384B98421ED00023374A126901211846A4
:401E400000F0B0F918B1354D17E0013500E00025002000F09FF92F4B984202D0304B9D42F3D92F4B9D4207D92C4D06E0002504E02A4D02E0294D00E00025002D41D100F0B4
:401E800069F98246274BD3F81C35002B10DA224A0121204600F08EF960B94046FFF7C6FE57B13368002BFCDB00F05CF9054604E01A4D02E0194D00E01B4DB9F1000F05D0F3
:401EC0000121002000F03EF90028F9D1504600F059F916E000F03EF980460F4A0121204600F068F938B947B13368002BFCDB00F039F9054602E0094D00E00B4D404600F0C1
:401F000041F92846BDE8F087E84A0208241808100B00001601018800804A020805005200EF4902000000264001005000F0B47F4B1A6855684FF0B0535B7813F0FF0F04D0DF
:401F40004FF0B0535B78DBB200E02123212B55D1116AB2F8B030C3EBC303CC18CB58002BF6DAE36843F00103E360146AB2F8B030C3EBC3031C44E36813F0020F2DD0E36866
:401F80009EB21368D2F884105958090A090401F47F01D2F88870DB591B0A41EA03633343E3601168D2F884208B5823F47F4343F410638B505D4A13681C68D3F88810635861
:401FC00023F47F4343F41063635013681A68D3F884105158D3F88830D358544B1A68116AB2F8B030C3EBC3030B4400215960116AB2F8B030C3EBC3030B445B684B4B196893
:402000000C68D1F894301C44494A136943F004031361012801D030BF07E020BF454B1B7803B120BF0122434B1A70236803F00303022BE9D00A6AB1F8B030C3EBC303D0181F
:40204000D358002BF6DA4FF0B0535B7813F0FF0F04D04FF0B0535B78DBB200E02123212B30D1C36813F0020F1FD00C68D1F88410635823F47F42C3681B0C1B0203F47F4373
:4020800013436350294B19680C68D1F88800235823F47F420D6AB1F8B030C3EBC3032B44DB681B0E42EA03232350204B1A68136AB2F8B020C2EBC2021344DA6822F00102F3
:4020C000DA6026E0D5F80C311BBB1B490E681B4BD3F818451A4A106841F61E770F600621C3F818153E2111604422C3F81C25134BD3F81C35002BFADA4FF0AA33C5F80C3171
:402100000D4B1E60A3F58473C3F8184503F582731860064B1A68116AB2F8B030C3EBC3030B4400225A60F0BC704700BFE84A020800ED00E0A84A020808012640000026404A
:402140000401264001B40248844601BC604700BF1109081001B40248844601BC604700BF130F081001B40248844601BC604700BF6506081001B40248844601BC604700BF55
:40218000390E081001B40248844601BC604700BF1B0F081001B40248844601BC604700BF9909081001B40248844601BC604700BF6D0B081001B40248844601BC604700BF84
:4021C0008D07081000000000000000000000000000000000000000000000000000000000000000000000000000000000000000000000000000000000000000000000000033
:0200000490303A
:02000000ABCB88
:0200000490501A
:0C0000000005E20721002101E212CCCB38
:00000001FF