:020000041000EA
:4000000000400208230100100D00000085010010000000000000000000000000000000000000000000000000000000008101001000000000000000008101001081010010E9
:400040008101001081010010810100108101001081010010810100108101001081010010810100108101001081010010810100108101001081010010810100108101001060
:400080008101001081010010810100108101001081010010810100108101001081010010810100108101001081010010810100108101001081010010810100108101001020
:4000C00010B5064C2378002B07D1054B002B02D0044800E000BF0123237010BD3C06000800000000E0330010084B10B5002B03D00749084800E000BF07480368002B00D117
:4001000010BD064B002BFBD09847F9E70000000040060008E0330010E8000008000000007047FFF7FDFF72B60F4C104DAC4209DA21686268A368043B02DBC858D050FAE796
:400140000C34F3E70A490B4A0020521A02DD043A8850FCDC084809490860BFF34F8F00F007F900F01DF8FEE7E4330010FC3300103C0600084C0800080000000808ED00E007
:40018000FEE7FEE700B504207146084202D0EFF3098001E0EFF30880043001F0F7FBFEE710B5034800F06AF9002001F0ABFFFBE70000081010B5002001F064F910BDC046F9
:4001C00070B56249E0239B00CB580F2213401A00D0329200525807210A40032A05D0042A06D0002A12D15A4814E05A4A106811E01A00C0329200554952581F210A40112ABF
:4002000006D0132A04D0FA20C00103E0524801E080200002002B36D14C4BB222D2009A5801211140B125ED005A59120F032422405B591B0F1C4207D0444C63591B0F032458
:400240002340012B02D102E0012300E00023002B01D0002901D1032A4BD13C4BB022D2009D58AD03AD0B3D495958C904C90C9C58240E01231C40013401F0F6FF68432100E5
:4002800001F0F2FF35E0012B33D1304BC822D2009A5801251540C024E4001A59120F03210A401B591B0F194207D028490B591B0F03210B40012B02D102E0012300E0002363
:4002C000002B01D0002D01D1032A12D11F4DC022D200AB587F210B40A958090A1F263140AC58240C3440584301F0BEFF210001F0BBFFE0239B00154AD3581B09032213409A
:40030000D840144C6060164B1D692D0AFC32154001351969090E013101F0A6FFA060290001F0A2FF0500E06020610E4BC0180E4901F09AFF20750D4BE818FA21890001F038
:4003400093FFA061C003E06170BDC0460000264000127A00C000000800366E0184050000000021403F420F0040420F00E703000010B5284801F072FF274CB022D200A358B6
:400380005B005B08A350E0218900635830208343635080235B04A350204A214BE250A02292010433E250FF221E4BE25001F044FFC0225200A35801218B43A35000F014FBC2
:4003C000FFF7FEFEB0235B055B78002B04D0B0235B055B78DBB200E02123212B03D1124B0022DA605A60114C22008021042000F0EFFD2000103000F083FE0D4B1A6851237D
:40040000D35C002B02D00B4800F0F0FE00F0B8FC10BDC046283300100000264001000200840500008C050000E00023405806000848080008F02300108023024AD358032099
:40044000184070470000214010B501F032FB084980228C58074B2340074C23438B508823034AD358DB06FAD501F027FB10BDC04600002140FCFF00000100FA0570B50500CA
:40048000830504D0E821FF310F4801F051FA01F010FB0400FFF7D0FF032801D1FFF7D4FF0A4AB0239B00D55080215058084B03400848034353508823044AD358DB06FAD5B6
:4004C000200001F0FAFA70BD2424001000002140FCFF00000300FA05FEE7C046F0B50025002711E0BB00C658F3B2FF22964308E06A008A181478A419527822700135013BC4
:40050000DBB2002BF4D10137002FEBD0F0BDC0460323064A1360064A136080225201054B1A60054A054B1A607047C04608203140102031409402364001001180000E1F41E2
:4005400010B50A00002101F024FF10BD10B501F017FF10BD70B586B03C49A022D2008B58032083438B503A490B681A6885301B58D2181068374B184010600A681068842418
:400580001259801802681202120A0260086805680259AA181068034080204000034313600B683E229A5C002A06D02848E02189004258753CA24342503E229A5C002A06D013
:4005C0002248E021890042583024A24342503E229B5C002B07D01D49E02292008B588020000603438B500021012000F07DFF0021022000F079FF0021032000F075FF002183
:40060000042000F071FF0021002000F06DFF01A8114903000A0032CA32C312CA12C300F091FF002802D00420FFF756FF07490B4A8B588020000603438B50094801F03EF837
:4006400000280FD00420FFF747FFC0460000264048080008FF00FFFF3C240010087F0000400D0300CC4CCD4BE158CD4A0A40E250E158CC4A0A40E250E25880252D062A43C5
:40068000E250043BE158C84A0A40E250E158C74A0A40802189010A43E250E258802109020A43E250C24A1168C24B0B40802149000B431360002001F0A1FDBF4BE25815438C
:4006C000E550E158012291430A43E2506421002001F074F9B94B1B683F229A5C022A06D970229A5C02210A40B549986842509A6874215B5AD2189168B24B0B408021C901C3
:400700000B439360AD4B1B6873229A5C0321914070229A5C7220185C140084402143022002400A43802109060A438021C900986842509A6852583F229A5C032A06D9702268
:400740009A5C03210A40A049986842509A6874215B5AD218D1689B4B0B408021C9010B43D360964B1B6873229A5C03200400944070229A5C7221595C15008D4029002143E5
:4007800002400A43802109060A438021C900986842509A6852583F229A5C052A06D970229A5C04210A408949986842509A6874215B5AD2181169834B0B408E21C9010B43B5
:4007C00013617E4B1B6873229A5C0321914070229A5C7220185C140084402143042002400A43802109060A438021C900986842509A6852583F229A5C062A06D970229A5CA9
:4008000001210A407249986842509A6874215B5AD31859686B4A0A405A60684B1B6873229A5C0321914070229A5C7220185C140084402143012002400A43802109060A4321
:400840008021C900986842509A6852583F229A5C132A11D971229C5C01200100A1406E3AA2400A4010007022995C6F3A114002000A435849986842509A6876215B5AD218A5
:400880005168554B0B4055490B4353604B4B1B6873229A5C03242500954070229A5C7221595C1000884005437121595C0126300088408C4021000140294332400A438021E0
:4008C00009060A438021C900986842509A6852583F229A5C142A0BD97122985C703A82401100032282400A40C5210901986842509A6876215B5AD2181168374B0B403849C5
:400900000B4313602D4B1B6873229A5C0324210091400A007021585C0231595C8840104371229A5C01219140944022000A400243802109060A438021C900986842509A6809
:4009400052583F229A5C332A03D90021254A986881509A6874215B5AD2181168194B0B40FE2109020B431360144B1A687323D15C703B8B4019007023D35C7220105C8340DD
:400980000B43802109060B438021C9009068435093685B5806B070BD0000264004050000FEFCFFFFFFFF00FFFFF0FFFFFF8FFFFF00002740FFFCFFFF0C05000048080008BF
:4009C000080C0000FF00FFFF0C0C0000140C0000180C00004C0C0000FF0000FF004FC30000871300CC0C000070B58AB09621002000F0E4FF00F0BAFF002814D100F0A6FF5C
:400A0000C0235B006D4AD358DB0705D411006C4A8B585B005B088B506849694A8B588020000603438B50012001F086FA654A516C654B0B40E82189010B435364536C1B0A15
:400A4000FF2213403A2B07D15E4A516C5F4B0B40E82189010B435364FFF77CFD5C4A5D4B1A6000240CE06200121953005A4AD318198B9A8AD88A00041043FFF761FD013413
:400A80000B2CF0D900240AE0620012199300524AD3185A6E196ED86DFFF758FD0134112CF2D94E4D2900343128003830FFF716FD0F224B4B1A604B4B4B490B604B490A60CF
:400AC0004B4A13604B4A1368812149000B43136001AC22002B003C3343CB43C243CB43C243CB43C22100444800F052F924220021200001F04EFC0123019321003F4800F096
:400B000047F922002B00603323CB23C223CB23C223CB23C221003A4800F03AF9394D22002B1D43CB43C243CB43C243CB43C22100354800F02DF924220021200001F029FCDC
:400B4000862301932100314800F022F922002B00283343CB43C243CB43C243CB43C221002B4800F015F922002B004C3343CB43C243CB43C243CB43C22100264800F008F99B
:400B800022002B00703323CB23C223CB23C223CB23C22100204800F0FBF822001F4B143323CB23C223CB23C223CB23C221001C4800F0EEF8FFF7ACFC0AB070BD00002640CE
:400BC0000C05000000002740FF00FFFFFFC5FFDF0300FA05F00121403C2400103C2500100000634007010100000263400000644000026440007934400000324080003240BD
:400C000080023240BC25001000033240800332400004324080043240000632403C26001080063240214B984230D00ED8402831D004D800281FD010282AD031E080282BD0A9
:400C400080235B00984229D02AE0194B984229D007D8A0231B0698420DD0164B984212D01EE0154B98420AD0144B984209D0144B984215D101E0002016E0124814E01248E9
:400C800012E0124810E0A020C0030DE007480BE00F4809E00F4807E00F4805E0034803E00E4801E0A420C0037047C04606005200010000F0090000A0040000F0050000F010
:400CC000030000F0010052000200520003005200010050000200500005005200FF00520070B5124B1A683123D35C002B04D1C421FF310F4800F01CFE0C4B1D682C00B423DE
:400D0000EB582A6A944663441B68002B0BDB094B1868FFF787FF6B6801229A6063689B68002BFBD100E0044870BDC04648080008A42F0010E80700080200500010B50D4BC2
:400D40001861002805D002230370FD33437000234380094B1B6850229A5C002A08D051229B5C002B04D04F3A0449002000F0F8FA10BDC046E807000848080008610100088E
:400D800010B502481430FFF7D9FF10BDE807000870B505000C0000285DD000295DD0FF230A689A4303D099212D4800F0C1FDFF2322699A4303D09A21294800F0B9FDA36812
:400DC0005B0D03D09B21264800F0B2FD63685B0A03D09C21224800F0ABFDE3695B0F03D09D211F4800F0A4FD236A5B0F03D09E211B4800F09DFD1B4A11688B69EB1ADB09BD
:400E000049691B01CB18216829607D211068415C6918E06808607E211068415C6918206908607F211068415C6918606908607C211068415C6918A06808606168A96111688F
:400E400080228A5CAD18A2692A60E2691A60226A5A60002002E0044800E0034870BDC046E42F00104808000801005A0070B504000D000A4B1A68B423D3581B181B68002B13
:400E80000ADA0B0C03D00649064800F051FD2D042D0C6560002000E0034870BD48080008D50200006430001001008A0070B505000C000368002B01DA002300E0084B002B5C
:400EC0000BD1EA60230C03D00649074800F030FD2404240CAC60002000E0014870BDC04601008A00BB0200006430001070B505000C1E03D19921084800F01AFD074B1A6836
:400F0000B423D3585B191B68002B03DAEB682360002000E0024870BDA43000104808000801008A0070B504000D00234B1A683123D35C834236D9002936D00B68DB0635D196
:400F40003123D35C984204D3C421FF311B4800F0EFFC194B1B681A6AB0215B5A5C431419174E34602B68DA080021686801F011FA00212000FFF77AFF3468002D03D111492B
:400F80000E4800F0D5FC2A0000212000FFF78EFF00280DD10A4B18680021FFF767FF002808D108E0084806E0074804E0064802E0064800E0054870BD4808000864300010AE
:400FC000000800089303000003018A0001018A0010B50400002A17D1002915D1124B1A683123D35C984204D3C421FF310F4800F09FFC0D4B1B681A6AB0215B5A5C4314198C
:401000000B4B1C6000200EE0002A09D0002909D0074B59609A60191D2000FFF783FF02E0044800E0034810BD48080008643000100008000803018A00F0B583B00D001C4BEC
:401040001B68DC68236883422DD947097B01C01A012383401E00002903D100F02AFD019001E000230193124B18680368002B01DA002300E00F4B002B0ED16368BF00DF1934
:401080003B68334203D0B3433B60002400E00A4C0021FFF7EBFE00E0084C002D04D1019800F00BFD00E0064C200003B0F0BDC0460008000801008A00020188000301880029
:4010C00004018A000A4B1B68DA68136883420BD943095901401A0121814052689B009B580B4203D0034802E0034800E003487047000800080101880004018A0000018800CC
:40110000034B1B68002B01D1014B18607047C0460C080008F0B5474680B404000F0090461E002D4B1B68002B03D1B5212B4800F0FFFB294B1B682C2060431C18FF2215005A
:4011400035402560330A13406360360CA660244B1A683123D35C9D4204D3C421FF31214800F0E6FB1E4B1A68B023D35A6B43116A8C466344236166683223D35C9E4204D347
:40118000E021FF31174800F0D3FB154B1B681D6A80367601AD196561A668330C04D0FF214900104800F0C4FB330C03D00E490D4800F0BEFB3604330C1E43AE604346E36111
:4011C00027620023A361069B002B02D000229B5EA38104BC9046F0BD0C080008E43000104808000864300010FF010000F0B58FB0041E03D15221294800F09AFB6368032BA7
:4012000003D95421254800F093FBE36A002B03D15821224800F08CFB236B002B03D159211E4800F085FB07AA1300210061C961C321C921C302AD290023001433C1CBC1C19E
:4012400041CB41C10821535E0CAE3380144B1B6836215B5E07998C466344B370089B0D930B9B0A980096A26AE16AFFF753FF2B69E868002200920021FFF74CFF216B300075
:4012800000F0E8FA0023F25E002A05DB1F231A401E3B9340034A13600FB0F0BDE43000104808000800E100E0F8B505000F0016001C00002A03D1FD21224800F039FB224BA4
:4012C0001B68002B03D1FE211E4800F031FB1E4B1B682C2128004843181879435918012213004D68AB401B044568AA4015000269002A20D08F69002F1FD11268002A01DAC6
:40130000002200E0114A002A19D132681204120C134333600369DE6001238B614C6204692B0C03D00A490B4800F002FB2A04120CA260002004E0084802E0084800E0074810
:40134000F8BDC046E43000100C08000801008A00BB0200006430001004028A0007028A0070B504000D0016000F4B1B68002B04D1AF2149000D4800F0DBFA0B4B1B682C20E2
:4013800060431C18236A002B04D1B1214900074800F0CEFAE369B34204D9236AB6009D51002000E0024870BD0C080008E43000100A028A0070B582B00400002301930028D1
:4013C00004D1D221FF312D4800F0B2FA2369002B04D1E9214900294800F0AAFA6369002B04D1D421FF31254800F0A2FA236A002B04D1EA214900214800F09AFA6269D56840
:401400002B0C24D01B041360136820691C4B1A68B423D358C3181B68002B18DA01A9FFF765FD00280ED1019803681E0CFF221340E269934207D29B00226AD358002B02D092
:40144000984700E0002631002069FFF70FFD2D042D0C0FD063691D601B68636A002B03D098470023636203E0A36A002B00D098470023A36163691B6802B070BDE4300010E1
:401480004808000810B50400084B1B68002B04D1B221FF31064800F04BFA044B1B682C2060431818FFF786FF10BDC0460C080008E430001010B50400094B1B689B6CC34086
:4014C000DB0703D4BE21074800F032FA044B1B681B691034A402E3580F20184010BDC0464808000824310010134B1A683C23D35C83421DD9042904D94B1EFF3B9BB2132BF6
:4015000018D8FF290CD91F2319400C4A0300C0339B009950D03080000423835000200AE007231940D0308000044BC150002002E0034800E002487047480800080000264070
:4015400001004A0070B5041E03D14A494A4800F0EFF9B023DB00494AD358002B00DA87E0474B22689A4203D94649434800F0E0F923689B039B0BE279002A02D0802252045B
:4015800000E000221343B022D2003C498B50A2883D4B9A4204D98C218900374800F0C8F922893A4B9A4203D93949334800F0C0F9A388DB04D90C23891B04364A13400B4395
:4015C000354A2E498B50A37A0F2B04D98E218900294800F0ADF9E37A0F2B03D92F49264800F0A6F9A289284B9A4203D92C49224800F09EF9A37A0F211940E27A1201FF23CC
:4016000013400B43A289120226490A401343A27B1207C02189050A401343B122D20017498B50A379042B03D91F49134800F080F9228A164B9A4204D9912189000E4800F0FC
:4016400077F90E4819494558194B1D40A3791B02E022D20013402B4343504558154B1D40238A1B040B4A13402B434350002000E0114870BD1F020000643100100000264002
:40168000FFFF030029020000FF1F0000FF010000310200000000FF0184050000390200003A02000000FF1F00430200008C050000FFF8FFFFFFFF00FE03004A0070B5050051
:4016C0003149324A8B588020000603438B502C0003E0012000F020F9013CB223DB002A4AD3585B0701D4002CF3D12749B122D2008858274B03408020800503438B50002D41
:4017000001D0002C0CD02049B022D2008B588020000603438B5003E0012000F0FDF8013CB223DB00184AD358DB0701D4002CF3D1002D01D0002C08D01349B122D2008B5829
:40174000C020800503438B5013E00F4BB121C90058580F4A02408020800502435A5008395A58520052085A5008495A58520052085A50002D03D0002C03D0002002E00020D9
:4017800000E0044870BDC046000026408C050000FFFFFFCF02004A0070B505000C001A4B1B6828229A5C012A15D1820807211000884327D19200AD1AED00FF20A8401B68F7
:4017C00020339A181168AC4023004B40184004004C40146016E03A229B5EDBB2994203D176210A4800F0A4F8074B1B681B68072215408022120615438022920194466444DA
:40180000A400E55070BDC04648080008EC31001070B504000D000B4B9A680B4B9A420CD1002904D13821FF31084800F081F81034054BA400E058E55003E01034A400044B7B
:40184000E05870BD00ED00E000000008EC31001000000010F0B5474680B482B0061E01914AD04368032B03D93221264800F060F80023F05E002804DBB178FFF78DFF002484
:4018800000E0214C0023F15E7368002912DB88081E4FC0308000C55903221140C900FC3290468A4095439A01434613408B402B43C35116E089B20F220A40083A9208063284
:4018C000920013481018476803221140C900FF252A008A4097439A012B0013408B403B4343600B4B9A680B4B9A4206D10023F05E0199FFF78DFF00E0034C200002B004BC3F
:401900009046F0BDEC3100100100560000E100E000ED00E00000000810B5034B1B78584300F0BEF810BDC046D400000801BEFEE770B50D00044C18220100200000F031FDD5
:40194000A5610020FFF7F2FF00060008054B802212069A649B6C002B01DB002000E002487047C0460000274003004600054B8022120198585B68FF221A4202D08023DB02F8
:401980001843704700002640FEE7C04610B50A4B0268DA6142681A6282685A62C2689A620269DA6242691A6382695A63C2699A63FFF7EAFF10BDC04600060008F0B5474682
:4019C00080B4002801D0192300E064238B429B415B42304D2C682268A826A45BA41822680327BA433B401A4322602C682268A45BA2181668284CA046264016602C682668F5
:401A0000AA229446A25A96193268BA43134333602A6813686546525BD3181A68444614401C60002805D010291BD921291BD8012024E0184B1B6855229A5C914215D9562291
:401A40009A5C914213D957229A5C914211D958229A5C91420FD959229B5C99420DD804200CE000200AE0022008E0002006E0012004E0022002E0032000E00520054A126804
:401A8000526813680F218B430343136004BC9046F0BDC04648080008FFFCFFFF000000000230800803D001300238FCD1C046C0467047EFF3108072B6704780F31088704705
:401AC00010B5B0235B059B899BB2002B04D0B0235B059B899BB201E080235B0080225200934215D1184C23681968683A9B58C9180B680F208343963A13430B6021680C6870
:401B00009C23CB58E318196881430A431A6019E00D4C2368196898229B58C918B02040050A4BC2580A4B13400A681343C022920013430B60226811689C23D358CB18054A88
:401B400082581A6010BDC0464808000848180000FFFCFFFF4418000030B5B0235B059B899BB2002B04D0B0235B059B899BB201E080235B0080225200934215D1184C236888
:401B80001968683A9B58C9180B680F208343953A13430B6021680C689C23CB58E318196881430A431A6019E00D4D2B68196898229B58C918B0246405C12040012258094B2E
:401BC00013400A681343C022920013430B602A6811689C23D358CB1822581A6030BDC04648080008FFFCFFFFB0235B059B899BB2002B04D0B0235B059B899BB201E08023BA
:401C00005B008022520093420DD1104B1B681A6898215B58D21811680D4B0B40C021C9010B43136011E0094B1B68196898229B58C918084BB0225205D258074B13400A68D0
:401C40001343C022920013430B60704748080008FF8FFFFF18180000FFFCFFFF30B5B0235B059B899BB2002B04D0B0235B059B899BB201E080235B008022520093420DD163
:401C8000134B1B681A6898215B58D2181168114B0B408021C9010B43136018E00C4D2B68196898229B58C918B02464050A4822580A4B13400A681343C022920013430B607E
:401CC0002A6811689C23D358CB1822581A6030BD48080008FF8FFFFF4C180000FFFCFFFF10B5B0235B059B899BB2002B04D0B0235B059B899BB201E080235B00802252000B
:401D0000934217D10020FFF7D5FBB0235B055B78002B04D0B0235B055B78DBB200E02123222B03D8002803D1013004E0012002E0002000E0012010BD30B585B004000D00EF
:401D4000022807D9042805D0032803D02A492B48FFF7EEFD6B1EDBB2012B07D9042D05D0082D03D026492548FFF7E2FDA400254BE458042D13D0012D1CD112E0A3682B42C9
:401D80000BD1E3681A6802925B6801930393290002A8236898471B4B5C61646902E0002000E00020002C24D0174B9842E6D1012DE4D11EE0022D01D104E01C006369002BDE
:401DC000FBD104E00F4B5C69002C00D0246900200DE0A3682B4209D1E3681A6802925B6801930393290002A8236898472469002CEFD105B030BDC046B20900003032001053
:401E0000B309000010080008FF004200F8B50700012803D93D493E48FFF78AFDB0235B055B78002B04D0B0235B055B78DBB200E021239DB2B0235B059B899BB2002B04D095
:401E4000B0235B059E89B6B201E0802676000020FFF730FB002814D180235B009E4212D1222D12D82B4B1B685C682B4821582B4B19403B068022520413400B432350002472
:401E800004E0274C02E0264C00E0254C80235B009E4201D1222D03D880235B009E4232D01C4B1A683123D35C002B04D1C421FF311C48FFF73DFD174B1B681D6A80235B00ED
:401EC0009E4203D1002F05D0174A06E0002F03D0164A02E0164A00E0164A01212800FEF7E5FF00280FD10B4B1A68B423D3585B191B68002BF7DBEB681B0E1B06A02212068F
:401F0000934200D100242000F8BDC0464C0A0000303200104808000818F00000FFFFFFFE04004200A42F0010010100300300000C010000300100000CF8B50500012804D979
:401F4000822109012948FFF7F3FCFFF7C9FE002849D0FFF7AEFD0700002D11D10021244B244AD150E823DB00B0225205D65CF6B20120FFF74BFF041E19D1FFF7A1FD16E0AA
:401F8000B02252051C4BD0581A4B194958501B49565CF6B21A481A581F218A4314390A431A500320FFF7B8FCFFF758FE0024002C15D11049124A8B581F20834306401E43C4
:401FC0008E50002D02D1FFF70FFE08E00720FFF7A3FCFFF7C1FD0020FFF718FF04003800FFF76BFD00E0074C2000F8BD30320010307F0000000026401018000041070000E2
:402000001CFF00000300420010B5041E03D115491548FFF78DFC154B1A68D168F222D2018A5822601B68F022D201D9688A5862600F4AD9688A58A2600E4AD9688A58E2605D
:402040000D4AD9688A5822610C4AD9688A5862610B4AD9688A58A261DA680A4BD358E36110BDC046A10A0000303200104808000804780000087800000C7800001078000056
:40208000147800001878000010B5041E03D114491448FFF74DFC144B1B68F022D201D96860688850114AD968A0688850104AD968E06888500F4AD968206988500E4AD968DE
:4020C000606988500D4AD968A06988500C4AD968E0698850DA682168F223DB01D15010BDC90A0000303200104808000804780000087800000C780000107800001478000033
:402100001878000070B50500012804D9A62189003548FFF70DFC354B5B68002B05D001210120FFF709FE040000E00024002C53D1FFF7BFFC06002D4B5B68002B03D0042123
:402140000120FFF7F9FD2A4B1B6843229A5C002A08D09A68E023D358DB0603D523481830FFF752FFB0235B059B899BB2002B04D0B0235B059B899BB201E080235B00802252
:402180005200934203D1280000F02AF909E0194A116904230B431361012D01D030BF00E020BF134B1B6843229A5C002A08D09A68E023D358DB0603D50C481830FFF764FF71
:4021C0003000FFF77AFC094B5B68002B09D008210120FFF7B1FD04E002210120FFF7ACFD054C200070BDC04630320010100800084808000800ED00E0FF004200042805D1D5
:402200000B4A116804230B4313600FE0094B1A681168A023D358CB180006C022920410401860034A136804218B4313607047C04610E000E0480800080749C02252008B5819
:402240009B009B088020C00503438B508B588020000603438B50704700002640014B18607047C04648080008002243088B4274D303098B425FD3030A8B4244D3030B8B42A2
:4022800028D3030C8B420DD3FF22090212BA030C8B4202D31212090265D0030B8B4219D300E0090AC30B8B4201D3CB03C01A5241830B8B4201D38B03C01A5241430B8B42B1
:4022C00001D34B03C01A5241030B8B4201D30B03C01A5241C30A8B4201D3CB02C01A5241830A8B4201D38B02C01A5241430A8B4201D34B02C01A5241030A8B4201D30B02F2
:40230000C01A5241CDD2C3098B4201D3CB01C01A524183098B4201D38B01C01A524143098B4201D34B01C01A524103098B4201D30B01C01A5241C3088B4201D3CB00C01AE8
:40234000524183088B4201D38B00C01A524143088B4201D34B00C01A5241411A00D20146524110467047FFE701B5002000F006F802BDC0460029F7D076E770477047C046BE
:40238000002310B59A4203D0CC5CC4540133F9E710BD03008218934202D019700133FAE77047030030B5002A0DD00C7801335D1E013A2C700131002CF5D19A189A4202D04F
:4023C0001C700133FAE730BDF8B5C046F8BC08BC9E467047F8B5C046F8BC08BC9E46704701B40248844601BC604700BF350300080300000001000000010000000000000092
:4024000005036000040000000100000000000000010000000604600008000000C8070008B501001073797374656D5F70736F63365F636D30706C75732E630000F401000087
:40244000140004010A000905080000006301000000203440740080203440740000223440740080223440740000243440740080243440740000263440740080263440740067
:40248000002834407400802834407400002A34407400802A344074000021344074260010900000000023344004270010900000000025344094270010900000000027344018
:4024C000242800109000000000293440B428001090000000002B3440442900109000000000603440D42900107C00000080603440502A00107C00000000613440CC2A001099
:402500007C00000080613440482B00107C00000000623440C42B00107C00000080623440402C00107C00000000633440BC2C00107C00000080633440382D00107C00000099
:4025400000643440B42D00107C00000080643440302E00107C00000000653440AC2E00107C00000080653440282F00107C000000281500000170344018000000100000000F
:402580000003000000660A00000000000000000000000000000000030000000003000000000000000000000068866606000000000000000000000000121200000000000024
:4025C000070000000000000000000000CC0600BA0000000000000000000000001313080000001D1DFE000000000000000000000000000000000000000000000000000000E2
:402600000004040000000000070000000000000000000000CC06000000000000000000000000000013130000000000000700000000000000000000008666000000000000A0
:4026400000000000000000001414140000000000800000000000000000000000000000A00000000000000000000000000000000000000000000000000000000000000000FE
:40268000FFFFFFFFFFFFFFFFFFFFFFFFFFFFFFFFFFFFFFFFFF000000FFFFFFFFFFFFFFFFFFFFFFFFFFFFFFFFFFFFFFFFFF0000000000000000000000000000000000000044
:4026C0000000000000000000FFFFFFFFFFFFFFFFFFFFFFFF1111111111111111111111111111111111111111111111111111111111111111111111111111111111111111FA
:4027000011111111000000000000000000000000FFFFFFFFFFFFFFFFFFFFFFFFFFFFFFFFFFFFFFFFFF000000FFFFFFFFFFFFFFFFFFFFFFFFFFFFFFFFFFFFFFFFFF0000007F
:40274000000000000000000000000000000000000000000000000000FFFFFFFFFFFFFFFFFFFFFFFF1111111111111111111111111111111111111111111111111111111189
:402780001111111111111111111111111111111111111111000000000000000000000000FFFFFFFFFFFFFFFFFFFFFFFFFFFFFFFFFFFFFFFFFF000000FFFFFFFFFFFFFFFFE2
:4027C000FFFFFFFFFFFFFFFFFFFFFFFFFF000000000000000000000000000000000000000000000000000000FFFFFFFFFFFFFFFFFFFFFFFF11111111111111111111111126
:40280000111111111111111111111111111111111111111111111111111111111111111111111111000000000000000000000000FFFFFFFFFFFFFFFFFFFFFFFFFFFFFFFF44
:40284000FFFFFFFFFF000000FFFFFFFFFFFFFFFFFFFFFFFFFFFFFFFFFFFFFFFFFF000000000000000000000000000000000000000000000000000000FFFFFFFFFFFFFFFF7A
:40288000FFFFFFFF111111111111111111111111111111111111111111111111111111111111111111111111111111111111111111111111000000000000000000000000EC
:4028C000FFFFFFFFFFFFFFFFFFFFFFFFFFFFFFFFFFFFFFFFFF000000FFFFFFFFFFFFFFFFFFFFFFFFFFFFFFFFFFFFFFFFFF0000000000000000000000000000000000000002
:402900000000000000000000FFFFFFFFFFFFFFFFFFFFFFFF1111111111111111111111111111111111111111111111111111111111111111111111111111111111111111B7
:4029400011111111000000000000000000000000FFFFFFFFFFFFFFFFFFFFFFFFFFFFFFFFFFFFFFFFFF000000FFFFFFFFFFFFFFFFFFFFFFFFFFFFFFFFFFFFFFFFFF0000003D
:40298000000000000000000000000000000000000000000000000000FFFFFFFFFFFFFFFFFFFFFFFF1111111111111111111111111111111111111111111111111111111147
:4029C000111111111111111111111111111111111111111100000000000000001F1F1F1F1F1F1F1F1F1F1F1F1F1F1F1F071F1F1F1F1F1F1F1F1F1F1F1F1F1F1F00000000BB
:402A00000000000000000000000000000000000000000000FFFFFFFFFFFFFFFFFFFFFFFF111111111111111111111111111111111111111111111111111111111111111182
:402A40001111111111111111111111111111114100000000000000001F1F1F1F1F1F1F1F1F1F1F1F1F1F1F1F1F1F1F1F1F1F1F1F1F1F1F1F1F1F1F1F000000000000000036
:402A800000000000000000000000000000000000FFFFFFFFFFFFFFFFFFFFFFFF111111111111111111111111111111111111111111111111111111111111111111111111BE
:402AC00011111111111111111111111100000000000000001F1F1F1F1F1F1F1F1F1F1F1F1F1F1F1F1F1F1F1F1F1F1F1F1F1F1F1F1F1F1F1F0000000000000000000000002A
:402B0000000000000000000000000000FFFFFFFFFFFFFFFFFFFFFFFF11111111111111111111111111111111111111111111111111111111111111111111111111111111F9
:402B4000111111111111111100000000000000001F1F1F1F1F1F1F1F1F1F1F1F1F1F1F1F1F1F1F1F1F1F1F1F1F1F1F1F1F1F1F1F00000000000000000000000000000000ED
:402B80000000000000000000FFFFFFFFFFFFFFFFFFFFFFFF111111111111111111111111111111111111111111111111111111111111111111111111111111111111111135
:402BC0001111111100000000000000001F1F1F1F1F1F1F1F1F1F1F1F1F1F1F1F1F1F1F1F1F1F1F1F1F1F1F1F1F1F1F1F0000000000000000000000000000000000000000B1
:402C000000000000FFFFFFFFFFFFFFFFFFFFFFFF11111111111111111111111111111111111111111111111111111111111111111111111111111111111111111111111170
:402C400000000000000000001F1F1F1F1F1F1F1F1F1F1F1F1F1F1F1F1F1F1F1F1F1F1F1F1F1F1F1F1F1F1F1F00000000000000000000000000000000000000000000000074
:402C8000FFFFFFFFFFFFFFFFFFFFFFFF11111111111111111111111111111111111111111111111111111111111111111111111111111111111111111111111100000000F0
:402CC000000000001F1F1F1F1F1F1F1F1F1F1F1F1F1F1F1F1F1F1F1F1F1F1F1F1F1F1F1F1F1F1F1F000000000000000000000000000000000000000000000000FFFFFFFFF8
:402D0000FFFFFFFFFFFFFFFF11111111111111111111111111111111111111111111111111111111111111111111111111111111111111111111111100000000000000006B
:402D40001F1F1F1F1F1F1F1F1F1F1F1F1F1F1F1F1F1F1F1F1F1F1F1F1F1F1F1F1F1F1F1F000000000000000000000000000000000000000000000000FFFFFFFFFFFFFFFF7B
:402D8000FFFFFFFF11111111111111111111111111111111111111111111111111111111111111111111111111111111111111111111111100000000000000001F1F1F1F6B
:402DC0001F1F1F1F1F1F1F1F1F1F1F1F1F1F1F1F1F1F1F1F1F1F1F1F1F1F1F1F000000000000000000000000000000000000000000000000FFFFFFFFFFFFFFFFFFFFFFFF7B
:402E000011111111111111111111111111111111111111111111111111111111111111111111111111111111111111111111111100000000000000001F1F1F1F1F1F1F1F6A
:402E40001F1F1F1F1F1F1F1F1F1F1F1F1F1F1F1F1F1F1F1F1F1F1F1F000000000000000000000000000000000000000000000000FFFFFFFFFFFFFFFFFFFFFFFF1111111132
:402E8000111111111111111111111111111111111111111111111111111111111111111111111111111111111111111100000000000000001F1F1F1F1F1F1F1F1F1F1F1FB2
:402EC0001F1F1F1F1F1F1F1F1F1F1F1F1F1F1F1F1F1F1F1F000000000000000000000000000000000000000000000000FFFFFFFFFFFFFFFFFFFFFFFF1111111111111111EA
:402F00001111111111111111111111111111111111111111111111111111111111111111111111111111111100000000000000001F1F1F1F1F1F1F1F1F1F1F1F1F1F1F1FF9
:402F40001F1F1F1F1F1F1F1F1F1F1F1F1F1F1F1F000000000000000000000000000000000000000000000000FFFFFFFFFFFFFFFFFFFFFFFF111111111111111111111111A1
:402F800011111111111111111111111111111111111111111111111111111111111111111111111147656E6572617465645F536F757263655C50536F43365C70646C5C640B
:402FC0007269766572732F7065726970686572616C2F6970632F63795F6970635F6472762E68000047656E6572617465645F536F757263655C50536F43365C70646C5C64E7
:403000007269766572735C7065726970686572616C5C6770696F5C63795F6770696F2E630000000047656E6572617465645F536F757263655C50536F43365C70646C5C64E9
:403040007269766572735C7065726970686572616C5C6770696F5C63795F6770696F2E680000000047656E6572617465645F536F757263655C50536F43365C70646C5C64A4
:403080007269766572735C7065726970686572616C5C6970635C63795F6970635F6472762E68000047656E6572617465645F536F757263655C50536F43365C70646C5C649F
:4030C0007269766572735C7065726970686572616C5C6970635C63795F6970635F6472762E63000047656E6572617465645F536F757263655C50536F43365C70646C5C6464
:403100007269766572735C7065726970686572616C5C6970635C63795F6970635F706970652E630047656E6572617465645F536F757263655C50536F43365C70646C5C64C1
:403140007269766572735C7065726970686572616C5C70726F745C63795F70726F742E630000000047656E6572617465645F536F757263655C50536F43365C70646C5C647C
:403180007269766572735C7065726970686572616C5C737973636C6B5C63795F737973636C6B2E630000000047656E6572617465645F536F757263655C50536F43365C7024
:4031C000646C5C647269766572735C7065726970686572616C5C737973636C6B5C63795F737973636C6B2E680000000047656E6572617465645F536F757263655C50536F94
:4032000043365C70646C5C647269766572735C7065726970686572616C5C737973696E745C63795F737973696E742E630000000047656E6572617465645F536F757263655F
:403240005C50536F43365C70646C5C647269766572735C7065726970686572616C5C737973706D5C63795F737973706D2E63000000002040000024400000004000000000E8
:4032800000002340000030400000314000009F40000022400000104002020202020202020210101D800017007500FF030602063604102000000000007FC000000004000021
:4032C000000000000019324B647D00804000080B100000000000FF012002001F00800004FF081018001000140018001C4044484C500000000810000008000000040000009C
:40330000041000000012000004210000002100000016000040114002C41300138013A013200000001C000000000021400000254000000140000034400000244000003140BC
:403340000000324000001F410000234000001140010101010101010101101010800019005500F0000501053B04101C01010000000FC000000004000001010101011D3A57B2
:40338000789600082000101208000000001F00000010000F002000023F06080E00080009000A000B24282C3034000000100000009000000088000000080000008000000040
:4033C00004F0000000F00000400200002005A000D00100018001A0012000000010000000000000000000001000000008C000000004340010C0000008400500003C06000847
:40340000100200000048E80100127A0000093D0000093D0000093D0004000000A00F00000000D007E9000010C10000100000000010B50004400B27D0144B1A68146AB0235A
:40344000D15ACA00531AE3181B68002BF4DA3E220F4B1A600F4A104B1A60104B0621A322D20099500E4A98509B58084B1A68106AB023D15ACA00531AC31800225A60084B4E
:40348000064AD358002BFADA10BDC04648080008040126401E1F000008012640000026401C05000010B54378FF2B20D100F012FA04000F4B1A683123D35C042B04D8C421DF
:4034C000FF310C4800F0F6F9094B1A68116AB023D35A9B00CB18DB685A68116801230B4313601368DB07FCD4200000F00BFA10BD48080008A42F0010F0B585B001900291EF
:40350000544B1A683123D35C002B04D1C421FF31514800F0CFF94F4B1B681E6AB4229A58971950229B5C002B77D000F0F3F9050003283CD1474B1A683123D35C062B04D8CC
:40354000C421FF31444800F0B5F9424B1968B023CB5A5A00D21853000A6A94466344B4228A58D3181B68002B23DB002000F0BAF93A4B98421FD03A4B1A69002300210120AD
:4035800000F0D0F9002803D0364C17E0013400E00024002000F0A6F9304B984202D0324B9C42F3D9304B9C4207D92E4C06E0002404E02C4C02E02B4C00E00024002C46D1EF
:4035C00000F088F90390294B294AD358002B13DA234A0121300000F08DF900280ED10298FFF726FF019B002B0AD03B68002BFCDB00F068F9040004E01A4C02E0194C00E0A0
:403600001C4C032D05D10121002000F093F90028F9D1039800F076F919E000F05BF905000F4A0121300000F065F9002809D1019B002B08D03B68002BFCDB00F043F90400C1
:4036400002E0084C00E00B4C280000F05BF9200005B0F0BD48080008A42F001001018800E807000805005200EF4902001C0500000000264001005000F0B54F464646C0B490
:40368000824B1A685468B0235B055B78002B04D0B0235B055B78DBB200E02123212B67D1B023D15ACB005B1A116A8C46634419680029F5DADD6802212943D960B023D15A09
:4036C000CB005B1A116A8C466344D968C9073ED5D9680904090C8C4684271168D559A84641440968090A0904FF26360431400D0088261168894691598846C1444946096857
:40370000090A0906294365462943D9601168D359C9180A685E4B98461A4090252D012A430A605A4B99461A6813689C46925962441368414619400B002B4313604B461A68CA
:403740001568D15969180B689359EB181B684F4B1A68B021555AEB005B1B156AAC46634400255D60156A515ACA00531AEB185B68484A116904230B431361012801D030BF40
:4037800000E020BF414B1A68B023D15ACB005B1A116A8C46634419680029F3DAB02149054978002904D0B02149054978C9B200E02121212932D1D968C90722D510688421C7
:4037C000525880180468324A1440DB681B0C1B02FF2109020B40234303602C4B19688823C8580B689C46604403681A400D6AB023CC5AE1000B1BEB18DB681B0E1B021A43A4
:403800000260224B1A68106AB023D15ACA00531AC318DA6802218A43DA6028E086235B00E358002B23D11C4807681C4BA321C9005E581B4A904615681A4A02600620585012
:403840003E21424611600631174A9950164B134AD358002BFADA154A86235B00E2500E4B1F60A323DB000D4AD6500D4B1D60074B1A68106AB023D15ACA00531AC3180022A7
:403880005A600CBC90469946F0BDC04648080008FF00FFFF00ED00E00801264000002640040126401E1F00001C050000AAAAAAAA0000000001B40248844601BC604700BFCA
:4038C0003119001001B40248844601BC604700BFE10C001001B40248844601BC604700BFB31A001001B40248844601BC604700BFC510001001B40248844601BC604700BFFF
:40390000AD0E001001B40248844601BC604700BFBB1A001001B40248844601BC604700BF3904001001B40248844601BC604700BFA912001001B40248844601BC604700BF0F
:4039400039100010000000000000000000000000000000000000000000000000000000000000000000000000000000000000000000000000000000000000000000000000EE
:403980000000000000000000000000000000000000000000000000000000000000000000000000000000000000000000000000000000000000000000000000000000000007
:4039C00000000000000000000000000000000000000000000000000000000000000000000000000000000000000000000000000000000000000000000000000000000000C7
:020000041008E2
:4000000000780408EB0208100D0000005103081051030810510308105103081000000000000000000000000000000000917E08104D03081000000000317F0810957F0810F7
:400040004D0308104D0308104D0308104D0308104D0308104D0308104D0308104D0308104D0308104D0308104D0308104D0308104D0308104D0308104D0308104D03081000
:400080004D0308104D0308104D0308104D0308104D0308104D0308104D0308104D0308104D0308104D0308104D0308104D0308104D0308104D0308104D0308104D030810C0
:4000C0004D0308104D0308104D0308104D0308104D0308104D0308104D0308104D0308104D0308104D0308104D0308104D0308104D0308104D0308104D0308104D03081080
:400100004D0308104D0308104D0308104D0308104D0308104D0308104D0308104D0308104D0308104D0308104D0308104D0308104D0308104D0308104D0308104D0308103F
:400140004D0308104D0308104D0308104D0308104D0308104D0308104D0308104D0308104D0308104D0308104D0308104D0308104D0308104D0308104D0308104D030810FF
:400180004D0308104D0308104D0308104D0308104D0308104D0308104D0308104D0308104D0308104D0308104D0308104D0308104D0308104D0308104D0308104D030810BF
:4001C0004D0308104D0308104D0308104D0308104D0308104D0308104D0308104D0308104D0308104D0308104D0308104D0308104D0308104D0308104D0308104D0308107F
:400200004D0308104D0308104D0308104D0308104D0308104D0308104D0308104D0308104D0308104D0308104D0308104D0308104D0308104D0308104D0308104D0308103E
:400240004D0308104D0308104D0308104D0308104D0308104D0308104D0308104D0308104D0308104D0308104D0308104D0308104D0308104D0308104D0308104D030810FE
:400280004D0308104D0308104D03081010B5054C237833B9044B13B10448AFF300800123237010BDF849020800000000DCAB0910084B10B51BB108490848AFF30080084882
:4002C000036803B910BD074B002BFBD0BDE81040184700BF00000000FC490208DCAB0910C0430208000000007047FFF7FDFF72B6104C114DAC4209DA21686268A368043BBA
:40030000A2BFC858D050FAE70C34F3E70B490C4A00209142BCBF41F8040BFAE709480A490860BFF34F8F00F0F9F900F0D3F900F01DF8FEE7E0AB0910F8AB0910F849020811
:40034000304B04080040020808ED00E0FEE7FEE700B504207146084202D0EFF3098001E0EFF30880043005F0B1FFFEE770B582B062B608F015F908F0A9FD08F087F808F06B
:400380003FF808F0BFF800F041FB002000F04AFA00F00AFB00F024FC03220021012006F07DFA514B18600DF06DF8142003F0F2FA012003F0F7FA01200CF05CFF00200CF0DC
:4003C0009BFF6FF07F400CF08DFF0DF029F807F0F5FF464B19688C6891F87300032303FA00F591F8702091F87200824045EA020091F871200125954003FA02F205EA020399
:40040000034343F00043C4F800348B68D3F80034374C3849204605F0EBFEB4F90030002B08DB5A0903F01F00012181406032324840F82210002B08DB590903F01F03012275
:4004400002FA03F32C4A42F8213000F043F900F079F8002401940125009523464FF4FA722649274806F000FF01940226009623464FF4FA722349244806F0F6FE0194009645
:400480002346C8222149224806F0EEFE2946284600F0F2FB019403250095234632221D491D4806F0E1FE01940095234632221B491B4806F0D9FE01940523009323464FF453
:4004C00096721849184806F0CFFE019404230093234664221549164806F0C6FE06F0F6FE204602B070BD00BFFCDB0308EC470408446C0910A50C081000E100E030670910AA
:40050000310A08103C670910DD260810486709103D0B081054670910ED0C08105C670910310D081064670910F5110810706709100910081008B5012004F03AF808BD00BFA7
:40054000704700BF5C4AD2F8803303F00F0303F1D00152F8212002F00702032A04D0042A05D092B9554914E0554A116811E003F1C002514951F8222002F01F02112A06D0A9
:40058000132A04D04FF4FA4103E04E4901E04FF400418BBB484BD3F8902502F00100D3F88825C2F30172D3F8883513F0405F07D0414BD3F88835C3F30173012B02D102E0C1
:4005C000012300E0002303B108B9032A46D13A48D0F88025C2F31103D0F88425C2F30C02D0F88005C0F300600130B1FBF2F202FB03F2B2FBF0F131E0012B2FD12E4BD3F80D
:40060000402602F00100D3F80026C2F30172D3F8003613F0405F07D0274BD3F80036C3F30173012B02D102E0012300E0002303B108B9032A12D12048D0F8002602F07F02DB
:40064000D0F80036C3F30423D0F80006C0F3044002FB01F2B2FBF3F2B2FBF0F1164BD3F88033C3F3011321FA03F215494A601648D0F89030C3F3072301330069000E013067
:40068000B2FBF0F08860B2FBF3F3CB600B6103F5742202F23F220D48A0FB0202C2F387420A7503F2E7330A4AA2FB03239B098B61DB03CB61704700BF0000264000127A009F
:4006C0008C42020800366E010000214083DE1B43D34D621008B50D4805F098FFFFF730FFFFF730FF00221146042003F029FD084803F0BCFD074B1B6893F8513013B106483E
:4007000003F024FE03F0EAFB08BD00BFCC700910144A0208EC4704087C67091008B505F030FE074AD2F8883043F47003C2F88830BFF34F8FBFF36F8F05F027FE08BD00BFA3
:4007400000ED00E02DE9F04182B0884616461D46114C124F009700231A460146204604F0F5FD3B4600224146204604F05DFF002406E00A4B0022315D074804F055FF013480
:40078000AC42F6DB054A0021034804F0C1FE002002B0BDE8F08100BF00006440C44804082DE9F04383B08046894616461D461B4C1B4F009700231A460146204604F0C6FD8A
:4007C0003B4600224946204604F02EFF0097002301224146204604F031FE002408E0104B00930023321919460C4804F0C3FE01346B1E9C42F3DB1A46084C094D0095002357
:4008000032440121204604F0B5FE2A460021204604F07EFE002003B0BDE8F08300006440C448040870B584B00646144C144D0095642300225721204604F088FD2B46642213
:400840003146204604F0F0FE0095642301225721204604F0F3FD002104AA02F8011D00956423204604F086FE2A466421204604F04FFE9DF80F0004B070BD00BF0000634054
:4008800040480408F0B583B007460E460D4C0E4D0095642300225721204604F057FD2B4664223946204604F0BFFE2B4664223146204604F0B9FE2A466421204604F028FE92
:4008C00003B0F0BD00006340404804082DE9F04182B080460D4616461A4C1B4F0097642300225721204604F031FD3B4664224146204604F099FE00976423012257212046C5
:4009000004F09CFD002409E00F4B009364232A1900210C4804F02EFE0134E4B2731E9C42F2DB084E084F009764232A190121304604F020FE3A466421304604F0E9FD02B00B
:40094000BDE8F081000063404048040830B583B004460D46002303600B60062269460720FFF7B4FF9DF80020236803EB02439DF8012003EB02239DF80220134423609DF87B
:4009800003202B6803EB02439DF8042003EB02239DF805201344C3F311032B602368C3F31103236003B030BD08B5C0210220FFF769FF00210320FFF765FF00210420FFF7AD
:4009C00061FF00210520FFF75DFF00210620FFF759FF6F210820FFF755FF03210920FFF751FF27210A20FFF74DFF0A210C20FFF749FF0A210D20FFF745FF7D211020FFF736
:400A000041FF01212120FFF73DFF08BD08B540210920FFF737FF08BD10B5044601460C20FFF730FF21460D20FFF72CFF10BD00BFF8B50122254B1A70002443E00A2006F0CB
:400A400089FD234B1B6913F0800FF7D1A500214E214F71197819FFF779FF57F8242007EE902AF8EE677A1D4B2B44C3ED007A56F8243007EE903AF8EE677A19490D44C5ED00
:400A8000007A2146174813F079FDB4F5FA7F09D10022154B1A800122144B1A70C82006F059FD0AE04CB94FF4FA720F4B1A8001220E4B1A70C82006F04DFD0A2006F04AFDFE
:400AC0000134A4B2B4F57A7FBBD3B5E770F303088006324000AD0308A4BC0308589D030800DC0308B0670910F8DB030849CC030810B5642006F02EFD0C4C0D4BE3610D4B4B
:400B000023620D4B636268236370204602F0B0F90023E3731523237311232371204602F0EDF9636A3220984710BD00BF80F30308A10708104507081055750810F0B585B07F
:400B4000FFF7D6FF224B002201A9012002F0F8F900244FF08045BDF9040012F037FA22462B4609F0E5FF06460F46BDF9060012F02DFA22462B4609F0DBFF02460B46304661
:400B8000394612F0D7F806460F46BDF9080012F01DFA22462B4609F0CBFF04460D4622462B463046394612F0C5F80AF045F90022084B12F071FA02460B460749C1E90023D7
:400BC000064813F0DBFC4FF47A7006F0C3FCB9E780F303080000103F78F30308D06709100122174B1A600023164A1360164A1370164A1370164A1370164A1370164A137054
:400C00000DA1D1E90001154BC3E900019622144B1A805F22134B1A805022134B1A60C822124B1A602822124B1A606422114B1A70704700BFAFF30080CDCCCCCCCCCCF03FEC
:400C4000F8AC0308FCDB0308FCAC0308FDAC0308FEAC0308A0BC030848CC030878F303081CD403081ED4030844CC0308F4DB030874F30308002E0308F8B506460F4602F0F3
:400C8000FFFF0546064C3B4632460146204602F095FE41F2B0622946204612F0CFFFF8BD944B020808B50D4B1868002105F06EFF0B4B5A6910225A615B690A4BB3F90030D3
:400CC000002B09DB5A0903F01F03012101FA03F36032054941F8223008BD00BFFCDB030800003240446C091000E100E008B50B4B18684FF4FA7106F053F858B10023084A8D
:400D00001370084A1370084A1370084A1370322006F020FC322006F01DFCE8E7FCDB0308FEAC0308FDAC0308A0BC030848CC030808B5374B1B88374A1268934202DD012199
:400D4000354A1170354A1268934202DA0122344B1A70344B1A88344B1B689A4202DA0122324B1A70324BD3E9004527A3D3E900232046294612F002FC38B94FF033322D4B8F
:400D80002046294612F018FC10B101222A4B1A70294B1B7813F0FF0F0ED11F4B1B7813F0FF0F09D11E4B1B7813F0FF0F04D11F4B1B7813F0FF0F09D0204C0825656032200D
:400DC00006F0C8FBA560322006F0C4FB1A4B1B7813F0FF0F11D1104B1B7813F0FF0F0CD10F4B1B7813F0FF0F07D1104B1B7813F0FF0F02D10822114B9A60322006F0AAFB52
:400E000097E700BFAFF30080CDCCCCCCCCCCEC3F1CD40308F4DB0308FEAC030874F30308FDAC03081ED4030844CC0308A0BC030878F303083333F33F48CC03080000324091
:400E4000F0B597B002460F46002413941494ADF8544010941194ADF84840264B08AD93E8030085E803000A940B940C940D940E94ADF83C40203393E803000090ADF8041058
:400E8000CDF80640CDF80A40CDF80E40CDF81240CDF81640CDF81A40174E314613A813F085FB3A46314610A813F080FB20460CF023FA12480CF02AFA13A9284613F09AFBB2
:400EC000044613F0A6FB0E4B1B8823529B22052128460CF0A3FC10A9684613F08BFB9B22C82168460CF09AFC01210846FFF7C4FE17B0F0BDDC6709101C6B0910908A091006
:400F0000206B0910F0B50026B64626E0B500144C2C44D4ED006A07EE902AB8EEE76A76EEC66A9C1A07EE904AF8EEE77A86EEA77A4FEA8E040B4F274487ED007A0A4F3D449D
:400F400095ED007A37EE467AC7EE276A074D2C44C4ED006A0EF1010E0E448642D6DBF0BDA0EB0308A8F30308042E030890F7030830B5FFB005460C464FF4FA72002101A830
:400F800012F082FE002217E005EB820393ED007AF7EE007A77EEC77A9FED1A7A67EE877AB3EE0E7A77EE877AFDEEE77A17EE903A01A921F812300132A242E5DB19230022C8
:400FC000FA2101A80CF03CFC01200CF053F900200CF092F9AF2340F20712002108460BF051FC18234FF48472194600200CF0CCFE94234FF48472194600200CF0C5FE7FB0FF
:4010000030BD00BF0000964270B507F0EFFE002840F0D98007F0DEFA002007F019FD0446012007F001FD0646022007F0FDFC054601200CF01FF900200CF05EF96FF07F40A7
:401040000CF050F964480CF061F9A6B1634B1B68062B10DC614B1B68012B0CD05F4A1368013B13600CF0DCF9322006F073FA01210846FFF701FE0A2006F06CFA7EB1574B38
:401080001B68012B0BD10622544B1A600CF0C8F9322006F05FFA01210846FFF7EDFD0A2006F058FAA5B14D4B1B68002B10DD4B4B1B68072B0CD0494A1368013313600CF0E3
:4010C000AFF9322006F046FA01210846FFF7D4FD0A2006F03FFA7DB1404B1B68072B0BD101253E4B1D600CF09BF9322006F032FA29462846FFF7C0FD0A2006F02BFA4FF69C
:40110000FF739C425BD05AD0344B1B68032B12D1204611F05BFF2EA3D3E9002311F0BCFF12F092FAC0B22E4B1870FFF775FC01210846FFF7A1FD294B1B68042B12D1A4F1C0
:401140003203284A82FB0312DB17C3EBA20326490A6813440B600A2006F0FCF901210846FFF78AFD1D4B1B68052B12D1A4F132031C4A82FB0312DB17C3EBA2031B490A6871
:4011800013440B600A2006F0E5F901210846FFF773FD124B1B68062B11D1323C114B83FB0423E417C4EBA304114A13681C4414600A2006F0CFF901210846FFF75DFD07F09D
:4011C00073FD07F083FE322006F0C4F91DE700BF6666666666660440B0740910F8AC0308002E03086766666644CC030874F30308F4DB030870B5A6B0AD4B1B68012B40F020
:401200007D8100200CF078F8AA480CF07FF80CF007F9A94B1B7813F0FF0F26D1A74B1B7813F0FF0F21D1A64B1B7813F0FF0F1CD0A44B1B7813F0FF0F17D10CF0F1F80DAC12
:40124000A14D0FCD0FC495E8070003C422700023CDF84D30CDF85130CDF855301693062232210DA80CF0DAFAEAE0934B1B7813F0FF0F23D0914B1B7813F0FF0F1ED1904BCD
:401280001B7813F0FF0F19D18E4B1B7813F0FF0F14D10CF0C5F80DAC8C4D0FCD0FC495E8030084E8030000231393149315931693062232210DA80CF0B1FAC1E07E4B1B78C0
:4012C00013F0FF0F26D17D4B1B7813F0FF0F21D07B4B1B7813F0FF0F1CD17A4B1B7813F0FF0F17D10CF09CF80DAC794D0FCD0FC495E8070003C422700023CDF84D30CDF81C
:401300005130CDF855301693062232210DA80CF085FA95E0694B1B7813F0FF0F25D0684B1B7813F0FF0F20D0664B1B7813F0FF0F1BD10CF075F80DAC664D0FCD0FC40FCDE4
:401340000FC42B6824F8023B1B0C23700023CDF85730CDF85B30CDF85F30CDF8623006220F210DA80CF05AFA6AE0544B1B7813F0FF0F20D0504B1B7813F0FF0F1BD0514BEA
:401380001B7813F0FF0F16D10CF04AF80DAC524D0FCD0FC495E80F0084E80F0000231593169317931893ADF86430062214210DA80CF034FA44E0434B1B7813F0FF0F1ED0D4
:4013C0000CF02EF80DAC454D0FCD0FC495E8030044F8040B24F8021B090C21700023CDF84B30CDF84F30CDF85330CDF857308DF85B30062232210DA80CF010FA20E00CF0AA
:401400000FF80DAC364D0FCD0FC495E8070003C422800023CDF84E30CDF85230CDF85630ADF85A302F4A06928DF81C30062232210DA80CF0F3F90622EA2106A80CF0EEF9E8
:40144000294B1B787BB3294C03AB01AA4FF4FA7120460AF05FFD0DAB06AA4FF4FA7120460AF084FCDDED017AFDEEE77A17EE903ADDED067AFDEEE77A17EE902A02214FF4EE
:40148000FA70FFF73FFDFA211948FFF771FD194B1988194B1888FFF7D3FC0022124B1A70322006F057F8322006F054F800F07CBFF8AC0308908A0910FDAC0308A0BC030886
:4014C000FEAC030848CC03081C680910446809106C68091094680910C8680910FC68091024690910312F3600F0DB0308A0EB0308A8F303081CD403081ED40308B04B1B682A
:40150000022B40F0838100200BF0F6FEAD480BF0FDFE0BF085FFAC4B1B7813F0FF0F26D1AA4B1B7813F0FF0F21D1A94B1B7813F0FF0F1CD0A74B1B7813F0FF0F17D10BF0B7
:401540006FFF0DACA44D0FCD0FC495E8070003C422700023CDF84D30CDF85130CDF855301693062232210DA80CF058F9EFE0964B1B7813F0FF0F23D0944B1B7813F0FF0FE2
:401580001ED1934B1B7813F0FF0F19D1914B1B7813F0FF0F14D10BF043FF0DAC8F4D0FCD0FC495E8030084E8030000231393149315931693062232210DA80CF02FF9C6E040
:4015C000814B1B7813F0FF0F26D1804B1B7813F0FF0F21D07E4B1B7813F0FF0F1CD17D4B1B7813F0FF0F17D10BF01AFF0DAC7C4D0FCD0FC495E8070003C422700023CDF86C
:401600004D30CDF85130CDF855301693062232210DA80CF003F99AE06C4B1B7813F0FF0F25D06B4B1B7813F0FF0F20D0694B1B7813F0FF0F1BD10BF0F3FE0DAC694D0FCD3D
:401640000FC40FCD0FC42B6824F8023B1B0C23700023CDF85730CDF85B30CDF85F30CDF8623006220F210DA80CF0D8F86FE0574B1B7813F0FF0F20D0534B1B7813F0FF0F38
:401680001BD0544B1B7813F0FF0F16D10BF0C8FE0DAC554D0FCD0FC495E80F0084E80F0000231593169317931893ADF86430062214210DA80CF0B2F849E0464B1B7813F039
:4016C000FF0F1ED00BF0ACFE0DAC484D0FCD0FC495E8030044F8040B24F8021B090C21700023CDF84B30CDF84F30CDF85330CDF857308DF85B30062232210DA80CF08EF8A5
:4017000025E00BF08DFE0DAC394D0FCD0FC42B6824F8023B1B0C23700023CDF84730CDF84B30CDF84F30CDF85330CDF857308DF85B30304A06928DF81C300622EA2106A83F
:401740000CF06CF806223C210DA80CF067F82A4B1B787BB3294C03AB01AA4FF4FA7120460AF0D8FB0DAB06AA4FF4FA7120460AF0FDFADDED017AFDEEE77A17EE903ADDEDF8
:40178000067AFDEEE77A17EE902A02214FF4FA70FFF7B8FBFA211A48FFF7EAFB194B1988194B1888FFF74CFB0022134B1A70322005F0D0FE322005F0CDFE00F0F5BD00BFF5
:4017C000F8AC0308908A0910FDAC0308A0BC0308FEAC030848CC03081C680910446809106C68091094680910C8680910FC6809104C690910322F3600F0DB0308042E030876
:4018000090F703081CD403081ED40308B24B1B68032B40F08381AF2340F20712002108460BF030F800200BF067FDAC480BF06EFDAB4B1B7813F0FF0F26D1AA4B1B7813F098
:40184000FF0F21D1A84B1B7813F0FF0F1CD0A74B1B7813F0FF0F17D10BF0E2FD0DACA44D0FCD0FC495E8070003C422700023CDF84D30CDF85130CDF855301693062232213E
:401880000DA80BF0CBFFD5E0954B1B7813F0FF0F23D0944B1B7813F0FF0F1ED1924B1B7813F0FF0F19D1914B1B7813F0FF0F14D10BF0B6FD0DAC8F4D0FCD0FC495E80300CE
:4018C00084E8030000231393149315931693062232210DA80BF0A2FFACE0814B1B7813F0FF0F26D17F4B1B7813F0FF0F21D07E4B1B7813F0FF0F1CD17C4B1B7813F0FF0FD5
:4019000017D10BF08DFD0DAC7B4D0FCD0FC495E8070003C422700023CDF84D30CDF85130CDF855301693062232210DA80BF076FF80E06C4B1B7813F0FF0F25D06A4B1B78F7
:4019400013F0FF0F20D0694B1B7813F0FF0F1BD10BF066FD0DAC694D0FCD0FC40FCD0FC42B6824F8023B1B0C23700023CDF85730CDF85B30CDF85F30CDF8623006220F218F
:401980000DA80BF04BFF55E0564B1B7813F0FF0F20D0534B1B7813F0FF0F1BD0534B1B7813F0FF0F16D10BF03BFD0DAC544D0FCD0FC495E80F0084E80F00002315931693B6
:4019C00017931893ADF86430062214210DA80BF025FF2FE0454B1B7813F0FF0F1ED00BF01FFD0DAC474D0FCD0FC495E8030044F8040B24F8021B090C21700023CDF84B30D7
:401A0000CDF84F30CDF85330CDF857308DF85B30062232210DA80BF001FF0BE00BF000FD394B0D9300238DF838300622EA210DA80BF0F4FEAF2340F20712002108460AF021
:401A400021FF324C0DAD04F5CC760FCE0FC596E80F0085E80F000026ADF854608DF8566006AD04F5DE740FCC0FC594E8030045F8040B2970CDF82D60252301938DF8086033
:401A80004B2214210DA80BF0C9FE5B223C2106A80BF0C4FE7322782101A80BF0BFFE1C4B1A78642303FB02F31A4A82FB03121A44DB17C3EBE21292B2174903A812F076FD1A
:401AC00073225A2103A80BF0A9FE4FF4967005F041FD00F069BC00BFF8AC0308908A0910FDAC0308A0BC0308FEAC030848CC03081C680910446809106C6809109468091004
:401B0000C8680910FC680910332F3600DC670910002E030881808080246B0910AD4B1B68042B40F07781AF2340F20712002108460AF0A8FE00200BF0DFFBA7480BF0E6FB4B
:401B4000A64B1B7813F0FF0F26D1A54B1B7813F0FF0F21D1A34B1B7813F0FF0F1CD0A24B1B7813F0FF0F17D10BF05AFC0DAC9F4D0FCD0FC495E8070003C422700023CDF8F2
:401B80004D30CDF85130CDF855301693062232210DA80BF043FED5E0904B1B7813F0FF0F23D08F4B1B7813F0FF0F1ED18D4B1B7813F0FF0F19D18C4B1B7813F0FF0F14D1A9
:401BC0000BF02EFC0DAC8A4D0FCD0FC495E8030084E8030000231393149315931693062232210DA80BF01AFEACE07C4B1B7813F0FF0F26D17A4B1B7813F0FF0F21D0794B82
:401C00001B7813F0FF0F1CD1774B1B7813F0FF0F17D10BF005FC0DAC764D0FCD0FC495E8070003C422700023CDF84D30CDF85130CDF855301693062232210DA80BF0EEFD0D
:401C400080E0674B1B7813F0FF0F25D0654B1B7813F0FF0F20D0644B1B7813F0FF0F1BD10BF0DEFB0DAC644D0FCD0FC40FCD0FC42B6824F8023B1B0C23700023CDF8573085
:401C8000CDF85B30CDF85F30CDF8623006220F210DA80BF0C3FD55E0514B1B7813F0FF0F20D04E4B1B7813F0FF0F1BD04E4B1B7813F0FF0F16D10BF0B3FB0DAC4F4D0FCDD6
:401CC0000FC495E80F0084E80F0000231593169317931893ADF86430062214210DA80BF09DFD2FE0404B1B7813F0FF0F1ED00BF097FB0DAC424D0FCD0FC495E8030044F8F5
:401D0000040B24F8021B090C21700023CDF84B30CDF84F30CDF85330CDF857308DF85B30062232210DA80BF079FD0BE00BF078FB344B0D9300238DF838300622EA210DA859
:401D40000BF06CFDAF2340F20712002108460AF099FD2D4E0DAC06F5EC750FCD0FC495E80F0007C424F8023B1B0C2370452200210DF1530011F088FF06AC06F50F7393E82F
:401D8000070084E80700002309930A93252201928DF808304B2214210DA80BF03FFD6522502120460BF03AFD6522B42101A80BF035FD164B1A68164903A812F0F7FB6422FF
:401DC000962103A80BF02AFD4FF4967005F0C2FBEAE200BFF8AC0308908A0910FDAC0308A0BC0308FEAC030848CC03081C680910446809106C68091094680910C86809105B
:401E0000FC680910342F3600DC67091044CC0308246B0910AA4B1B68052B40F07181AF2340F20712002108460AF02CFD00200BF063FAA4480BF06AFAA34B1B7813F0FF0F9F
:401E400026D1A24B1B7813F0FF0F21D1A04B1B7813F0FF0F1CD09F4B1B7813F0FF0F17D10BF0DEFA0DAC9C4D0FCD0FC495E8070003C422700023CDF84D30CDF85130CDF886
:401E800055301693062232210DA80BF0C7FCD5E08D4B1B7813F0FF0F23D08C4B1B7813F0FF0F1ED18A4B1B7813F0FF0F19D1894B1B7813F0FF0F14D10BF0B2FA0DAC874D84
:401EC0000FCD0FC495E8030084E8030000231393149315931693062232210DA80BF09EFCACE0794B1B7813F0FF0F26D1774B1B7813F0FF0F21D0764B1B7813F0FF0F1CD12A
:401F0000744B1B7813F0FF0F17D10BF089FA0DAC734D0FCD0FC495E8070003C422700023CDF84D30CDF85130CDF855301693062232210DA80BF072FC80E0644B1B7813F0F7
:401F4000FF0F25D0624B1B7813F0FF0F20D0614B1B7813F0FF0F1BD10BF062FA0DAC614D0FCD0FC40FCD0FC42B6824F8023B1B0C23700023CDF85730CDF85B30CDF85F300C
:401F8000CDF8623006220F210DA80BF047FC55E04E4B1B7813F0FF0F20D04B4B1B7813F0FF0F1BD04B4B1B7813F0FF0F16D10BF037FA0DAC4C4D0FCD0FC495E80F0084E8B2
:401FC0000F0000231593169317931893ADF86430062214210DA80BF021FC2FE03D4B1B7813F0FF0F1ED00BF01BFA0DAC3F4D0FCD0FC495E8030044F8040B24F8021B090C60
:4020000021700023CDF84B30CDF84F30CDF85330CDF857308DF85B30062232210DA80BF0FDFB0BE00BF0FCF9314B0D9300238DF838300622EA210DA80BF0F0FBAF2340F2C8
:402040000712002108460AF01DFC2A4E0DAC06F514750FCD0FC495E80F0007C42380462200210DF1520011F00FFE06AB06F52D7207CA03C323F8022B120C1A700023CDF8C6
:402080002330CDF827308DF82B304B2214210DA80BF0C4FB6522502106A80BF0BFFB164B1A68164903A812F081FA6422962103A80BF0B4FB4FF4967005F04CFA74E100BFD1
:4020C000F8AC0308908A0910FDAC0308A0BC0308FEAC030848CC03081C680910446809106C68091094680910C8680910FC680910352F3600DC67091074F30308246B0910D5
:40210000AC4B1B68062B40F04F81AF2340F20712002108460AF0B6FB00200BF0EDF8A6480BF0F4F8A54B1B7813F0FF0F26D1A44B1B7813F0FF0F21D1A24B1B7813F0FF0F47
:402140001CD0A14B1B7813F0FF0F17D10BF068F90DAC9E4D0FCD0FC495E8070003C422700023CDF84D30CDF85130CDF855301693062232210DA80BF051FBD5E08F4B1B7838
:4021800013F0FF0F23D08E4B1B7813F0FF0F1ED18C4B1B7813F0FF0F19D18B4B1B7813F0FF0F14D10BF03CF90DAC894D0FCD0FC495E8030084E80300002313931493159376
:4021C0001693062232210DA80BF028FBACE07B4B1B7813F0FF0F26D1794B1B7813F0FF0F21D0784B1B7813F0FF0F1CD1764B1B7813F0FF0F17D10BF013F90DAC754D0FCDA3
:402200000FC495E8070003C422700023CDF84D30CDF85130CDF855301693062232210DA80BF0FCFA80E0664B1B7813F0FF0F25D0644B1B7813F0FF0F20D0634B1B7813F0FE
:40224000FF0F1BD10BF0ECF80DAC634D0FCD0FC40FCD0FC42B6824F8023B1B0C23700023CDF85730CDF85B30CDF85F30CDF8623006220F210DA80BF0D1FA55E0504B1B7878
:4022800013F0FF0F20D04D4B1B7813F0FF0F1BD04D4B1B7813F0FF0F16D10BF0C1F80DAC4E4D0FCD0FC495E80F0084E80F0000231593169317931893ADF8643006221421B6
:4022C0000DA80BF0ABFA2FE03F4B1B7813F0FF0F1ED00BF0A5F80DAC414D0FCD0FC495E8030044F8040B24F8021B090C21700023CDF84B30CDF84F30CDF85330CDF85730EB
:402300008DF85B30062232210DA80BF087FA0BE00BF086F8334B0D9300238DF838300622EA210DA80BF07AFAAF2340F20712002108460AF0A7FA2C4E0DAC06F532750FCD20
:402340000FC495E80F0007C42380462200210DF1520011F099FC06AB06F54B7207CA03C323F8022B120C1A700023CDF82330CDF827308DF82B304B2214210DA80BF04EFA60
:402380006522502106A80BF049FA184B1A68184903A812F00BF96422A02103A80BF03EFA4FF4967005F0D6F8322005F0D3F8FEF723BF00BFF8AC0308908A0910FDAC0308D3
:4023C000A0BC0308FEAC030848CC03081C680910446809106C68091094680910C8680910FC680910362F3600DC670910F4DB0308246B091070B586B005460E46084C236826
:402400000093084B084A292103A809F01BFE23683246294603A809F027FE06B070BD00BFAC420208446202082C6B091000239FED157A07E000EB8302D2ED007A37EE277A94
:4024400001339BB2104A52689342F3D310B407EE902AF8EE677AC7EE276A00230AE09A008C180244D2ED007A77EEE67AC4ED007A01339BB2044A52689342F0D35DF8044B2D
:40248000704700BF00000000AC4202082DE9F0478AB082460D4617461E46002309930893079306930593049300230393029301930093414C03AB07AA6168384609F02AFDC7
:4024C00002AB06AA6168384609F050FC01AB05AA6168304609F01EFD6B4604AA6168304609F044FCDDED067A9DED077A77EE677A17EE900A10F07CFD80468946DDED047ADE
:402500009DED057A77EE677A17EE900A10F070FD06460F4609AA6168504609F0BFFC08AA6168284609F0BAFC099810F061FD02460B464046494610F0D9FE04460D46089880
:4025400010F056FD02460B463046394610F0CEFE02460B462046294610F0C8FE04460D460022164B10F098FD02460B462046294610F092FD06460F460022114B20462946D4
:4025800010F08AFD02460B463046394610F0D2FB00220C4B10F0CEFB08F07CFA11F054F880B2094B1880642801D964221A80064B18880AB0BDE8F087AC420208000036C0E3
:4025C00000002E40008058401ED4030810B584B00023039302930024ADF8064021464EE000EB8103D3ED006AF1EE087AF4EEE76AF1EE10FA41DD013200EB820292ED007A9E
:40260000B4EEE77AF1EE10FA12D436E0CA1800EB8202D2ED007A76EEE77AB2EE087AF4EEC77AF1EE10FA00DD012401339BB200E00023132BEAD904B3BDF806309BB201338B
:402640009BB2ADF80630BDF806309BB2012B07D107EE901AF8EE677ACDED027A00240CE0BDF806309BB23BB107EE901AF8EE677ACDED037A002400E00024013189B20A46A4
:40268000144B5B68013B9942AAD3BDF806309BB2013BC3EB03139A00DDED037A9DED027A77EEC77A0B4BD3ED026A87EEA67A07EE902AF8EEE77AC7EE876A16EE900A10F04E
:4026C00097FC08F0E7F910F0BFFF80B2024B188004B010BDAC4202081CD4030880B51F4B1B78002B36D01E4C20881E4EDFF89480314608EB8000FFF77DFE20881A4F1B4C87
:40270000394604EB8000FFF775FE194D29462046FFF78CFE174C21464046FFF787FE29462846FFF767FE21462046FFF763FE2046FFF74CFF104B18802B46224639463046F8
:40274000FFF7A4FE0D4B188001220D4B1A700022024B1A70642004F0FDFEC0E749CC0308F8DB03084CCC030820D4030800DC0308A0EB0308042E03081CD403081ED40308E7
:40278000F0DB0308589D030840B1C2694AB1026A52B1436A5BB94FF0FF3070474FF0FF3070474FF0FF3070474FF0FF3070470020704700BF0222C2710823437110210171F9
:4027C00003218171C2734373142303730023837343688360C3680361704700BF4B790F2B0BD84A7A93420BD0027802F0F00203F00F0313430370002070476FF0030070470E
:4028000000207047CB79022B08D8CA7A934208D0037803F08F030370002070476FF0030070470020704700BF8B790C2B0BD88A7A93420BD0027802F0F00203F00F031343FB
:402840000370002070476FF003007047002070474B7B0D2B0BD84A7C93420BD0027802F0F00203F00F0313430370002070476FF00300704700207047CB7B022B09D8027806
:4028800002F0CF021B0103F0300313430370002070476FF0030070478B7B042B0BD88A7C93420BD0027802F0F80203F0070313430370002070476FF0030070470020704799
:4028C00038B593B11C46DD6995B19B78012B01D140F0800013460A4601466078A8470546636A0120984745B105E04FF0FF3504E04FF0FF3501E06FF00105284638BD00BF1C
:4029000038B504460D460B46022201464020FFF7D7FF034680B929462046FFF75FFF034650B929462046FFF76DFF034620B92946601CFFF779FF0346184638BD38B50446A3
:402940000D460B46022201464220FFF7B9FF034680B929462046FFF77BFF034650B929462046FFF789FF034620B92946601CFFF793FF0346184638BD00B583B002A90023E5
:4029800001F8013D034601220220FFF799FF9DF80730C3F34303012B06D0022B07D0032B08D0072B0BD108E06FF0050007E06FF0060004E06FF0070001E06FF0080003B005
:4029C0005DF804FB30B585B005460C460023019302938DF80C301346821D01A91220FFF76FFF48BB02469DF805301B021BB29DF804100B4323809DF807301B021BB29DF8A3
:402A000006100B4363809DF809301B021BB29DF808100B43A380032D0BD19DF80A009DF80B309DF80C10090441EA03230343A36004E00023A36001E06FF00102104605B04E
:402A400030BD00BF10B584B00C4613460021009101910291CDF80B1010BB062269460C20FFF72EFF0146002846D19DF801301B021BB29DF80020134323809DF803301B0295
:402A80001BB29DF80220134363809DF805301B021BB29DF804201343A3800023A36030E002460C3269460C20FFF70AFF014630BB9DF801301B021BB29DF80020134323804D
:402AC0009DF803301B021BB29DF80220134363809DF805301B021BB29DF804201343A3809DF80C009DF80D309DF80E20120442EA03230343A36004E06FF0010101E06FF0E2
:402B00000101084604B010BD70B584B006460D4614460022009201920292CDF80B2000F10C0269460C20FFF7CBFE002843D102469DF801301B021BB29DF800100B43238044
:402B40009DF803301B021BB29DF802100B4363809DF805301B021BB29DF804100B43A3809DF807301B021BB29DF806100B432B809DF809301B021BB29DF808100B436B8005
:402B80009DF80B301B021BB29DF80A100B43AB80032E0CD19DF80C009DF80D309DF80E10090441EA03230343AB60A36005E00023AB60A36001E06FF00102104604B070BDBD
:402BC0002DE9F843002B31D00546894690461E461C6A74B39B78012B01D100F07F05337A112B02D0337C152B19D143464A4629467078A0470746736A0120984714E0376A28
:402C0000012309EB040229467078B84707460135EDB2736A012098470134E4B201E000242746A3B24345EAD347B105E04FF0FF3704E04FF0FF3701E06FF001073846BDE834
:402C4000F88300BF10B582B0044602A8002320F8043D2146FFF754FE0346C8B92346012201A94020FFF7ACFF034688B963796372E379E372636A01209847234601220DF1C0
:402C800005014120FFF79CFF034608B9A279A272184602B010BD00BF10B582B0044602A8002320F8043D2146FFF748FE0346C8B92346012201A94220FFF782FF034688B9DA
:402CC000637B6374E37BE374636A01209847234601220DF105014320FFF772FF034608B9A27BA274184602B010BD00BF30B583B004460D4600238DF807300B46012201461B
:402D00004020FFF7DDFD034628BB2A79122A14D1237863F07F0323702B46012221464020FFF74EFF0346B0B92B4602220DF107015820FFF745FF03460DE0227812F0800F72
:402D400009D002F07F0222702B46012221464020FFF736FF0346184603B030BD30B583B000238DF807300279A2F11003DBB2022B1AD8037A9A421AD0044601460DF107000B
:402D8000FFF7B4FF054698B923460122211D7E20FFF716FF0546237A102B02D1636A052098472379237203E06FF0030500E00025284603B030BD00BF38B5027BA2F1140333
:402DC000DBB2012B01D9172A1DD1037C9A421DD004460346012200F10C017E20FFF7F0FE0546237C142B03D1636A5120984707E0172B05D1237B152B02D1636A0A209847F3
:402E0000237B237403E06FF0030500E00025284638BD00BF30B583B0B6238DF80730F0B10446436AF3B1034601220DF107017E20FFF7C6FE0546636A0F20984755B9A378EA
:402E4000012B07D1234601220DF107017F20FFF737FD054645B92046FFF7ACFC04E04FF0FF3501E04FF0FF35284603B030BD00BF10B582B00446FFF787FC034648B9A27810
:402E8000012A06D123460DF107017F20FFF718FD0346C3B9234601220DF106010020FFF70FFD58B99DF80630D12B0AD12370FF23E3702046FFF7AEFF034604E06FF002032A
:402EC00001E06FF00203184602B010BD60B1426A6AB110B50446FFF741FF034658B92046FFF76AFF034606E04FF0FF3301E04FF0FF3318467047184610BD00BFB0B1426A76
:402F0000BAB110B50446FFF79DFE0346A8B92046FFF7C2FE034680B92046FFF7D7FF034658B92046FFF728FD034606E04FF0FF3301E04FF0FF3318467047184610BD00BF40
:402F400038B500F0030510F0040F01D1002000E00320B3B11446022D08D0032D0CD0012D12D1A1B11A46FFF72DFD38BD92B11A462146FFF767FD38BD7AB189B1FFF7C4FD46
:402F800038BD4FF0FF3038BD6FF0040038BD4FF0FF3038BD4FF0FF3038BD4FF0FF3038BD4FF0FF3038BD00BF2DE9F04180460E4617460A4C08256560702000F06FFD40469E
:402FC00000F06CFDA5606560722000F067FD3946304600F0C7FDA560BDE8F0810006324000B583B002AB03F8011D01221946FFF7DBFF03B05DF804FBF8B507460E46094CE2
:4030000008256560702000F049FD384600F046FDA5606560732000F041FD304600F06EFDA560F8BD0006324038B50425084B5D60084C402363601023636000F0FFFC0822EE
:40304000054B5A6065602023636000F0E1FC38BD00003240800232400006324010B5434C6F220021204610F00FFE631C236704F14E03636704F12203A36700F0C9FC03E08D
:4030800000F0D0FC032868D800F0AEFD0028F7D100F0CEFC00217220FFF7AEFF00F00F0002285CD14021FFF79BFF00210F20FFF7A3FF10F0800F54D002210B20FFF790FF99
:4030C00008222B490120FFF76FFFD1210720FFF787FF02210820FFF783FFC2210920FFF77FFF03210420FFF77BFF01210320FFF777FF00210320FFF773FF0A2003F0B2F8F9
:40310000002400E01C4601210520FFF769FF642003F0A8F803210520FFF762FF322003F0A1F80F210520FFF75BFF322003F09AF800210F20FFF760FF10F0400F05D0402149
:403140000220FFF74DFF234603E0631C9BB2042CD8D1032B07D9052010BD012010BD022010BD032010BD002010BD00BFB46A0208D06B091010F1090F0EDB10F1040F0EDB06
:4031800005280FDD0A2810DD0F2811DD142811DD282811DC5A2210E04FF496620DE04FF461720AE04FF4167207E04FF4A57204E0DC2202E0B42200E03C22034BA3F87C204E
:4031C000A3F87E20704700BFB46A02082DE9F84F06460D46047828B1CA4B984205D10127002403E00127FF2400E0002700F010FC4FF00008D0E1C8EBC80AC8EB0A1ADFF83A
:403200000C930AEB090B6F220021584610F03CFD0BF1010EBC4BC3F870E00AF148004844063058670AF1200AD14409F10209C3F878902022002397E10FB934780136032DC2
:4032400000F29081DFE815F004006500C600270100EB030C14F0400F01D0C02100E080218CF8001049B214F0100F02D04FF0300A01E04FF0200A4AEA01018CF8001014F093
:40328000040F02D04FF00C0A01E04FF0080A4AEA01018CF8001014F0010F02D04FF0030A01E04FF0020A4AEA01018CF800100EEB020C14F0800F01D0032100E002218CF89A
:4032C000001049B214F0200F02D04FF00C0A01E04FF0080A4AEA01018CF8001014F0080F02D04FF0300A01E04FF0200A4AEA01018CF80010013A92B214F0020F02D06FF02E
:403300003F0A01E06FF07F0A4AEA01018CF8001028E100EB030C14F0400F01D0802100E040218CF8001049B214F0100F02D04FF0200A01E04FF0100A4AEA01018CF80010B7
:4033400014F0040F02D04FF0080A01E04FF0040A4AEA01018CF8001014F0010F02D04FF0020A01E04FF0010A4AEA01018CF800100EEB020C14F0800F01D0022100E0012165
:403380008CF8001049B214F0200F02D04FF0080A01E04FF0040A4AEA01018CF8001014F0080F02D04FF0200A01E04FF0100A4AEA01018CF80010013A92B214F0020F02D070
:4033C0006FF07F0A01E04FF0400A4AEA01018CF80010C7E000EB030C14F0400F01D0C02100E040218CF8001049B214F0100F02D04FF0300A01E04FF0100A4AEA01018CF8D9
:40340000001014F0040F02D04FF00C0A01E04FF0040A4AEA01018CF8001014F0010F02D04FF0030A01E04FF0010A4AEA01018CF800100EEB020C14F0800F01D0032100E0B0
:4034400001218CF8001049B214F0200F02D04FF00C0A01E04FF0040A4AEA01018CF8001014F0080F02D04FF0300A01E04FF0100A4AEA01018CF80010013A92B214F0020F4B
:4034800002D06FF03F0A01E04FF0400A4AEA01018CF8001066E000EB030C14F0400F01D0802100E0C0218CF8001049B214F0100F02D04FF0200A01E04FF0300A4AEA01011B
:4034C0008CF8001014F0040F02D04FF0080A01E04FF00C0A4AEA01018CF8001014F0010F02D04FF0020A01E04FF0030A4AEA01018CF800100EEB020C14F0800F08D0022141
:4035000007E000BFFFFF0F10B46A020878FB030803218CF8001049B214F0200F02D04FF0080A01E04FF00C0A4AEA01018CF8001014F0080F02D04FF0200A01E04FF0300A69
:403540004AEA01018CF80010013A92B214F0020F02D06FF07F0A01E06FF03F0A4AEA01018CF8001001339BB2202B7FF665AEC8F1AF031BB299101A4A134003D5013B63F08D
:4035800003030133174A02FA83F31B7A09F8013008F101081FFA88F8B8F1AF0F7FF62BAE00240FE0C4EBC403C4EB03136F220E4919440A20FFF7F8FC07210220FFF710FDF3
:4035C0000134A4B2AF2CEDD9084BB3F87C4000F029FA8442E4D800F02BFABDE8F88F00BF03000080D06B091078FB0308B46A02082DE9F04706460D4600F00AFAD2210920D7
:40360000FFF7EEFC0024C6E0C4EBC407C4EB0717DFF8008207EB08096F220021484610F033FB09F1010C784BC3F870C007F1480EC6440EF1060EC3F874E02037B84408F154
:403640000208C3F87880202000218EE0771C32786E1C95F800900EEB010582EA090212F0400F04D019F0400F03D0802302E0402300E0C0232B705BB212F0100F05D019F0C2
:40368000100F05D04FF0200A04E04FF0100A01E04FF0300A4AEA03032B7012F0040F05D019F0040F05D04FF0080A04E04FF0040A01E04FF00C0A4AEA03032B7012F0010FC7
:4036C00005D019F0010F05D04FF0020A04E04FF0010A01E04FF0030A4AEA03032B700CEB000512F0800F04D019F0800F03D0022302E0012300E003232B705BB212F0200FB6
:4037000005D019F0200F05D04FF0080A04E04FF0040A01E04FF00C0A4AEA03032B7012F0080F05D019F0080F05D04FF0200A04E04FF0100A01E04FF0300A4AEA03032B7062
:40374000013880B212F0020F05D019F0020F04D06FF07F0203E0402201E06FF03F0213432B70013189B235463E4620297FF66EAFC4F1AF031BB29910244A134003D5013B78
:4037800063F003030133224A02FA83F31B7A08F801300134A4B2AF2C7FF636AF002421E0C4EBC405C4EB05151A4B1D446F2229460A20FFF7F9FB07210220FFF711FCC4F1D6
:4037C000AF0343F38D032B44002283F822206F2229460A20FFF7E8FB07210220FFF700FC0134A4B2AF2CDBD9074BB3F87E4000F019F98442D2D800F01BF9C2210920FFF777
